:020000040000FA
:1000000060040020D5000000F5000000F7000000AB
:1000100000000000000000000000000000000000E0
:1000200000000000000000000000000007010000C8
:100030000000000000000000090100006509000048
:100040000D0100000D0100000D0100000D01000078
:100050000D0100000D0100000D0100000D01000068
:100060000D0100000D0100000D0100000D01000058
:100070000D0100000D0100000D0100000D01000048
:100080000D0100000D0100000D0100000D01000038
:100090000D0100000D0100000D0100000D01000028
:1000A0000D0100000D0100000D0100000D01000018
:1000B0000D0100000D0100000D0100000D01000008
:1000C0000348854600F056F800480047610D0000DF
:1000D000600400201248134901601349016013496C
:1000E0000160134A134911600021016012488047E2
:1000F00012480047FEE77046EFF30881EFF30982EC
:100100000F4B98470047FEE7FEE7FEE7FEE70000DB
:10011000ABBE0C4B7446984720477046F047000032
:100120000001005059000000160000008800000087
:1001300024000050A55A0000D1090000C1000000B1
:100140004D0800008908000030B50B46014600202C
:100150002022012409E00D46D5409D4205D31D46CD
:100160009540491B2546954040191546521E002DC5
:10017000F1DC30BD064C0125064E05E0E36807CCF6
:100180002B430C3C98471034B442F7D3FFF79CFF45
:10019000800E0000A00E00001FB50C4C1ECC039476
:1001A0006C460EC4810F89006A465158084A891866
:1001B0004968C306DB0E01229A401143820F920068
:1001C0006B469A58024BD21851601FBD300E00008A
:1001D00000020050F3B589B00C46012000045349D9
:1001E0000862099800280ED10846006801210843DA
:1001F0004E490860012000F031FA002006904C487A
:10020000089002250EE04948006804210843474948
:100210000860102000F022FA0120C0040690454832
:10022000089004254448844204D84010844201D9EF
:10023000002712E04148844205D84010844202D988
:100240000127640009E03E48844205D840108442FA
:1002500002D30327A40000E057E00020C04303902E
:1002600000200190029034E029460898FFF76CFFC7
:1002700005903449059888422AD93349059888421F
:1002800026D2022007901EE0059E07994E432B4878
:10029000864215D34000864212D8A64201D9301BAF
:1002A00000E0A01B049003990498884208D20498A7
:1002B00003900195079802900398002800D106E06A
:1002C0000798401C0790214907988842DCD900BF55
:1002D0006D1C212DC8D9B803069908430199891EC0
:1002E000490208430299891E084310490862042004
:1002F00000F0B4F9781C019A504301460898FFF7C2
:1003000023FF029948430BB0F0BD0998002803D1A0
:100310000F480649086202E00E48044908620420BA
:1003200000F09CF900F060F8EDE7000000020050DA
:10033000001BB7000080510100C2EB0B00E1F50586
:1003400080F0FA02006A1800C0E1E4000102000037
:100350002EC200006FD60800024909680143014A15
:100360001160704700020050FEB5002002901AA0F4
:10037000006800901948046A00132040002801D04A
:100380000020FEBD0120C0042040002801D0144DF3
:1003900000E0144D012040042040002801D02846F0
:1003A000EFE7032080032040800B69460A5C01923E
:1003B000E005C00D861C1F2040022040400A871C1B
:1003C000019A7A431146AA0872431046FFF7BCFE11
:1003D000800002900298D4E701020204000200505B
:1003E00000805101001BB700FEB5002002901AA04A
:1003F000006800901948046A00132040002801D0CA
:100400000020FEBD0120C0042040002801D0144D72
:1004100000E0144D012040042040002801D028466F
:10042000EFE7032080032040800B69460A5C0192BD
:10043000E005C00D861C1F2040022040400A871C9A
:10044000019A7A431146AA0872431046FFF77CFED0
:10045000800002900298D4E70102020400020050DA
:1004600000805101001BB700FEB5002002901AA0C9
:10047000006800901948046A00132040002801D049
:100480000020FEBD0120C0042040002801D0144DF2
:1004900000E0144D012040042040002801D02846EF
:1004A000EFE7032080032040800B69460A5C01923D
:1004B000E005C00D861C1F2040022040400A871C1A
:1004C000019A7A431146AA0872431046FFF73CFE90
:1004D000800002900298D4E701020204000200505A
:1004E00000805101001BB70070B504462248C06867
:1004F0001021084005462148844200D9044620487E
:10050000844200D204461C480068042108431A496A
:100510000860102000F0A2F817480069072108437E
:10052000154908610846806900090001886108468C
:10053000C068C007C00F002805D061000020FFF789
:1005400049FE04460AE061000120C004FFF742FEB4
:1005500004460948C06810210840054601210220D0
:1005600000F010F8002D05D10348006804218843ED
:1005700001490860600870BD0002005080F0FA0276
:1005800040787D0170B504460D461648C0681021BC
:1005900008400646134800680421084311490860D2
:1005A000102000F05BF80F480069C008C000C01DB3
:1005B0000C490861084680690009000128438861E8
:1005C00008460069C008C0002043086100F0CEF969
:1005D000002E05D1034800680421884301490860C2
:1005E00070BD000000020050F7B584B00022002367
:1005F000184C2546E0CDE4680297019600950394D7
:100600008403240E002C0ED00403A40FA400124D6A
:1006100063198403250E8405E40EA5401C68AC43D1
:10062000069D2C431C600401640F002C10D0840034
:10063000A40FA4006D462C59074D083D6219040112
:10064000650FC401E40EA5401468AC430C4314606C
:1006500007B0F0BD200E0000180200500146084807
:100660000068420805E01046521E002801DC002008
:1006700070470448C06808408842F4D10120F7E779
:10068000000000200002005070B5034600200FE07B
:10069000012484400C40002C09D01C68460003252E
:1006A000B540AC4346001546B5402C431C60401C89
:1006B0001028EDD370BD000010B5002819DA1A4AD1
:1006C00003071B0F083B9B089B00D2588307DC0ED7
:1006D000FF23A3409A438B071B0E8407E40EA3401D
:1006E0001A43114B0407240F083CA408A4001A5114
:1006F00018E00E4A03231B02D21883089B00D2582D
:100700008307DC0EFF23A3409A438B071B0E84074D
:10071000E40EA3401A43054B032424021B1984084A
:10072000A4001A5110BD00001CED00E000E100E043
:1007300003490968002901D1014908607047000098
:1007400034000020002027E00C214143144A515876
:1007500000291FD00C21414389180989491C8AB2FC
:100760000C2141430E4BC9180A810C2141431A4602
:1007700089180A890C214143C918C9888A4209DBB2
:1007800000220C214143C9180A8101220C21414356
:10079000C9180A71411CC8B20328D5DB7047000094
:1007A0003C00002070B50C2444430C4D2C59002C07
:1007B00012D10C244443295100250C244443074EF4
:1007C000A41925710C24444335466419E2800025A0
:1007D0000C244443A419258170BD00003C00002076
:1007E00016E0002412E00C2060430A49401800790A
:1007F000012809D100210C206043064A80180171AC
:100800000C21614350588047601CC4B2032CEADBC2
:10081000E7E700003C000020002012E000220C214D
:100820004143094B5A500C214143C9180A710C210C
:100830004143C918CA800C214143C9180A81411C8F
:10084000C8B20328EADB70473C000020F8B5054633
:100850000E46174604202840002801D03C4600E000
:10086000344605A000F020F900BF012120680843AC
:100870000028FAD12846F8BD2020486172644661FC
:10088000756C74210A0A00000346002070470000BE
:1008900010B50420FFF760FD1020FFF7DFFE0021F8
:1008A0000720FFF76FFE0120FFF756FD0120FFF73D
:1008B000D5FE0D48FFF718FE0C48FFF76DFC00222F
:1008C00011460A48FFF790FE05200007406B3021D3
:1008D00088430521090748630846406B30210843D7
:1008E00005210907486310BD80F0FA02113D8057C9
:1008F000010E0522120789188968012282401143DE
:10090000020E05231B07D2189160010E1A468918A2
:100910008A68012181408A43010EC9188A607047A4
:1009200000B50346184600F001F800BDC1B20A291F
:100930000AD100BF0A4989690122D2051140002964
:10094000F8D10D21064A116000BF054989690122CD
:10095000D20511400029F8D1014908607047000014
:100960000000154010B5FFF7EDFE10BD70B5FFF7A4
:10097000FBFC114908601148006945076D0F022D05
:1009800003D0A8000E490C5801E00B4804680B483E
:1009900080690007000F461C31462046FFF7D4FB54
:1009A000084908600849074800684A108018FFF79E
:1009B000CBFB0649086070BD080000200002005013
:1009C0000C0000200000002040420F000400002026
:1009D0007047000010B50448FFF78AFFE121490283
:1009E000024800F005F810BD110000040000154099
:1009F000F0B587B004460D46274801460EC9C068C9
:100A000003AE0EC6069000200290244840690321E0
:100A100009060840060E214880690F210902084096
:100A2000070A002020630320E060A0681C490840FA
:100A3000A060012E04D1FFF717FDB10003AA5050AA
:100A4000002D26D0B10003AA5058791CFFF77CFB7B
:100A50006908401829460190FFF776FB801E029036
:100A60001049029888420FD9B10003AA5058791C46
:100A7000FFF76AFBE900401829460190FFF764FB85
:100A80000009801E606204E0032109070298084300
:100A9000606207B0F0BD0000500E00000002005080
:100AA0000FFFF0FFFFFF00000FB410B503A9044BC8
:100AB000044A029800F018F810BC08BC04B01847AB
:100AC000390C00002C00002002E008C8121F08C1E9
:100AD000002AFAD170477047002001E001C1121FBF
:100AE000002AFBD170470000FFB58DB004460025F9
:100AF00006E025280AD0109A0F999047641C6D1CB7
:100B000020780028F5D1284611B0F0BD002701213A
:100B1000484A009700E00743641C23780846203BBE
:100B200098401042F7D120782E2817D1042007438F
:100B30006078641C2A280CD10E98641C02C80091AD
:100B40000E900BE000990A22514330394018641C82
:100B500000902078014630390929F3D920780028FF
:100B6000D1D0642808D0692806D075281ED0109AE4
:100B70000F9990476D1C5BE00A200E99019001C906
:100B80000E91002802DA40422D2102E0390504D5F9
:100B90002B216A461172012103E0F90704D02021BC
:100BA000F7E70BAE0B910DE00021FAE70A200E9952
:100BB000019001C90E91F7E70199FFF7C5FA3031AD
:100BC000761E31700028F7D103A8801B20300190D9
:100BD000780701D5009801E0012000900199884232
:100BE00001DD401A00E000200027009006E002A886
:100BF000109AC05D0F9990476D1C7F1C0B9887421F
:100C0000F5DB04E0109A30200F9990476D1C009995
:100C1000481E00900029F5DC05E03078109A761C1B
:100C20000F9990476D1C0199481E01900029F4DC32
:100C3000641C65E70928010030B504460D462046CE
:100C4000FFF76EFE204630BD10B500F01BF80248DD
:100C5000FFF76EFD10BD00005D0C000070B504468E
:100C60000D46002C04D100F069F8287072B607E038
:100C7000012C05D12878002801D062B600E072B6B8
:100C800070BD000010B564210C480068FFF75CFAE5
:100C900004460B48844200D90EE02002000A401EA0
:100CA000084948610321081FFFF706FD0020054998
:100CB00088610720086100BF10BD0000000000200F
:100CC000FFFFFF0000E000E008480078002805D1A1
:100CD0000749086201200549087005E00120044920
:100CE00008620020014908707047000039000020A8
:100CF0000042005010B5012211020348FFF7C4FC66
:100D000001200249086210BD00400050004200501E
:100D100010B5074801780078401C054A1070642916
:100D200004DDFFF7D1FF00200149087010BD00006D
:100D30003800002010B5FFF7DDFF10BD00BFEFF356
:100D40001080002801D1012070470020FCE710B579
:100D5000FFF7DEFF10BD10B5FFF7ECFF10BD000080
:100D600010B500BF1D480AE059211D4A1160162127
:100D7000116088211160411E081E00D103E018494E
:100D800009680129F0D100BF00BFFFF781FD00BF56
:100D900000201349086000BFFFF756FFFFF73CFD36
:100DA000FFF718FE0F4801680FA0FFF77DFE12A0A5
:100DB000FFF77AFE012240211648FFF765FC00206C
:100DC00015498861FFF7C7FF01231A461349002020
:100DD000FFF7E8FCFFF704FD002010BD0080510183
:100DE00000010050000000200A0A43505520402016
:100DF000256420487A0A0000486172645761726570
:100E000020496E697469616C697A65212121210A22
:100E100000000000C0400050C04200504F0D0000D4
:100E200000000000040000000C000000240000008E
:100E300000000000040000002C0000000000000082
:100E400000000000040000002C0000000000000072
:100E5000001BB700000000000000000000805101EE
:100E6000001BB700000000000000000000805101DE
:100E7000001BB700000000000000000000805101CE
:100E8000A00E0000000000203C000000C80A000086
:100E9000DC0E00003C00002024040000D80A000002
:100EA00080F0FA023200000080F0FA02001BB70066
:100EB0000000000080F0FA0210270000000000008F
:100EC0000000000000000000008051010000000050
:0C0ED00000000000000000000000000016
:04000005000000D522
:00000001FF
