:020000040000FA
:1000000060060020D5000000F5000000F7000000A9
:1000100000000000000000000000000000000000E0
:1000200000000000000000000000000007010000C8
:100030000000000000000000090100002917000076
:100040000D0100000D0100000D0100000D01000078
:100050000D0100000D0100000D0100000D01000068
:100060000D010000711800000D0100000D010000DD
:100070000D0100000D0100000D0100000D01000048
:10008000951800000D0100000D0100000D01000099
:100090000D0100000D0100000D0100000D01000028
:1000A0000D0100000D0100000D0100000D01000018
:1000B0000D0100000D0100000D0100000D01000008
:1000C0000348854600F096FB00480047CD29000014
:1000D000600600201248134901601349016013496A
:1000E0000160134A134911600021016012488047E2
:1000F00012480047FEE77046EFF30881EFF30982EC
:100100000F4B98470047FEE7FEE7FEE7FEE70000DB
:10011000ABBE0C4B7446984720477046F047000032
:100120000001005059000000160000008800000087
:1001300024000050A55A000095170000C1000000DF
:10014000291500006515000030B50B46014600205A
:100150002022012409E00D46D5409D4205D31D46CD
:100160009540491B2546954040191546521E002DC5
:10017000F1DC30BD70B500242546002801DA0124E9
:100180004042002901DA01254942FFF7DDFFAC4278
:1001900000D04042002C00D0494270BD03460B43C2
:1001A0009B0703D009E008C9121F08C0042AFAD22D
:1001B00003E00B780370401C491C521EF9D27047B3
:1001C000F0B507460846584087B0C00F0490480075
:1001D0000E46590040084908BC1A884105D23846E5
:1001E00031461E4617460B4602465800400810434B
:1001F0004CD0300D039040055900400D490D05903D
:10020000401A0290402872DA18030121000B0905F8
:100210000843019004980092002805D001995242A9
:100220000020884100920190029840210A1A019909
:10023000009800F0CBF905460C466B4607CB00F062
:10024000D5F9C0197141039A0E0D0023D7175640F6
:100250001A467A40164344D0049A002A2DD0029AB6
:10026000012A039A15DC1205C01A914101263605B0
:10027000001C7141D20F059ED20700930192029695
:100280002A46234600F013FA07B0F0BD384631463F
:10029000FAE71605224A0F46B218C01AB7410121E3
:1002A0000905001C4F4100187F411146181879417B
:1002B000E20F10436D19644113E0E2076D08154326
:1002C0006408C2071443039A01261205C01A91411B
:1002D0003605001C7141CE07400830434908C0185C
:1002E00051412A46234600F0D5F9CDE7FFE70498AF
:1002F00001224000C117121A00238B410498314695
:10030000C417381AA141EEE730B40124E407634072
:1003100030BC55E730B40124E407614030BC4FE7FE
:100320000000E0FFF0B51FB488B00B9909980024D5
:1003300048400999C00F490049080991C0070B9925
:100340000090490049080B9109990898A64608436E
:100350001CD00B990A98084318D009980124400032
:10036000420D4800410D099824050003000B20436D
:1003700009900B980003000B20430B9050181C4968
:100380004018002201901446104605E00020014666
:100390000DB0F0BD032801DA034600E003239C46BC
:1003A000C11A0AAE0AE05F0008ADED5B4F00F75BD3
:1003B0007D430027AA187C41491C5B1E6145F2DD84
:1003C000410004AB5A522104120C0A43240C401C75
:1003D0000828DFDB01980290009970460191009097
:1003E000059B049A0799069800F061F9D0E7000090
:1003F0000DFCFFFFF0B50C465C4085B0E40FE40750
:1004000003944C00002664085900944649080246AB
:100410000296224321D062460A431ED06200570D45
:100420004A000E032303550D012402462C492405DE
:10043000781B1B0B360B4018234326436146009064
:100440001C46501AB44103D30098401C009002E0AF
:10045000921800985B41002803DA0020014605B09D
:10046000F0BD0020012109050746864611E06446DB
:100470001D46141BB54106D36546521BB341744655
:1004800007430C43A646CD07400849082843921865
:100490005B4105460D43EAD11046184313D0604630
:1004A000194650407140084306D06046101AB341C7
:1004B00006D20122002306E000220123DB0702E02E
:1004C0000122D2435310009874460105381C614143
:1004D000029C039D0019694100F0DCF8BFE70000B1
:1004E000FD03000010B500229623114600F099F894
:1004F00010BD00000EB5C217C10F5040CA0740180A
:100500000021054B0293019200910A460B4600F030
:10051000CEF803B000BD000033040000C20FD207C4
:10052000400040080BD0C10D0723DB01C918400271
:100530000905400A1143C2084007114370470020D3
:100540000146704710B5002904DB0124E40740424E
:100550008C412146002B04DB1C460123DB07524261
:10056000A3418B4200D1824210BD000010B500298A
:1005700004DB0124E40740428C412146002B04DBCC
:100580001C460123DB075242A341994200D190420D
:1005900010BD0000CB0FDB07490010B5490802462B
:1005A0000A4307D00A0D07240903E401090B121BB3
:1005B000002A01DC002010BDC900440F0C43C1001B
:1005C000E018D205801800F024F810BD10B5202ADC
:1005D00004DB0146203A9140002010BD91402023C9
:1005E0009C1A0346E3401943904010BD10B5202AE1
:1005F00006DBCB170846203A1041C1170B4306E033
:100600000B461341D0402024A21A914008431946BA
:1006100010BD002904DA401C490001D14008400007
:10062000704770B40024050C05D11024000402D1D9
:10063000002921D01124050E01D100020834050F34
:1006400001D10001241D850F01D18000A41C0028C8
:1006500001DB4000641C002908D020252E1B0D461C
:10066000F540A14000D001212943084301061B1B8E
:10067000000ADB1D02D5002070BC7047DB0518188E
:1006800080180029F8DA401C4900F5D170BC4008F8
:100690004000704710B5002B08DA0024401C61416F
:1006A00092185B411A4301D14008400010BDF0B5DB
:1006B0001FB482B005460C0003D0084601F05AFA78
:1006C00002E001F057FA2030024600902146284609
:1006D000FFF77CFF049B059A04460F46184311431D
:1006E000084314D0184610431BD0009840210A1A22
:1006F0001846059900F090F805460E46009A0599AF
:100700000498FFF763FF084305D0012004E020466A
:10071000394607B0F0BD0020C11705430E432C43F6
:10072000374300990E986305401A7905E40A0022C0
:100730000C43FD0A0A3002D500200146E9E7010515
:10074000101969410C9C0D9D00196941FFF7A2FF2A
:10075000DFE7FEB500231A461B1A8A4103DB00209F
:10076000014603B0F0BD4A000D0301212D0B090520
:10077000520D0D43D10702D100186D41521E511088
:10078000FF31FF310131002704463E4638460097CD
:100790000191024601210020090500F03DF8C3192E
:1007A0007141F818324684468E464A4161462846D1
:1007B000611A904104D36046241A954176461F463B
:1007C000241900986D41401C00903428E1DDF9198E
:1007D00030467041091BA84103D20022D243134680
:1007E00001E00022134601980105381C7141FFF712
:1007F00051FFB6E7064C0125064E05E0E36807CC3D
:100800002B430C3C98471034B442F7D3FFF75CFC01
:10081000D4300000F430000010B5202A04DB084674
:10082000203AD040002110BD0B46D340D0402024B8
:10083000A21A91400843194610BD000030B5046A61
:10084000054D2C400C4314430462446A240A2402DC
:100850001C43446230BD0000F3FBFFFFF3B585B0DD
:10086000069D00270020049001200003039000262D
:10087000002002900190059C00BF00BF0FE021887E
:100880000498814201DD20880490218803988142E8
:1008900001DA2088039020888619A41C7F1CAF42AF
:1008A000EDDBA91E049AB31A039A981AFFF762FCAB
:1008B0000646059C002713E02188304632308142ED
:1008C00008DA21886438814204DD0298401C80B235
:1008D000029003E00198401C80B20190A41C7F1C90
:1008E000E90F49194910B942E6DC0298C10F09180D
:1008F0004A1001998A4201DA0026F643304607B0D1
:10090000F0BD0000FFB585B004460D4601265148F4
:1009100002905148844205D15048406BB1040840D0
:10092000049005E04D48406B0121C9040840049043
:100930000498002803D100F0CDF9039004E000F002
:10094000F7FE474800680390012612E007990398D4
:10095000FFF7FAFB31460190FFF7F6FB074601214E
:1009600009048F4200D902E0B8B2029004E0701C82
:1009700086B23C488642E9DB00BF029870430146DC
:100980000398FFF7E1FB0746701E80B206466061E0
:10099000012060600298401E80B202902063089897
:1009A00000282ED0029A521C08995143084664210F
:1009B000FFF7CAFB401EAA00214650318850B020E4
:1009C00001596A00284890408143B02001510059E4
:1009D0006900103101228A401043B0210851B4202F
:1009E00000596A00204991408843B4210851B4203D
:1009F00000596900103102228A401043B421085185
:100A000025E00021AA00204650308150B020005936
:100A10006A00154991408843B0210851B02000591F
:100A2000690001228A401043B0210851B4200059C6
:100A30006A000D4991408843B4210851B4200159FE
:100A400068001030022282401143B4200151384620
:100A500009B0F0BDFFFF000000400440000200505C
:100A600000000020FF0F000003000300D8221258EE
:100A70000A43D8231A5070470122026270470022AD
:100A8000026370471FB50C4C1ECC03946C460EC419
:100A9000810F89006A465158084A89184968C30677
:100AA000DB0E01229A401143820F92006B469A5846
:100AB000024BD21851601FBD642E0000000200508E
:100AC000F3B589B00C460120000453490862099827
:100AD00000280ED108460068012108434E490860ED
:100AE000012000F071FA002006904C480890022581
:100AF0000EE0494800680421084347490860102077
:100B000000F062FA0120C0040690454808900425D0
:100B10004448844204D84010844201D9002712E09E
:100B20004148844205D84010844202D9012764001C
:100B300009E03E48844205D84010844202D303278E
:100B4000A40000E057E00020C04303900020019083
:100B5000029034E029460898FFF7F6FA05903449E8
:100B6000059888422AD933490598884226D202201E
:100B700007901EE0059E07994E432B48864215D3E9
:100B80004000864212D8A64201D9301B00E0A01BCB
:100B9000049003990498884208D204980390019520
:100BA000079802900398002800D106E00798401C9F
:100BB0000790214907988842DCD900BF6D1C212D80
:100BC000C8D9B803069908430199891E4902084308
:100BD0000299891E084310490862042000F0F4F9C4
:100BE000781C019A504301460898FFF7ADFA029924
:100BF00048430BB0F0BD0998002803D10F480649BF
:100C0000086202E00E4804490862042000F0DCF9A2
:100C100000F0A0F8EDE7000000020050001BB70054
:100C20000080510100C2EB0B00E1F50580F0FA02F3
:100C3000006A1800C0E1E400010200002EC20000BA
:100C40006FD60800024909680143014A11607047E4
:100C500000020050FEB5002002901AA0006800902B
:100C60001948046A00132040002801D00020FEBD6E
:100C70000120C0042040002801D0144D00E0144D94
:100C8000012040042040002801D02846EFE703203F
:100C900080032040800B69460A5C0192E005C00D8C
:100CA000861C1F2040022040400A871C019A7A437C
:100CB0001146AA0872431046FFF746FA80000290D8
:100CC0000298D4E7010202040002005000805101A2
:100CD000001BB700FEB5002002901AA0006800902B
:100CE0001948046A00132040002801D00020FEBDEE
:100CF0000120C0042040002801D0144D00E0144D14
:100D0000012040042040002801D02846EFE70320BE
:100D100080032040800B69460A5C0192E005C00D0B
:100D2000861C1F2040022040400A871C019A7A43FB
:100D30001146AA0872431046FFF706FA8000029097
:100D40000298D4E701020204000200500080510121
:100D5000001BB700FEB5002002901AA000680090AA
:100D60001948046A00132040002801D00020FEBD6D
:100D70000120C0042040002801D0144D00E0144D93
:100D8000012040042040002801D02846EFE703203E
:100D900080032040800B69460A5C0192E005C00D8B
:100DA000861C1F2040022040400A871C019A7A437B
:100DB0001146AA0872431046FFF7C6F98000029058
:100DC0000298D4E7010202040002005000805101A1
:100DD000001BB700FEB5002002901AA0006800902A
:100DE0001948046A00132040002801D00020FEBDED
:100DF0000120C0042040002801D0144D00E0144D13
:100E0000012040042040002801D02846EFE70320BD
:100E100080032040800B69460A5C0192E005C00D0A
:100E2000861C1F2040022040400A871C019A7A43FA
:100E30001146AA0872431046FFF786F98000029017
:100E40000298D4E701020204000200500080510120
:100E5000001BB70070B504462248C0681021084046
:100E600005462148844200D904462048844200D2E5
:100E700004461C480068042108431A4908601020F1
:100E800000F0A2F8174800690721084315490861D6
:100E9000084680690009000188610846C068C007EB
:100EA000C00F002805D061000020FFF709FE0446AE
:100EB0000AE061000120C004FFF702FE0446094871
:100EC000C0681021084005460121022000F010F8FA
:100ED000002D05D1034800680421884301490860BA
:100EE000600870BD0002005080F0FA0240787D0179
:100EF00070B504460D461648C068102108400646E5
:100F0000134800680421084311490860102000F0CC
:100F10005BF80F480069C008C000C01D0C4908619B
:100F20000846806900090001284388610846006975
:100F3000C008C0002043086100F0FAFB002E05D174
:100F400003480068042188430149086070BD00001F
:100F500000020050F7B584B000220023184C25464B
:100F6000E0CDE46802970196009503948403240E73
:100F7000002C0ED00403A40FA400124D63198403A7
:100F8000250E8405E40EA5401C68AC43069D2C4349
:100F90001C600401640F002C10D08400A40FA40076
:100FA0006D462C59074D083D62190401650FC401B7
:100FB000E40EA5401468AC430C43146007B0F0BDC8
:100FC000542E0000180200500146084800684208EC
:100FD00005E01046521E002801DC0020704704483E
:100FE000C06808408842F4D10120F7E700000020E3
:100FF0000002005010B5044800F05CFBE1214902FA
:10100000024800F061FC10BD110000040000154012
:1010100000BFEFF31081084672B60849097800292D
:1010200006D1002801D1012100E00021044A1170FD
:1010300002490978491C014A117070477700002065
:101040007600002007480078401E064908700846D0
:101050000078002804D104480078002800D062B647
:1010600070470000770000207600002070B503462E
:1010700000200FE0012484400C40002C09D01C68A3
:1010800046000325B540AC4346001546B5402C4309
:101090001C60401C1028EDD370BD0000F1B590B06D
:1010A0007D21C900234A0020105EFFF763F8044643
:1010B000FFF720FA0D910C901F490020085EFFF702
:1010C00019FA079106901098FFF70CFA0190FFF7B4
:1010D00025FA0446194A1A4BFFF724F9064600225E
:1010E000184BFFF787F90022174B03910290FFF787
:1010F00019F905910490079B069AFFF713F900224E
:10110000124B09910890FFF775F90B910A900D9B0E
:101110000C9AFFF755F80F910E90FFF73BFA0C4928
:1011200008600846006800F007FE0A49086011B030
:10113000F0BD0000CE000020CC000020F54A59860A
:101140003866444000FEAF40000014400088C340B1
:10115000D0000020D400002010B5244800780028DA
:101160000AD12348006A0121C902084320490862C4
:1011700001201E49087037E01C480078012833D14F
:1011800000240FE0601D800019494018006881B2FA
:1011900014206043174A8018174A1278520081526F
:1011A000601CC4B2022CEDDB0A2113480078401CFD
:1011B000FEF7E0FFC8B21049087000200B49087024
:1011C0000D48007800280FD10A210A48FFF746FB96
:1011D0000A4908800A2107481430FFF73FFB0749F6
:1011E00048800888FFF75AFF10BD00006400002007
:1011F00000000E401C01002065000020600000205F
:1012000010B50648006A01210843044908626023BA
:10121000082200210148FFF711FB10BD00000E401D
:1012200001484068704700006C00002010B504467B
:101230003223224602210348FFF764FB0248446040
:1012400010BD0000004014406C00002001484078B0
:10125000704700006C0000200148007870470000D3
:101260006C00002010B5012211020848FFF7FEFEB5
:101270000020074908623223064A02210648FFF788
:1012800041FB04210448FFF7F1FB10BD4041005031
:10129000404300503075000000401440002805D144
:1012A0000021054A1162054A517004E00121024AF9
:1012B0001162024A51707047404300506C00002098
:1012C00010B504210348FFF7D7FB0120024908703D
:1012D00010BD0000004014406C00002010B5042137
:1012E0000348FFF7CCFB00200249087010BD000046
:1012F000004014406C00002010B500242CE00C20AD
:101300006043174940188068002823D00C206043B0
:10131000085C02281ED10C20604340184088401C05
:1013200081B20C2060430E4A801841800C2060433B
:101330001146401841880C20604380188088814203
:1013400008DB01210C20604311540C2161438918F2
:1013500088688047601CC4B2022CD0DB10BD00003E
:10136000040100200248034908800120488070479A
:10137000333300004402002008B50020E1235B0263
:1013800004223121009000F0EBFDFFF7EBFF00F0AD
:101390004DFD08BD10B5002819DA1A4A03071B0FC6
:1013A000083B9B089B00D2588307DC0EFF23A34019
:1013B0009A438B071B0E8407E40EA3401A43114B7C
:1013C0000407240F083CA408A4001A5118E00E4A90
:1013D00003231B02D21883089B00D2588307DC0E1C
:1013E000FF23A3409A438B071B0E8407E40EA34000
:1013F0001A43054B032424021B198408A4001A5124
:1014000010BD00001CED00E000E100E003490968A8
:10141000002901D101490860704700003400002014
:10142000002027E00C214143144A515800291FD0C5
:101430000C21414389180989491C8AB20C21414376
:101440000E4BC9180A810C2141431A4689180A8992
:101450000C214143C918C9888A4209DB00220C21AA
:101460004143C9180A8101220C214143C9180A715C
:10147000411CC8B20328D5DB70470000E000002003
:1014800070B50C2444430C4D2C59002C12D10C2463
:101490004443295100250C244443074EA4192571C7
:1014A0000C24444335466419E28000250C2444434F
:1014B000A419258170BD0000E000002016E0002482
:1014C00012E00C2060430A4940180079012809D134
:1014D00000210C206043064A801801710C216143F1
:1014E00050588047601CC4B2032CEADBE7E70000D9
:1014F000E0000020002012E000220C214143094BB3
:101500005A500C214143C9180A710C214143C91892
:10151000CA800C214143C9180A81411CC8B2032862
:10152000EADB7047E0000020F8B505460E46174696
:1015300004202840002801D03C4600E0344605A0A5
:1015400000F008FB00BF0121206808430028FAD101
:101550002846F8BD2020486172644661756C74218C
:101560000A0A0000034600207047000010B504205E
:10157000FFF768FB1020FFF727FD00210720FFF78A
:10158000B7FC0120FFF75EFB0120FFF71DFD40487F
:10159000FFF760FC3F48FFF775FA3F48FFF772FA24
:1015A0003E48FFF76FFA3E48FFF76CFA3D48FFF7F9
:1015B00069FA002211463748FFF7CCFC0022114699
:1015C0003548FFF7C7FC0022012149033348FFF7E4
:1015D000C1FC3122120408213148FFF7BBFC002274
:1015E00011463048FFF7B6FC2F4800F063F805209D
:1015F0000007406B302188430521090748630846EE
:10160000406B302108430521090748630846806B79
:10161000C02188430521090788630846806BC021E3
:1016200008430521090788632048406803214905CC
:1016300008431E49486005200007006B602188436D
:101640000521090708630846006B6021084305214E
:10165000090708630846406BFF21013188430521D3
:10166000090748630846406BFF2101310843052103
:10167000090748630E48006A0121090588430C499F
:1016800008620846006A890308430949086210BDD8
:1016900080F0FA02113D8057093D80970300C05E3B
:1016A0001CFE2356130030B3130000080040005006
:1016B00040000050010E0522120789188968012296
:1016C00082401143020E05231B07D2189160010EC0
:1016D0001A4689188A68012181408A43010EC91877
:1016E0008A60704700B50346184600F001F800BD57
:1016F000C1B20A290AD100BF0A4989690122D2056B
:1017000011400029F8D10D21064A116000BF05499A
:1017100089690122D20511400029F8D101490860E8
:10172000704700000000154010B5FFF779FE10BDAE
:1017300070B5FFF78FFA1149086011480069450735
:101740006D0F022D03D0A8000E490C5801E00B4884
:1017500004680B4880690007000F461C314620468C
:10176000FEF7F2FC084908600849074800684A107B
:101770008018FEF7E9FC0649086070BD08000020EB
:10178000000200500C0000200000002040420F002A
:10179000040000207047000030B589B005462022C3
:1017A000194901A8FEF7FAFC1848854206D11848E5
:1017B0004069072109020840040A1AE01348203052
:1017C000854206D112484069072109030840040BED
:1017D0000FE01048854206D10D48406907210904F1
:1017E0000840040C05E00A48406907210905084043
:1017F000040D022C03D10848006809B030BDA000D8
:1018000001A90858F9E70000842E000000000140FB
:10181000000200500000114000000020F7B582B027
:10182000064617463046FFF7B7FF01900024002513
:1018300001984008B84201D202240CE039460198D0
:10184000FEF782FC0446250E002D04D0691C2046BC
:10185000FEF77AFC04460398284330607460681CE5
:10186000604301460198FEF76FFC05B0F0BD000033
:1018700010B500BF06488068C007C00F002806D01A
:1018800000BF01200249886000BFFFF735FD10BD91
:101890002000014010B50948C46980152040002887
:1018A00002D00748006880470120400220400028FD
:1018B00002D004480068804710BD00000080054049
:1018C0009C000020A0000020F0B587B004460D4623
:1018D000274801460EC9C06803AE0EC60690002018
:1018E000029024484069032109060840060E214859
:1018F00080690F2109020840070A002020630320A5
:10190000E060A0681C490840A060012E04D1FFF7E8
:1019100061FAB10003AA5050002D26D0B10003AAED
:101920005058791CFEF710FC6908401829460190B0
:10193000FEF70AFC801E02901049029888420FD9D7
:10194000B10003AA5058791CFEF7FEFBE9004018CD
:1019500029460190FEF7F8FB0009801E606204E052
:101960000321090702980843606207B0F0BD000038
:10197000A42E0000000200500FFFF0FFFFFF000048
:1019800070B50346002010E0002405E0641C01252A
:10199000AD07AC4200D370BD9D690126B60335404A
:1019A000002DF3D11D680D54401C9042ECD300BFB4
:1019B000F1E770B50346002011E0002405E0641C47
:1019C0000125AD07AC4200D370BD9D690126F60527
:1019D0003540ED0D002DF2D10D5C1D60401C904294
:1019E000EBD100BFF0E7000070B50446022C08D12F
:1019F0002F48007800022F49097808432E49888033
:101A000054E0032C04D12D4800882B49C8804DE0B8
:101A1000042C04D1294840882749088146E0052C38
:101A200004D127480088244948813FE0062C04D18E
:101A3000244800882049888138E0072C01D0082CF0
:101A400009D12148006800F097FC0546280C1A4986
:101A5000C8810D822AE0092C01D00A2C09D11B482B
:101A6000006800F089FC0546280C134948828D82E5
:101A70001CE00B2C08D1FFF7EFFB0602FFF7E6FB9B
:101A800006430D48C68211E00C2C01D1012000E074
:101A900000200D210843002808D0FFF7C1FB000CEF
:101AA00005490883FFF7BCFB0349488370BD00006C
:101AB0003F00002040000020440200206000002081
:101AC000CC000020CE000020D0000020D400002058
:101AD00070B505460C460026022D02D119490C703E
:101AE0002EE0052D03D120B21749088028E0062DED
:101AF00003D120B21549088022E00B2D0DD1FF2023
:101B000000022040002802D0FFF7DAFB01E0FFF7D7
:101B1000E5FBE0B2FFF7C2FB12E00C2D03D120047D
:101B20000B4908600CE00D2D09D1094800682043DD
:101B30000749086008460068FFF778FB00E00226C6
:101B4000304670BD40000020CC000020CE000020B8
:101B5000D80000200FB410B503A9044B044A029822
:101B600000F042F810BC08BC04B018477B2300000A
:101B70002C0000202021020C01D010211046020A66
:101B800001D010460839020901D01046091F820809
:101B900001D01046891E420801D0881E7047081ADD
:101BA000704730B47446641E2578641CAB4204D37D
:101BB000635D5B00E31830BC18471D46F8E702E0A0
:101BC00008C8121F08C1002AFAD1704770470020C8
:101BD00001E001C1121F002AFBD1704701490860D2
:101BE00070470000DC000020FFB58DB004460025E2
:101BF00006E025280AD0109A0F999047641C6D1CA6
:101C000020780028F5D1284611B0F0BD0027012129
:101C1000484A009700E00743641C23780846203BAD
:101C200098401042F7D120782E2817D1042007437E
:101C30006078641C2A280CD10E98641C02C800919C
:101C40000E900BE000990A22514330394018641C71
:101C500000902078014630390929F3D920780028EE
:101C6000D1D0642808D0692806D075281ED0109AD3
:101C70000F9990476D1C5BE00A200E99019001C9F5
:101C80000E91002802DA40422D2102E0390504D5E8
:101C90002B216A461172012103E0F90704D02021AB
:101CA000F7E70BAE0B910DE00021FAE70A200E9941
:101CB000019001C90E91F7E70199FEF745FA30311D
:101CC000761E31700028F7D103A8801B20300190C8
:101CD000780701D5009801E0012000900199884221
:101CE00001DD401A00E000200027009006E002A875
:101CF000109AC05D0F9990476D1C7F1C0B9887420E
:101D0000F5DB04E0109A30200F9990476D1C009984
:101D1000481E00900029F5DC05E03078109A761C0A
:101D20000F9990476D1C0199481E01900029F4DC21
:101D3000641C65E709280100F0B58FB007463846F6
:101D4000FEF7ECFB0546224A224BFEF7FBFB08D3CD
:101D50003846FEF7E3FB05461F4A204BFEF706FC1C
:101D600005D21FA0FFF7F6FE26480FB0F0BD38469B
:101D7000FEF7D4FB05460022234BFEF73BFB002277
:101D8000224B01910090FEF7C5FA214A214B0391A5
:101D90000290FEF7C7FA204A204B05910490FEF707
:101DA000B9FA0791069000F0C7FE1D4A1D4B099134
:101DB0000890FEF705FA164A1B4B0B910A90FEF7A6
:101DC00019FB0D910C90FEF7E5FB04462046CCE78D
:101DD00085EB51B81E85324048E17A14AE677840F1
:101DE0004572726F723A20526573697374616E63E3
:101DF00065206F7574206F662072616E6765210AB9
:101E00000000000000C079C4000059400000F03F0D
:101E100088CE19EEAF60C3BED828C9DF4C04F03EAF
:101E20001C64ED4A260270BFAF60B3BE10B500243B
:101E300008480078012809D107A0FFF78BFE094860
:101E40000068804700200349087000E0062420460F
:101E500010BD0000860000206D62207374617274F2
:101E6000210D0A008C000020FEB505460C4600201E
:101E700001902088052838D1687800020290A8785F
:101E80000299084302900298401C80B20290E878C0
:101E900006022E79012E25DB7D2E23DC2F46002025
:101EA0002080032038707F1C2088401C2080700612
:101EB000000E38707F1C2088401C20800023324692
:101EC0003846029900F014FA00900098002804D0D7
:101ED000009800F01FFE019009E020887100401872
:101EE000208004E00320019001E00320019001988C
:101EF000FEBDFEB504460E4600200190308806283F
:101F000029DB60780702A0780743781C87B2E07865
:101F100005022079054360790290012D18DB782DA8
:101F200016DC6806010E0298814211D101232A466F
:101F30003946A01D00F0DCF900900098002804D07C
:101F4000009800F0E7FD019007E00520308004E0F4
:101F50000320019001E0032001900198FEBD0000E4
:101F6000F8B505460C4616461F4600200090002C8A
:101F700003D0012C01DBF72C02DD0220009037E0BA
:101F80001C480470002D20D11B481C4908601C48C7
:101F90001C4908601C481D4908601D481D4908600F
:101FA00000201D4908601D481D4908601D481E4944
:101FB00008601E481E4908603A4631460D480078C0
:101FC000069B00F0DFF8009002E00220009000BFC6
:101FD00000BF009800280BD100F02EFE002802D18F
:101FE0000320009004E01348057001201249087096
:101FF0000098F8BD84000020B52200008C0000206D
:10200000D922000090000020292200008800002032
:10201000DD2100009400002098000020052D000024
:102020009C000020D52D0000A0000020912D000074
:10203000A4000020850000208600002038B500257F
:1020400045480078002801D0062038BD684600F0D9
:10205000E1FD01287DD168460078002806D00128DE
:1020600005D002281AD0032872D170E070E03B4AF4
:102070003B493C483C4B1B6898470546002D0CD11A
:102080003848007839490978884203D035480078C3
:10209000002802D1022000F0D7FD59E03048006846
:1020A000007833490870012032490870002418E094
:1020B000E0003149085C002800D114E0E0002E491E
:1020C000085C2B49097888420AD1E0002A49401867
:1020D000224942682248006890472649087002E079
:1020E000641C022CE4DB00BF1E48007800282CD0C2
:1020F00020480078002819D00020184908801C4882
:1021000000788021084315490A880988491C134B27
:1021100019801349096888541648027818460188BE
:102120000088401C18800E4800684254134800780C
:10213000012800D100BF09480288094801680B48FE
:1021400000780F4B1B689847054601E001E000BF8F
:1021500000BF002079E7000086000020C6000020B4
:10216000C0000020C4000020940000208400002053
:10217000C5000020C8000020B0000020850000201D
:1021800088000020F8B50E4614461F460020009037
:10219000FEF73EFF3B4608222146304600F06CFD2C
:1021A000012802D00320009011E04B20000284425D
:1021B00001D9232504E061000748FDF7C5FF054666
:1021C000A8B200F091FD012801D003200090FEF795
:1021D00039FF0098F8BD0000A07F1700F8B504464D
:1021E0000D4616460027FEF713FF0D480088042809
:1021F00011DB0B4801880B4800F0C2FC00280AD113
:1022000008480078207006480088C01E30800548C5
:10221000401C286000E00527FEF714FF3846F8BD93
:102220008200002044010020F8B505460E461746FE
:1022300000200090FEF7ECFE19480078012829D113
:10224000701E184908600120174908801548006869
:10225000057008460088C0190880084601881148A2
:10226000006800F08DFC04460F4A1088421C0E4B9B
:102270001A800E4A145421121A461088421C1A80E1
:102280000A4A115401200A4908700121002000F077
:1022900093FC01E005200090FEF7D4FE0098F8BD05
:1022A000790000207C0000208000002044010020F4
:1022B0007800002010B5FEF7ABFE0020054908703D
:1022C0000021012000F078FC00F09EFCFEF7BAFE31
:1022D00010BD00007900002010B5FEF799FE002126
:1022E000084600F069FC00F089FCFEF7ABFE10BD6B
:1022F000FFB583B004460F46164600200290012F1A
:1023000032DBB8190F282FDC7D1E0698002802D07A
:10231000012828D113E00FE0A8B2FFF765FB6800A1
:102320001449085A00122070641C6800085C207070
:10233000641C6D1C701E86B2002EEDDC13E010E0F4
:102340002178641C080201902078641C01990843DC
:102350000190A8B20199FFF7BBFB02906D1C701EA3
:1023600086B2002EECDC01E001200290029807B05A
:10237000F0BD000044020020704730B504460D4611
:102380002046FFF7AFF9204630BD000010B500F041
:102390001BF80248FFF73AF810BD0000A123000027
:1023A00070B504460D46002C04D100F0D1F8287019
:1023B00072B607E0012C05D12878002801D062B65A
:1023C00000E072B670BD000010B564210C480068D2
:1023D000FDF7BAFE04460B48844200D90EE0200205
:1023E000000A401E084948610321081FFEF7D2FF7A
:1023F0000020054988610720086100BF10BD00006A
:1024000000000020FFFFFF0000E000E070B50C249A
:102410004443094D2B5500250C244443064EA41972
:1024200065800C24444335466419A2800C2444433F
:102430006419A16070BD0000040100200848007804
:10244000002805D10749086201200549087005E008
:10245000012004490862002001490870704700000B
:102460003E0000200042005010B501221102034836
:10247000FEF7FCFD01200249086210BD004000503B
:102480000042005010B5074801780078401C054A0A
:102490001070642904DDFFF7D1FF002001490870A6
:1024A00010BD00003D00002010B5FFF7DDFF10BD9E
:1024B00010B500F065FA002413E001210C20604300
:1024C000094A115400210C206043801841800C20DF
:1024D0006043801881800C20604380188160601CFC
:1024E000C4B2022CE9DB10BD0401002010B5024685
:1024F0000C205043084BC018806800280AD00C20DC
:102500005043195400230C205043034C00194380BE
:10251000002010BD0120FCE70401002010B50122BD
:1025200040210348FEF7A2FD00200249886110BD4A
:10253000C0400050C04200500020014988617047EF
:10254000C04200500120014988617047C0420050DC
:1025500000BFEFF31080002801D101207047002058
:10256000FCE7000010B5012000F0EEF8C407E40F0E
:10257000022000F0E9F84000022108400443032053
:1025800000F0E2F88000042108400443084600F00F
:10259000DBF8C000082108400443052000F0D4F80F
:1025A0000001102108400443062000F0CDF840014E
:1025B000202108400443072000F0C6F88001402194
:1025C00008400443082000F0BFF8C0018021084003
:1025D000044326480470002440E00120A040234921
:1025E000097801400120A040214A12781040814220
:1025F00005D000201F49085501201F4908551E48D5
:10260000005D012828D11B48015D005D401C194A6E
:102610001055052920DD0020174908550120A0404C
:1026200012490978084000280BD0611C13A0FFF75D
:1026300091FA0120A040164909780843144908700E
:102640000AE0611C13A0FFF785FA0120A0401049A1
:10265000097881430E480170601CC4B2082CBCDBB1
:10266000024800780249087010BD000049000020AF
:102670004A000020410000204B000020696E707568
:1026800074202564206973206F6E0D0A000000001D
:102690003F000020696E70757420256420697320E6
:1026A0006F66660D0A00000010B51A4800781A49D6
:1026B0000870002427E00120A04017490978014054
:1026C0000120A040154A12781040814219D0012003
:1026D000A040114909780840002809D0611CC8B2FF
:1026E000012100F0D7F8611C0DA0FFF733FA08E0D4
:1026F000611CC8B2002100F0CDF8611C0DA0FFF7ED
:1027000029FA601CC4B2082CD5DB034800780349C1
:10271000087010BD4000002053000020540000202D
:102720004F7574707574202564206973206F6E0D69
:102730000A0000004F757470757420256420697359
:10274000206F66660D0A000000B502461300FFF711
:1027500028FA092B060A0E12171C21262B001648F0
:10276000C069C1B221E01448806BC1B21DE01248BB
:10277000C06BC1B219E01048C038C06BC1B214E0E0
:102780000D48C038806BC1B20FE00B48C038406BB9
:10279000C1B20AE00848C038006BC1B205E0064883
:1027A0008038C06BC1B200E000BF00BF002901D17A
:1027B000012000BD0020FCE7C042005010B50022FF
:1027C00080213148FEF752FC0022012189032E4866
:1027D000FEF74CFC00220121C9032B48FEF746FC02
:1027E00000220121C9032848C038FEF73FFC00221F
:1027F000012189032448C038FEF738FC002201215A
:1028000049032148C038FEF731FC002201210903A9
:102810001D48C038FEF72AFC00220121C9031A48CE
:102820008038FEF723FC0122110317488038FEF799
:102830001DFC0122202114488030FEF717FC0122E4
:10284000102111488030FEF711FC0122D1020E4800
:10285000C038FEF70BFC012291020B48C038FEF78E
:1028600005FC012251020848C038FEF7FFFB00209A
:102870000649086306494861086104494039C8624D
:102880008862486210BD0000C040005040420050C5
:102890004043005000B50300FFF783F90747050FD9
:1028A00019232F3B4700002903D00122204B1A6334
:1028B00002E000221E4B1A6338E0002903D00122F7
:1028C0001C4B5A6102E000221A4B5A612EE000298B
:1028D00003D00122174B1A6102E00022154B1A6146
:1028E00024E0002904D00122114B403BDA6203E0CE
:1028F00000220F4B403BDA6218E0002904D001228D
:102900000B4B403B9A6203E00022094B403B9A622A
:102910000CE0002904D00122054B403B5A6203E041
:102920000022034B403B5A6200E000BF00BF00BDE5
:10293000404200504043005010B5FFF713FEFFF730
:10294000B3FEFFF79FFDFEF707FC10BD10B5FFF7C4
:10295000AFFDFFF7E3FDFFF7A7FDFFF72FFFFEF742
:102960004FFCFEF77FFCFFF7EDFD0223024A03490F
:102970000020FFF74BFD10BD409C000039250000F2
:1029800010B50F4A0121C9060E48FEF747FF00BFE8
:102990000C4800680121490708430A49086000BF44
:1029A000092001218140084A116000BF00BF05488D
:1029B0000068910508430349086000BF10BD00008E
:1029C000400D03002000014000E100E07FB500BFA2
:1029D00033480AE05921334A1160162111608821D9
:1029E0001160411E081E00D103E02E49096801292B
:1029F000F0D100BF00BFFEF7B9FD00BF002029499C
:102A0000086000BFFEF7F6FAFFF7C0FCFEF772FDA4
:102A10002548016825A0FFF79DF828A0FFF79AF840
:102A2000FFF794FF00BF2A4B5A6899681868DB6863
:102A300003930192029100902648006801901A4881
:102A400000680290244840690C2108408508224A09
:102A50009269FF231B041A40120C511CAA006B46FA
:102A60009858FDF771FB06461521FDF76DFB0446EE
:102A700021461AA0FFF76EF801231A461F490020CD
:102A8000FEF7FEFC00F042F801231A461C491846E6
:102A9000FEF7F6FCFEF712FD002004B070BD00004A
:102AA0000080510100010050000000200A0A43503C
:102AB00055204020256420487A200A004F532049A1
:102AC0006E697469616C697A6564212121210A004B
:102AD000442E000008000020000200505461736B77
:102AE00020496E697469616C697A65642C4144435C
:102AF0002040256420487A0A00000000392900009F
:102B0000052B000010B5FFF799FA10BD10B5FEF7C0
:102B100033FC10BD0146002904D0012904D0072947
:102B200006D103E0002005E0022003E0062001E0DA
:102B3000042000BF00BF7047F8B506460C46FDF7FD
:102B400008FE051E0F4600D00120014349000B4836
:102B50004908411AC90F0DD0002E01D0012100E013
:102B600000210C4361004908401AC00F02D1012026
:102B7000FFF734F828463946F8BD00000000F07F22
:102B800070B502460B46FF25FF2408E01178521C61
:102B900061400748405C684004460648455C18466A
:102BA0005E1EB3B20028F1D12802204370BD0000A0
:102BB000D42E0000D42F0000002806D00E4A526800
:102BC00001231A430C4B5A6005E00B4A5268520825
:102BD0005200094B5A60002906D0074A5268022366
:102BE0001A43054B5A6005E0034A526802239A4390
:102BF000014B5A60704700000080054010B501216C
:102C00000846FFF773FC10BD10B502210120FFF745
:102C10006DFC10BD01460020054A1278002A06D03E
:102C2000044A12780A700022014B1A700120704782
:102C30007500002074000020002002490870012067
:102C4000704700007500002001460120024A107004
:102C500002480170012070477500002074000020B8
:102C600010B50446012221460248FEF789FE0120E4
:102C700010BD000000800540F8B507461D4601263E
:102C8000002D04D0012D04D0022D06D103E0002434
:102C900003E0082401E0182400BF00BF002E11D07B
:102CA000FEF7B6F90848FEF705FDE121490207489D
:102CB000FEF70AFE102001218140054A116000BF85
:102CC000FEF7C0F93046F8BD090000080080054055
:102CD00000E100E001B5012269460248FEF769FE05
:102CE000012008BD0080054010B50446012322469E
:102CF000034801681846FFF789FB012010BD00005A
:102D0000A400002038B500246846FFF7A9FF1D483D
:102D10000078002806D001280AD002281AD00328FB
:102D20002CD102E0FFF770FF28E0FFF76DFF25E0F0
:102D300000201549088069460A7813490888411C13
:102D4000114B198011490A5402200E490870FFF7EF
:102D50005BFF13E00C480088FF2809DC69460A780D
:102D600009490888411C084B198008490A5402E0A7
:102D7000032004490870FFF747FF00BF00BF20464B
:102D800038BD0000790000208200002044010020AE
:102D900010B500240E480078002804D0022807D07F
:102DA00003280BD109E00020FFF74EFF044606E0A0
:102DB0000120FFF749FF044601E000E000BF00BF2B
:102DC000FFF71CFF012002490870204610BD0000DB
:102DD0007900002010B5002417480078002802D0A0
:102DE000012825D104E000210120FFF7E5FE1FE0C6
:102DF0001248008800280FD0114909680878FFF7A9
:102E000069FF0F480068401C0D4908600B480088A6
:102E1000401E0A4908800AE00320FFF715FF044618
:102E200000210120FFF7C8FE00200349087000BF01
:102E300000BF204610BD0000780000208000002068
:102E40007C000020001BB700000000000000000014
:102E50000080510100000000040000000C00000090
:102E60002400000000000000040000002C0000000E
:102E70000000000000000000040000002C00000022
:102E800000000000001BB700000000000000000070
:102E900000000000000000001027000000000000FB
:102EA00000805101001BB70000000000000000007E
:102EB00000805101001BB70000000000000000006E
:102EC00000805101001BB70000000000000000005E
:102ED0000080510100C1814001C0804101C080419A
:102EE00000C1814001C0804100C1814000C18140DA
:102EF00001C0804101C0804100C1814000C18140CA
:102F000001C0804100C1814001C0804101C08041B9
:102F100000C1814001C0804100C1814000C18140A9
:102F200001C0804100C1814001C0804101C0804199
:102F300000C1814000C1814001C0804101C0804189
:102F400000C1814001C0804100C1814000C1814079
:102F500001C0804101C0804100C1814000C1814069
:102F600001C0804100C1814001C0804101C0804159
:102F700000C1814000C1814001C0804101C0804149
:102F800000C1814001C0804100C1814000C1814039
:102F900001C0804100C1814001C0804101C0804129
:102FA00000C1814001C0804100C1814000C1814019
:102FB00001C0804101C0804100C1814000C1814009
:102FC00001C0804100C1814001C0804101C08041F9
:102FD00000C1814000C0C101C30302C2C60607C7C9
:102FE00005C5C404CC0C0DCD0FCFCE0E0ACACB0B39
:102FF000C90908C8D81819D91BDBDA1A1EDEDF1F69
:10300000DD1D1CDC14D4D515D71716D6D21213D358
:1030100011D1D010F03031F133F3F23236F6F73708
:10302000F53534F43CFCFD3DFF3F3EFEFA3A3BFBF8
:1030300039F9F83828E8E929EB2B2AEAEE2E2FEFA8
:103040002DEDEC2CE42425E527E7E62622E2E32318
:10305000E12120E0A06061A163A3A26266A6A76748
:10306000A56564A46CACAD6DAF6F6EAEAA6A6BABB8
:1030700069A9A86878B8B979BB7B7ABABE7E7FBFE8
:103080007DBDBC7CB47475B577B7B67672B2B373D8
:10309000B17170B050909151935352929656579788
:1030A000559594549C5C5D9D5F9F9E5E5A9A9B5B78
:1030B00099595898884849894B8B8A4A4E8E8F4F28
:1030C0008D4D4C8C44848545874746868242438398
:1030D00041818040F430000000000020E00000004A
:1030E000BE1B0000D4310000E0000020800500007D
:1030F000CE1B000080F0FA023200000080F0FA02DD
:10310000001BB7000000000080F0FA02102700004A
:1031100000000000000000000000000000805101DD
:1031200000000000000000000000000001334455D2
:10313000100000000000000000000000000000007F
:10314000000000000000000000000000000000007F
:10315000000000000000000000000000000000006F
:10316000000000000000000000000000000000005F
:10317000000000000000000000000200000000004D
:10318000000000000000000000000000000000003F
:10319000000000000000000000000000000000002F
:1031A0000000000003000000691E00001000000085
:1031B000F31E0000000000000000000000000000FE
:1031C000102748F40000000000000000000000008C
:0431D00000000000FB
:04000005000000D522
:00000001FF
