:020000040000FA
:1000000038040020D5000000F5000000F7000000D3
:1000100000000000000000000000000000000000E0
:1000200000000000000000000000000007010000C8
:100030000000000000000000090100000B010000AA
:100040000D0100000D0100000D0100000D01000078
:100050000D0100000D0100000D0100000D01000068
:100060000D0100000D0100000D0100000D01000058
:100070000D0100000D0100000D0100000D01000048
:100080000D0100000D0100000D0100000D01000038
:100090000D0100000D0100000D0100000D01000028
:1000A0000D0100000D0100000D0100000D01000018
:1000B0000D0100000D0100000D0100000D01000008
:1000C0000348854600F056F800480047C90A00007A
:1000D0003804002012481349016013490160134994
:1000E0000160134A134911600021016012488047E2
:1000F00012480047FEE77046EFF30881EFF30982EC
:100100000F4B98470047FEE7FEE7FEE7FEE70000DB
:10011000ABBE0C4B7446984720477046F047000032
:100120000001005059000000160000008800000087
:1001300024000050A55A000051080000C100000032
:10014000D50600001107000030B50B46014600201F
:100150002022012409E00D46D5409D4205D31D46CD
:100160009540491B2546954040191546521E002DC5
:10017000F1DC30BD064C0125064E05E0E36807CCF6
:100180002B430C3C98471034B442F7D3FFF79CFF45
:10019000000C0000200C00001FB50C4C1ECC03947A
:1001A0006C460EC4810F89006A465158084A891866
:1001B0004968C306DB0E01229A401143820F920068
:1001C0006B469A58024BD21851601FBDB00B00000D
:1001D00000020050F3B589B00C46012000045349D9
:1001E0000862099800280ED10846006801210843DA
:1001F0004E490860012000F031FA002006904C487A
:10020000089002250EE04948006804210843474948
:100210000860102000F022FA0120C0040690454832
:10022000089004254448844204D84010844201D9EF
:10023000002712E04148844205D84010844202D988
:100240000127640009E03E48844205D840108442FA
:1002500002D30327A40000E057E00020C04303902E
:1002600000200190029034E029460898FFF76CFFC7
:1002700005903449059888422AD93349059888421F
:1002800026D2022007901EE0059E07994E432B4878
:10029000864215D34000864212D8A64201D9301BAF
:1002A00000E0A01B049003990498884208D20498A7
:1002B00003900195079802900398002800D106E06A
:1002C0000798401C0790214907988842DCD900BF55
:1002D0006D1C212DC8D9B803069908430199891EC0
:1002E000490208430299891E084310490862042004
:1002F00000F0B4F9781C019A504301460898FFF7C2
:1003000023FF029948430BB0F0BD0998002803D1A0
:100310000F480649086202E00E48044908620420BA
:1003200000F09CF900F060F8EDE7000000020050DA
:10033000001BB7000080510100C2EB0B00E1F50586
:1003400080F0FA02006A1800C0E1E4000102000037
:100350002EC200006FD60800024909680143014A15
:100360001160704700020050FEB5002002901AA0F4
:10037000006800901948046A00132040002801D04A
:100380000020FEBD0120C0042040002801D0144DF3
:1003900000E0144D012040042040002801D02846F0
:1003A000EFE7032080032040800B69460A5C01923E
:1003B000E005C00D861C1F2040022040400A871C1B
:1003C000019A7A431146AA0872431046FFF7BCFE11
:1003D000800002900298D4E701020204000200505B
:1003E00000805101001BB700FEB5002002901AA04A
:1003F000006800901948046A00132040002801D0CA
:100400000020FEBD0120C0042040002801D0144D72
:1004100000E0144D012040042040002801D028466F
:10042000EFE7032080032040800B69460A5C0192BD
:10043000E005C00D861C1F2040022040400A871C9A
:10044000019A7A431146AA0872431046FFF77CFED0
:10045000800002900298D4E70102020400020050DA
:1004600000805101001BB700FEB5002002901AA0C9
:10047000006800901948046A00132040002801D049
:100480000020FEBD0120C0042040002801D0144DF2
:1004900000E0144D012040042040002801D02846EF
:1004A000EFE7032080032040800B69460A5C01923D
:1004B000E005C00D861C1F2040022040400A871C1A
:1004C000019A7A431146AA0872431046FFF73CFE90
:1004D000800002900298D4E701020204000200505A
:1004E00000805101001BB70070B504462248C06867
:1004F0001021084005462148844200D9044620487E
:10050000844200D204461C480068042108431A496A
:100510000860102000F0A2F817480069072108437E
:10052000154908610846806900090001886108468C
:10053000C068C007C00F002805D061000020FFF789
:1005400049FE04460AE061000120C004FFF742FEB4
:1005500004460948C06810210840054601210220D0
:1005600000F010F8002D05D10348006804218843ED
:1005700001490860600870BD0002005080F0FA0276
:1005800040787D0170B504460D461648C0681021BC
:1005900008400646134800680421084311490860D2
:1005A000102000F05BF80F480069C008C000C01DB3
:1005B0000C490861084680690009000128438861E8
:1005C00008460069C008C0002043086100F00EF929
:1005D000002E05D1034800680421884301490860C2
:1005E00070BD000000020050F7B584B00022002367
:1005F000184C2546E0CDE4680297019600950394D7
:100600008403240E002C0ED00403A40FA400124D6A
:1006100063198403250E8405E40EA5401C68AC43D1
:10062000069D2C431C600401640F002C10D0840034
:10063000A40FA4006D462C59074D083D6219040112
:10064000650FC401E40EA5401468AC430C4314606C
:1006500007B0F0BDA00B000018020050014608488A
:100660000068420805E01046521E002801DC002008
:1006700070470448C06808408842F4D10120F7E779
:100680000000002000020050002106E0044901E0C3
:100690004A1E91B20029FBDC401E0028F6D17047AB
:1006A000FFFF000070B5034600200FE001248440E6
:1006B0000C40002C09D01C6846000325B540AC4313
:1006C00046001546B5402C431C60401C1028EDD355
:1006D00070BD0000F8B505460E46174604202840B8
:1006E000002801D03C4600E0344605A000F01CF98B
:1006F00000BF0121206808430028FAD12846F8BD30
:100700002020486172644661756C74210A0A0000F9
:10071000034600207047000010B50420FFF71CFEC0
:100720001020FFF79BFF00210720FFF72BFF012080
:10073000FFF712FE0120FFF791FF0D48FFF7D4FEEF
:100740000C48FFF729FD002211460A48FFF74CFF2D
:1007500005200007406B30218843052109074863C5
:100760000846406B3021084305210907486310BD46
:1007700080F0FA02113D8057010E052212078918F8
:100780008968012282401143020E05231B07D218FB
:100790009160010E1A4689188A68012181408A43B6
:1007A000010EC9188A60704700B50346184600F06C
:1007B00001F800BDC1B20A290AD100BF0A498969FE
:1007C0000122D20511400029F8D10D21064A1160FD
:1007D00000BF054989690122D20511400029F8D1DD
:1007E00001490860704700000000154070B5FFF730
:1007F000BBFD114908601148006945076D0F022DC6
:1008000003D0A8000E490C5801E00B4804680B48BF
:1008100080690007000F461C31462046FFF794FC14
:10082000084908600849074800684A108018FFF71F
:100830008BFC0649086070BD0800002000020050D3
:100840000C0000200000002040420F0004000020A7
:100850007047000010B50448FFF78EFFE121490200
:10086000024800F005F810BD11000004000015401A
:10087000F0B587B004460D46274801460EC9C0684A
:1008800003AE0EC606900020029024484069032162
:1008900009060840060E214880690F210902084018
:1008A000070A002020630320E060A0681C4908407C
:1008B000A060012E04D1FFF7D7FDB10003AA50506C
:1008C000002D26D0B10003AA5058791CFFF73CFC3C
:1008D0006908401829460190FFF736FC801E0290F7
:1008E0001049029888420FD9B10003AA5058791CC8
:1008F000FFF72AFCE900401829460190FFF724FC85
:100900000009801E606204E0032109070298084381
:10091000606207B0F0BD0000D00B00000002005084
:100920000FFFF0FFFFFF00000FB410B503A9044B49
:10093000044A029800F018F810BC08BC04B018472C
:10094000B90A00002C00002002E008C8121F08C1EC
:10095000002AFAD170477047002001E001C1121F40
:10096000002AFBD170470000FFB58DB0044600257A
:1009700006E025280AD0109A0F999047641C6D1C38
:1009800020780028F5D1284611B0F0BD00270121BC
:10099000484A009700E00743641C23780846203B40
:1009A00098401042F7D120782E2817D10420074311
:1009B0006078641C2A280CD10E98641C02C800912F
:1009C0000E900BE000990A22514330394018641C04
:1009D00000902078014630390929F3D92078002881
:1009E000D1D0642808D0692806D075281ED0109A66
:1009F0000F9990476D1C5BE00A200E99019001C988
:100A00000E91002802DA40422D2102E0390504D57A
:100A10002B216A461172012103E0F90704D020213D
:100A2000F7E70BAE0B910DE00021FAE70A200E99D3
:100A3000019001C90E91F7E70199FFF785FB30316D
:100A4000761E31700028F7D103A8801B203001905A
:100A5000780701D5009801E00120009001998842B3
:100A600001DD401A00E000200027009006E002A807
:100A7000109AC05D0F9990476D1C7F1C0B988742A0
:100A8000F5DB04E0109A30200F9990476D1C009917
:100A9000481E00900029F5DC05E03078109A761C9D
:100AA0000F9990476D1C0199481E01900029F4DCB4
:100AB000641C65E70928010030B504460D46204650
:100AC000FFF772FE204630BD00BF24480AE05921DE
:100AD000234A11601621116088211160411E081EF1
:100AE00000D103E01E4909680129F0D100BF00BF11
:100AF000FFF712FE00BF00201949086000BFFFF792
:100B0000A9FE1848016818A0FFF70EFF1AA0FFF70A
:100B10000BFF012240211F48FFF7C4FD01221102F3
:100B20001C48C038FFF7BEFD00201B4988611A49E8
:100B3000C039086210E03120184908606420FFF7CE
:100B4000A3FD01201449C03908626420FFF79CFD11
:100B500000201149C0390862EDE700000080510112
:100B600000010050000000200A0A43505520402098
:100B7000256420487A0A00004861726457617265F2
:100B800020496E697469616C697A65212121210AA5
:100B900000000000C0400050C0420050000015405E
:100BA00000000000040000000C0000002400000011
:100BB00000000000040000002C0000000000000005
:100BC00000000000040000002C00000000000000F5
:100BD000001BB70000000000000000000080510171
:100BE000001BB70000000000000000000080510161
:100BF000001BB70000000000000000000080510151
:100C0000200C000000000020340000004809000013
:100C1000540C0000340000200404000058090000B7
:100C200080F0FA023200000080F0FA02001BB700E8
:100C30000000000080F0FA02102700000000000011
:100C400000000000000000000080510100000000D2
:040C500000000000A0
:04000005000000D522
:00000001FF
