:020000040000FA
:1000000068060020D5000000F5000000F7000000A1
:1000100000000000000000000000000000000000E0
:1000200000000000000000000000000007010000C8
:10003000000000000000000009010000C5270000CA
:100040000D0100000D0100000D0100000D01000078
:100050000D0100000D0100000D0100000D01000068
:100060000D0100000D2900000D0100000D01000030
:100070000D0100000D0100000D0100000D01000048
:10008000312900000D0100000D0100000D010000EC
:100090000D0100000D0100000D0100000D01000028
:1000A0000D0100000D0100000D0100000D01000018
:1000B0000D0100000D0100000D0100000D01000008
:1000C0000348854600F0D8FC0048004799400000EE
:1000D0006806002012481349016013490160134962
:1000E0000160134A134911600021016012488047E2
:1000F00012480047FEE77046EFF30881EFF30982EC
:100100000F4B98470047FEE7FEE7FEE7FEE70000DB
:10011000ABBE0C4B7446984720477046F047000032
:100120000001005059000000160000008800000087
:1001300024000050A55A000031280000C100000032
:1001400061230000E924000030B50B460146002081
:100150002022012409E00D46D5409D4205D31D46CD
:100160009540491B2546954040191546521E002DC5
:10017000F1DC30BD70B500242546002801DA0124E9
:100180004042002901DA01254942FFF7DDFFAC4278
:1001900000D04042002C00D0494270BD03460B43C2
:1001A0009B0703D009E008C9121F08C0042AFAD22D
:1001B00003E00B780370401C491C521EF9D27047B3
:1001C000F8B502464A40D40F42004B0052085B0883
:1001D0009A4202D20246084611464A0023D0C30D75
:1001E0004A00DDB2120EAD1A202D35DA4902012681
:1001F000490AF6058A19002C00D0524220214F1BD3
:100200001146B9402A411018C20D9A4221D0002C43
:1002100017D0012D08DCDA05801AD20F8019D20719
:10022000DBB200F020FBF8BDDA05801A01234000A4
:100230001B06C01880185A428018CA0F1043490084
:1002400007E04908C2071143DA05801A80194008FF
:10025000801800F000FBF8BD61000122511A001B5C
:10026000F7E70122D2075140AAE70122D207504006
:10027000A6E7024670B54A40D30FDB0740002DD0F9
:100280004A002AD0010E140E000212020919400A77
:10029000520A8418E50104465443000A120A2E0447
:1002A0005043A4194219200CC543AA18120C012569
:1002B000AD03521C521912047F39240400D0521C81
:1002C000104301D44000491EC2B20C06C0092018D8
:1002D000401C4008802A02D003E0002070BD400886
:1002E0004000002900DA0020184370BD70B50246B6
:1002F0004A40D50F40004A00ED0740085208002848
:1003000014D0002A12D0C40DD30D41020120C00523
:100310005202490A520AE41A091812187D3491420D
:1003200001D3641C00E04900002C01DA002070BDFC
:100330000023914201D3891A034340084900002851
:10034000F7D100290AD0914202D10121C90705E065
:10035000914201D2012101E00121C943E005C01809
:10036000401900F078FA70BDF0B5074608465840CD
:1003700087B0C00F049048000E4659004008490855
:10038000BC1A884105D2384631461E4617460B46F0
:1003900002465800400810434CD0300D03904005F1
:1003A0005900400D490D0590401A0290402872DA1C
:1003B00018030121000B09050843019004980092DD
:1003C000002805D0019952420020884100920190F6
:1003D000029840210A1A0199009800F019FA05467E
:1003E0000C466B4607CB00F023FAC0197141039A03
:1003F0000E0D0023D71756401A467A40164344D0B4
:10040000049A002A2DD0029A012A039A15DC1205BB
:10041000C01A914101263605001C7141D20F059E7C
:10042000D2070093019202962A46234600F061FA11
:1004300007B0F0BD38463146FAE71605224A0F46A6
:10044000B218C01AB74101210905001C4F4100181C
:100450007F41114618187941E20F10436D1964412C
:1004600013E0E2076D0815436408C2071443039ABA
:1004700001261205C01A91413605001C7141CE07B4
:10048000400830434908C01851412A46234600F02D
:1004900023FACDE7FFE7049801224000C117121AA2
:1004A00000238B4104983146C417381AA141EEE766
:1004B00030B40124E407634030BC55E730B4012474
:1004C000E407614030BC4FE70000E0FFF0B51FB427
:1004D00088B00B990998002448400999C00F490039
:1004E00049080991C0070B990090490049080B91F0
:1004F00009990898A64608431CD00B990A98084306
:1005000018D0099801244000420D4800410D099877
:1005100024050003000B204309900B980003000BF7
:1005200020430B9050181C4940180022019014469B
:10053000104605E0002001460DB0F0BD032801DAA9
:10054000034600E003239C46C11A0AAE0AE05F009E
:1005500008ADED5B4F00F75B7D430027AA187C4197
:10056000491C5B1E6145F2DD410004AB5A52210477
:10057000120C0A43240C401C0828DFDB019802906F
:100580000099704601910090059B049A079906987E
:1005900000F0AFF9D0E700000DFCFFFFF0B50C460E
:1005A0005C4085B0E40FE40703944C000026640827
:1005B00059009446490802460296224321D06246D9
:1005C0000A431ED06200570D4A000E032303550D47
:1005D000012402462C492405781B1B0B360B4018BE
:1005E00023432643614600901C46501AB44103D36E
:1005F0000098401C009002E0921800985B4100288F
:1006000003DA0020014605B0F0BD002001210905F4
:100610000746864611E064461D46141BB54106D3C5
:100620006546521BB341744607430C43A646CD07AB
:1006300040084908284392185B4105460D43EAD11A
:100640001046184313D06046194650407140084385
:1006500006D06046101AB34106D20122002306E0FC
:1006600000220123DB0702E00122D243531000984D
:1006700074460105381C6141029C039D00196941C3
:1006800000F02AF9BFE70000FD030000C217C10F08
:10069000504010B54018CA079623002100F0E3F837
:1006A00010BD10B500229623114600F0DCF810BDF5
:1006B000410040020122400AD205090E80187F291C
:1006C00001DA00207047962903DC9622511AC840AF
:1006D0007047963988407047C20FD20740004008E3
:1006E0000BD0C10D0723DB01C91840020905400AE0
:1006F0001143C2084007114370470020014670476C
:1007000010B5002904DB0124E40740428C41214656
:10071000002B04DB1C460123DB075242A3418B4222
:1007200000D1824210BD000010B5002904DB012475
:10073000E40740428C412146002B04DB1C46012388
:10074000DB075242A341994200D1904210BD000004
:10075000CB0FDB07490010B5490802460A4307D012
:100760000A0D07240903E401090B121B002A01DC0E
:10077000002010BDC900440F0C43C100E018D20591
:10078000801800F068F810BD0122D207002800DBB5
:10079000101A002900DB511A814270470122D2074A
:1007A000002800DB101A002900DB511A884270472C
:1007B000F0B51FB40646002082B0054640240191E2
:1007C00000901BE0019922460F46304600F066F982
:1007D000049A059B801A994110D310461946224667
:1007E00000F016F8361A8F410197224601200021A9
:1007F000009F00F00DF838184D4100902046641E0F
:100800000028DFDC019B00982946324607B0F0BD86
:1008100010B5202A04DB0146203A9140002010BD8B
:10082000914020239C1A0346E3401943904010BD99
:1008300010B5202A06DBCB170846203A1041C11715
:100840000B4306E00B461341D0402024A21A9140EE
:100850000843194610BD002904DA401C490001D1A3
:1008600040084000704770B40024050C05D11024E6
:10087000000402D1002921D01124050E01D100026B
:100880000834050F01D10001241D850F01D180001E
:10089000A41C002801DB4000641C002908D020258E
:1008A0002E1B0D46F540A14000D0012129430843ED
:1008B00001061B1B000ADB1D02D5002070BC70471F
:1008C000DB05181880180029F8DA401C4900F5D11A
:1008D00070BC40084000704710B5002B08DA0024B7
:1008E000401C614192185B411A4301D1400840000D
:1008F00010BDF0B51FB482B005460C0003D0084609
:1009000002F082FA02E002F07FFA20300246009004
:1009100021462846FFF77CFF049B059A04460F46B4
:1009200018431143084314D0184610431BD00098B5
:1009300040210A1A1846059900F0B0F805460E46FF
:10094000009A05990498FFF763FF084305D001203A
:1009500004E02046394607B0F0BD0020C11705432A
:100960000E432C43374300990E986305401A7905CE
:10097000E40A00220C43FD0A0A3002D50020014699
:10098000E9E70105101969410C9C0D9D00196941A9
:10099000FFF7A2FFDFE7FEB500231A461B1A8A41C4
:1009A00003DB0020014603B0F0BD4A000D03012126
:1009B0002D0B0905520D0D43D10702D100186D41D1
:1009C000521E5110FF31FF310131002704463E46CF
:1009D000384600970191024601210020090500F0E8
:1009E0005DF8C3197141F818324684468E464A4173
:1009F00061462846611A904104D36046241A954105
:100A000076461F46241900986D41401C00903428FA
:100A1000E1DDF91930467041091BA84103D20022DB
:100A2000D243134601E00022134601980105381C09
:100A30007141FFF751FFB6E74A0009030123090B93
:100A40001B0519430A4B10B5520D9A4202DA0020D9
:100A5000014610BD064B34339A4203DC9A1A00F06B
:100A60001DF810BD034BD218FFF7D2FE10BD0000D9
:100A7000FF030000CDFBFFFF064C0125064E05E0FD
:100A8000E36807CC2B430C3C98471034B442F7D3AF
:100A9000FFF71AFB304800005048000010B5202A2C
:100AA00004DB0846203AD040002110BD0B46D3405D
:100AB000D0402024A21A91400843194610BD0000DE
:100AC00030B5046A054D2C400C4314430462446A5B
:100AD000240A24021C43446230BD0000F3FBFFFFE4
:100AE000F3B585B0069D0027002004900120000387
:100AF00003900026002002900190059C00BF00BFDB
:100B00000FE021880498814201DD2088049021882B
:100B10000398814201DA2088039020888619A41C5A
:100B20007F1CAF42EDDBA91E049AB31A039A981AF0
:100B3000FFF720FB0646059C002713E0218830467E
:100B40003230814208DA21886438814204DD02981B
:100B5000401C80B2029003E00198401C80B20190DA
:100B6000A41C7F1CE90F49194910B942E6DC029820
:100B7000C10F09184A1001998A4201DA0026F6438A
:100B8000304607B0F0BD0000FFB585B004460D4605
:100B90000126514802905148844205D15048406B8B
:100BA000B1040840049005E04D48406B0121C904A0
:100BB000084004900498002803D100F013FA039031
:100BC00004E001F003FE474800680390012612E0AC
:100BD00007990398FFF7B8FA31460190FFF7B4FA86
:100BE0000746012109048F4200D902E0B8B2029001
:100BF00004E0701C86B23C488642E9DB00BF0298E4
:100C0000704301460398FFF79FFA0746701E80B2B3
:100C100006466061012060600298401E80B202902A
:100C20002063089800282ED0029A521C089951433C
:100C300008466421FFF788FA401EAA002146503179
:100C40008850B02001596A00284890408143B02064
:100C5000015100596900103101228A401043B0212E
:100C60000851B42000596A00204991408843B421BA
:100C70000851B42000596900103102228A40104303
:100C8000B421085125E00021AA00204650308150AF
:100C9000B02000596A00154991408843B02108519D
:100CA000B0200059690001228A401043B021085148
:100CB000B42000596A000D4991408843B42108517D
:100CC000B420015968001030022282401143B42040
:100CD0000151384609B0F0BDFFFF0000004004405C
:100CE0000002005000000020FF0F0000030003007E
:100CF000D82212588A43D8231A507047D822125843
:100D00000A43D8231A50704701220262704700221A
:100D1000026370471FB50C4C1ECC03946C460EC486
:100D2000810F89006A465158084A89184968C306E4
:100D3000DB0E01229A401143820F92006B469A58B3
:100D4000024BD21851601FBD7845000000020050D0
:100D5000F3B589B00C460120000453490862099894
:100D600000280ED108460068012108434E4908605A
:100D7000012000F0B1FA002006904C4808900225AE
:100D80000EE04948006804210843474908601020E4
:100D900000F0A2FA0120C0040690454808900425FE
:100DA0004448844204D84010844201D9002712E00C
:100DB0004148844205D84010844202D9012764008A
:100DC00009E03E48844205D84010844202D30327FC
:100DD000A40000E057E00020C043039000200190F1
:100DE000029034E029460898FFF7AEF9059034499F
:100DF000059888422AD933490598884226D202208C
:100E000007901EE0059E07994E432B48864215D356
:100E10004000864212D8A64201D9301B00E0A01B38
:100E2000049003990498884208D20498039001958D
:100E3000079802900398002800D106E00798401C0C
:100E40000790214907988842DCD900BF6D1C212DED
:100E5000C8D9B803069908430199891E4902084375
:100E60000299891E084310490862042000F034FAF0
:100E7000781C019A504301460898FFF765F90299DA
:100E800048430BB0F0BD0998002803D10F4806492C
:100E9000086202E00E4804490862042000F01CFACF
:100EA00000F0E0F8EDE7000000020050001BB70082
:100EB0000080510100C2EB0B00E1F50580F0FA0261
:100EC000006A1800C0E1E400010200002EC2000028
:100ED0006FD60800024909680143014A1160704752
:100EE00000020050FEB5002002901AA00068009099
:100EF0001948046A00132040002801D00020FEBDDC
:100F00000120C0042040002801D0144D00E0144D01
:100F1000012040042040002801D02846EFE70320AC
:100F200080032040800B69460A5C0192E005C00DF9
:100F3000861C1F2040022040400A871C019A7A43E9
:100F40001146AA0872431046FFF7FEF8800002908F
:100F50000298D4E70102020400020050008051010F
:100F6000001BB700FEB5002002901AA00068009098
:100F70001948046A00132040002801D00020FEBD5B
:100F80000120C0042040002801D0144D00E0144D81
:100F9000012040042040002801D02846EFE703202C
:100FA00080032040800B69460A5C0192E005C00D79
:100FB000861C1F2040022040400A871C019A7A4369
:100FC0001146AA0872431046FFF7BEF8800002904F
:100FD0000298D4E70102020400020050008051018F
:100FE000001BB700FEB5002002901AA00068009018
:100FF0001948046A00132040002801D00020FEBDDB
:101000000120C0042040002801D0144D00E0144D00
:10101000012040042040002801D02846EFE70320AB
:1010200080032040800B69460A5C0192E005C00DF8
:10103000861C1F2040022040400A871C019A7A43E8
:101040001146AA0872431046FFF77EF8800002900E
:101050000298D4E70102020400020050008051010E
:10106000001BB700FEB5002002901AA00068009097
:101070001948046A00132040002801D00020FEBD5A
:101080000120C0042040002801D0144D00E0144D80
:10109000012040042040002801D02846EFE703202B
:1010A00080032040800B69460A5C0192E005C00D78
:1010B000861C1F2040022040400A871C019A7A4368
:1010C0001146AA0872431046FFF73EF880000290CE
:1010D0000298D4E70102020400020050008051018E
:1010E000001BB700FEB5002002901AA00068009017
:1010F0001948046A00132040002801D00020FEBDDA
:101100000120C0042040002801D0144D00E0144DFF
:10111000012040042040002801D02846EFE70320AA
:1011200080032040800B69460A5C0192E005C00DF7
:10113000861C1F2040022040400A871C019A7A43E7
:101140001146AA0872431046FEF7FEFF8000029087
:101150000298D4E70102020400020050008051010D
:10116000001BB70070B504462248C0681021084033
:1011700005462148844200D904462048844200D2D2
:1011800004461C480068042108431A4908601020DE
:1011900000F0A2F8174800690721084315490861C3
:1011A000084680690009000188610846C068C007D8
:1011B000C00F002805D061000020FFF7C9FD0446DC
:1011C0000AE061000120C004FFF7C2FD044609489F
:1011D000C0681021084005460121022000F010F8E7
:1011E000002D05D1034800680421884301490860A7
:1011F000600870BD0002005080F0FA0240787D0166
:1012000070B504460D461648C068102108400646D1
:10121000134800680421084311490860102000F0B9
:101220005BF80F480069C008C000C01D0C49086188
:101230000846806900090001284388610846006962
:10124000C008C0002043086101F0C0FA002E05D19B
:1012500003480068042188430149086070BD00000C
:1012600000020050F7B584B000220023184C254638
:10127000E0CDE46802970196009503948403240E60
:10128000002C0ED00403A40FA400124D6319840394
:10129000250E8405E40EA5401C68AC43069D2C4336
:1012A0001C600401640F002C10D08400A40FA40063
:1012B0006D462C59074D083D62190401650FC401A4
:1012C000E40EA5401468AC430C43146007B0F0BDB5
:1012D00068450000180200500146084800684208AE
:1012E00005E01046521E002801DC0020704704482B
:1012F000C06808408842F4D10120F7E700000020D0
:101300000002005010B5044801F0C8F9E12149027B
:10131000024801F027FB10BD110000040000154039
:1013200008B509E00321009102E00099491E0091EF
:1013300000990029F9D1401E0028F3D108BD70B5ED
:101340000446204600F032F80520FFF7E9FF20466A
:1013500000F010F80520FFF7E3FF204600F042F808
:101360000546204600F014F80520FFF7D9FF28466F
:1013700070BD0000002803D10121044A516004E03F
:10138000012802D10121014A91607047404200507A
:10139000002803D10021044A516004E0012802D151
:1013A0000021014A9160704740420050002803D15B
:1013B0000121044A116004E0012802D10121014AFF
:1013C000D160704740420050002803D10021044AF8
:1013D000116004E0012802D10021014AD160704768
:1013E0004042005001460020002903D1044A1268FF
:1013F000D0B204E0012902D1014AD268D0B27047CC
:101400004042005070B506460D4600241CE0802086
:1014100020412840002803D03046FFF7C7FF02E0F4
:101420003046FFF7D1FF0220FFF77AFF3046FFF783
:10143000A1FF0520FFF774FF3046FFF7A9FF032047
:10144000FFF76EFF601CC4B2082CE0DB70BD10B566
:1014500004462046FFF7AAFF2046FFF78BFF052032
:10146000FFF75EFF2046FFF7AFFF0520FFF758FFAD
:101470002046FFF78DFF0520FFF752FF10BD10B586
:1014800004462046FFF7A0FF2046FFF773FF052024
:10149000FFF746FF2046FFF789FF0520FFF740FFD3
:1014A00010BD000000BFEFF31081084672B6084976
:1014B0000978002906D1002801D1012100E000218E
:1014C000044A117002490978491C014A1170704799
:1014D000770000207600002007480078401E06496B
:1014E000087008460078002804D1044800780028D5
:1014F00000D062B670470000770000207600002020
:101500000348006840084000014908607047000037
:1015100000C00050034800681021084301490860DA
:101520007047000000C0005001460020154B1860B5
:101530002220154BD8601846416001201861BFF386
:101540006F8F12480068820806E0501E021E03D109
:10155000401E0C4B186070470B4800690028F4D1FE
:101560000948006840231840002809D00648006850
:101570001843054B18600020C043024B1860EAE78F
:101580000020E8E72C00002000C0005000000020F0
:101590000448006802210840002801D0012070475B
:1015A0000020FCE700C00050034800680121084308
:1015B000014908607047000000C00050014600204B
:1015C0000D4B18600D4BD860184641600120186122
:1015D000BFF36F8F0A480068C20806E0501E021E63
:1015E00003D1401E044B186070470448006900286E
:1015F000F4D102488068F7E72C00002000C00050BA
:1016000000000020014600200D4B18600D4BD860F3
:101610001846416001201861BFF36F8F0A480068C7
:10162000C20806E0501E021E03D1401E044B186083
:101630007047044800690028F4D102488068F7E741
:101640002C00002000C000500000002070B50546AE
:101650000E4600200B49086000240FE0A100032281
:1016600012058818FFF7AAFFA10068500548006816
:10167000002802D00020C04370BD641CB442EDD3EA
:101680000020F9E72C000020014840697047000065
:1016900000C0005010B5024600200E4C20602120F2
:1016A0000D4CE06020464260816001202061BFF364
:1016B0006F8F0A480068C30806E0581E031E03D156
:1016C000401E044C206010BD034800690028F4D17E
:1016D00000BFF8E72C00002000C0005000000020F0
:1016E000F8B505460E4600202349086004463FE051
:1016F000A20003231B05D018A200A95800231E4FE7
:101700003B6021231D4FFB603B46586099600123DD
:101710003B61BFF36F8F1A4B1B68DA0806E0531E5C
:101720001A1E03D1531E144F3B6004E0134B1B6978
:10173000002BF4D100BF10480068002802D0002020
:10174000C043F8BDA100032212058818FFF736FF39
:10175000A1006958884202D00020C043F1E7064842
:101760000068002802D00020C043EAE7601C04465D
:10177000B442BDD30020E4E72C00002000C000509C
:1017800000000020F8B505460E4617462C4604E03A
:1017900039462046FFF77EFF241DB442F8D30020CF
:1017A000F8BD0000F8B505460E4617462C464DE03C
:1017B00021462AA001F018FB2046FFF7B5FE0022C3
:1017C000D243E11DFF31FA31204601F037FA0028FB
:1017D00006DA21462AA001F007FB0020C043F8BD2D
:1017E0003A46E11DFF31FA312046FFF7CBFF0028D2
:1017F00006DA21462BA001F0F7FA0020C043EEE7FD
:101800003A46E11DFF31FA31204601F017FA00286F
:1018100005DA2BA001F0E8FA0020C043DFE72046FC
:10182000FFF782FE0022D243E11DFF31FA3120464C
:1018300001F004FA002806DA214611A001F0D4FADA
:101840000020C043CBE7FF34FF340234B442AFD3AF
:1018500021A001F0C9FA0020C1E7000020202020CB
:10186000466C61736820746573742061646472658A
:1018700073733A2030782578202020200D00000056
:101880000A5061676520307825782065726173653C
:1018900020766572696679206661696C6564210AE3
:1018A000000000004661696C656420746F207772E7
:1018B00069746520706167652030782578210A0099
:1018C0000A4461746120766572696679206661698F
:1018D0006C6564210A2000000D20202020466C61E8
:1018E00073682054657374205061737365642E208F
:1018F0002020202020202020200A000070B5034650
:1019000000200FE0012484400C40002C09D01C680A
:1019100046000325B540AC4346001546B5402C4370
:101920001C60401C1028EDD370BD0000F0B585B0E0
:1019300004467D21C9001A4A0020105EFEF71AFCF9
:101940000746FEF7A3FE064616490020085EFEF78E
:101950009DFE02902046FEF7A4FE13490090FEF77C
:1019600088FC12490190FEF7C1FC07460299FEF778
:1019700080FC0F490390FEF7B9FC31460490FEF756
:101980001FFC05467F21C905FEF71AFC09490860BE
:101990000846006801F0ACFE0749086005B0F0BDDC
:1019A000D2000020D0000020008092430080BB4580
:1019B00000401C46D4000020D800002010B5244868
:1019C000007800280AD12348006A0121C90208438F
:1019D0002049086201201E49087037E01C48007841
:1019E000012833D100240FE0601D80001949401800
:1019F000006881B214206043174A8018174A127891
:101A000052008152601CC4B2022CEDDB0A21134843
:101A10000078401CFEF7AEFBC8B2104908700020E9
:101A20000B4908700D48007800280FD10A210A4898
:101A3000FFF756F80A4908800A2107481430FFF7D3
:101A40004FF8074948800888FFF770FF10BD000075
:101A50006800002000000E402001002069000020E6
:101A60006400002010B50648006A012108430449BB
:101A700008626023082200210148FFF721F810BD09
:101A800000000E40FEB504460D4600212846FEF734
:101A90007BFE04D32D492846FEF780FE04D22CA0FD
:101AA00001F0A2F90120FEBD00260020029031497C
:101AB0002846FEF7DEFB25490190FEF717FC074696
:101AC000FEF7F6FDC6B2012C03D1982069460872D4
:101AD0000AE0022C03D19A206946087204E026A08D
:101AE00001F082F90120DEE73006010F68464172FD
:101AF0003007010E684681720020FFF7A8FC684697
:101B0000017A0020FFF77EFC0020FFF718FC6846F2
:101B1000417A0020FFF776FC0020FFF710FC6846B2
:101B2000817A0020FFF76EFC0020FFF708FC002000
:101B3000FFF7A5FC2846FEF7CFFD02460B460191B4
:101B4000009014A001F050F90020ACE70000A04084
:101B50004572726F723A20566F6C74616765206FC0
:101B60007574206F662072616E67652028302D3590
:101B700056290A0000007F434572726F723A20496D
:101B80006E76616C696420444143206C696E650A1D
:101B9000000000004441433120766F6C746167653A
:101BA0002073657420746F3A20256620560A000061
:101BB00001484068704700006C00002070B500F0DC
:101BC00085FDFFF7F1FC0F20000300F0B9FD0028B0
:101BD00002DA80A001F008F988A001F005F9FFF70A
:101BE000D7FC002803D190A001F0FEF805E091A0F9
:101BF00001F0FAF892A001F0F7F800BF00219F4A27
:101C000011600B219E4AD1600021516001211161B8
:101C1000BFF36F8F9B490968C80806E0411E081E84
:101C200003D1411E954A116007E095490969C9072A
:101C3000C90F0029F2D1924989680D46294692A020
:101C400001F0D2F800BF00218C4A11600C218C4AAF
:101C5000D1600021516001211161BFF36F8F89496B
:101C60000968C80806E0411E081E03D1411E834AC8
:101C7000116007E082490969C907C90F0029F2D13B
:101C80007F4989680D4629468CA001F0ADF800BF58
:101C900000217A4A11600C21794AD16004215160F7
:101CA00001211161BFF36F8F76490968C80806E00A
:101CB000411E081E03D1411E704A116007E07049A1
:101CC0000969C907C90F0029F2D16D4989680D4614
:101CD000294687A001F088F8002424E0E0B2002221
:101CE000664B1A600422664BDA6082005A60012259
:101CF0001A61BFF36F8F634A1268D10806E04A1E6B
:101D0000111E03D14A1E5D4B1A6005E05C4A126940
:101D1000002AF4D15A4A926815462A46214681A0E3
:101D200001F062F8641C032CD8D3002427E020467D
:101D30000022524B1A600422514BDA6082001032AA
:101D40005A6001221A61BFF36F8F4E4A1268D108A0
:101D500006E04A1E111E03D14A1E484B1A6007E0D6
:101D6000474A1269D207D20F002AF2D1444A926838
:101D700015462A46214679A001F036F8641C042C49
:101D8000D5D303200005FFF73DFC0646314681A070
:101D900001F02AF88C48FFF735FC064631468BA047
:101DA00001F022F8FFF770FC0546294694A001F0E7
:101DB0001BF8A0A001F018F8A34AA4490F200003C3
:101DC000FFF7F0FCFFF79CFB00BF0020A049086074
:101DD00000BF70BD4661696C656420746F207365D7
:101DE00074204461746120466C6173682062617381
:101DF000652061646472657373210A002020426F5C
:101E00006F74204D6F6465202E2E2E2E2E2E2E2EBA
:101E10002E2E2E2E2E2E2E2E2E2E2E2E2E2E2E2EE2
:101E20002E2E2E2E2E2000005B4150524F4D5D0A6B
:101E3000000000005B4C44524F4D5D0A0000000062
:101E400020205741524E494E473A2054686520643D
:101E500072697665722073616D706C6520636F6462
:101E600065206D7573742065786563757465206988
:101E70006E204150206D6F6465210A002C00002007
:101E800000C00050000000202020436F6D70616E84
:101E900079204944202E2E2E2E2E2E2E2E2E2E2E02
:101EA0002E2E2E2E2E2E2E2E2E2E2E2E2E2E2E2E52
:101EB0002E205B3078253038785D0A00202044657C
:101EC00076696365204944202E2E2E2E2E2E2E2E2E
:101ED0002E2E2E2E2E2E2E2E2E2E2E2E2E2E2E2E22
:101EE0002E2E2E2E2E205B3078253038785D0A007D
:101EF000202050726F64756374204944202E2E2E6A
:101F00002E2E2E2E2E2E2E2E2E2E2E2E2E2E2E2EF1
:101F10002E2E2E2E2E2E2E2E2E205B307825303873
:101F2000785D0A002020556E69717565204944204E
:101F30002564202E2E2E2E2E2E2E2E2E2E2E2E2EA2
:101F40002E2E2E2E2E2E2E2E2E2E2E2E2E2E205B92
:101F50003078253038785D0A000000002020556E6A
:101F60006971756520437573746F6D65722049449E
:101F7000202564202E2E2E2E2E2E2E2E2E2E2E2E70
:101F80002E2E2E2E2E2E205B3078253038785D0AAE
:101F90000000000020205573657220436F6E666953
:101FA000672030202E2E2E2E2E2E2E2E2E2E2E2E32
:101FB0002E2E2E2E2E2E2E2E2E2E2E2E2E205B3020
:101FC00078253038785D0A000400300020205573F1
:101FD000657220436F6E6669672031202E2E2E2E8B
:101FE0002E2E2E2E2E2E2E2E2E2E2E2E2E2E2E2E11
:101FF0002E2E2E2E2E205B3078253038785D0A006C
:1020000020204461746120466C61736820426173D2
:10201000652041646472657373202E2E2E2E2E2E41
:102020002E2E2E2E2E2E2E2E2E205B307825303862
:10203000785D0A00737461727420666C6173682045
:1020400074657374210D0A005A5A5A5AFFFF000032
:102050000001005010B50446142322460221034813
:10206000FEF792FD0248446010BD0000004014409D
:102070006C00002001484078704700006C00002090
:1020800001480078704700006C00002010B5012264
:1020900011020648FFF732FC0020054908621423AC
:1020A000C82202210348FEF76FFD10BD40410050D9
:1020B0004043005000401440002805D10021054A4B
:1020C0001162054A517004E00121024A1162024A7C
:1020D00051707047404300506C00002010B5094813
:1020E0001423022142680848FEF74EFD04210648E9
:1020F000FEF704FE04210448FEF706FE0120014914
:10210000087010BD6C0000200040144010B5042180
:102110000548FEF7EDFD04210348FEF7F8FD002019
:102120000249087010BD0000004014406C000020FF
:1021300010B500242CE00C2060431749401880683B
:10214000002823D00C206043085C02281ED10C20FC
:10215000604340184088401C81B20C2060430E4A06
:10216000801841800C2060431146401841880C20A3
:10217000604380188088814208DB01210C20604385
:1021800011540C216143891888688047601CC4B2CF
:10219000022CD0DB10BD00000801002002480349DA
:1021A0000880012048807047333300004802002037
:1021B00008B500204B231B0204223121009001F0BE
:1021C000B7FBFFF7EBFF01F019FB08BD10B50028C6
:1021D00019DA1A4A03071B0F083B9B089B00D258C9
:1021E0008307DC0EFF23A3409A438B071B0E840753
:1021F000E40EA3401A43114B0407240F083CA40823
:10220000A4001A5118E00E4A03231B02D2188308B7
:102210009B00D2588307DC0EFF23A3409A438B0711
:102220001B0E8407E40EA3401A43054B032424022B
:102230001B198408A4001A5110BD00001CED00E019
:1022400000E100E003490968002901D10149086063
:102250007047000038000020002027E00C21414397
:10226000144A515800291FD00C214143891809896B
:10227000491C8AB20C2141430E4BC9180A810C211A
:1022800041431A4689180A890C214143C918C98853
:102290008A4209DB00220C214143C9180A8101222C
:1022A0000C214143C9180A71411CC8B20328D5DB6F
:1022B00070470000E400002070B50C2444430C4D2E
:1022C0002C59002C12D10C244443295100250C24F4
:1022D0004443074EA41925710C2444433546641920
:1022E000E28000250C244443A419258170BD000020
:1022F000E400002016E0002412E00C2060430A49AC
:1023000040180079012809D100210C206043064AB9
:10231000801801710C21614350588047601CC4B281
:10232000032CEADBE7E70000E4000020002012E0D5
:1023300000220C214143094B5A500C214143C9183A
:102340000A710C214143C918CA800C214143C918A4
:102350000A81411CC8B20328EADB7047E400002070
:10236000F7B586B0064604203040002801D0089C0E
:1023700000E0079C2068059060680490A0680390C6
:10238000E0680290206901906669A0690090E569A3
:10239000012000062840002804D11BA000F024FDE5
:1023A00000BFFEE7EF05FF0D002F06D039461039BC
:1023B00024A000F019FD00BFFEE72BA0009900F05B
:1023C00013FD31A0059900F00FFD32A0049900F033
:1023D0000BFD33A0039900F007FD34A0029900F033
:1023E00003FD35A0019900F0FFFC314635A000F057
:1023F000FBFC37A0009900F0F7FC294637A000F05D
:10240000F3FC00BFFEE700005053522054206269E5
:102410007420697320302E0A4861726420666175E9
:102420006C742063617573656420627920636861F0
:102430006E67696E6720746F2041524D206D6F6426
:1024400065210A0048617264206661756C742069B8
:10245000732063617573656420696E204952512051
:102460002325640A000000004861726420666175DB
:102470006C74206C6F636174696F6E206973206186
:102480007420307825780A00723020203D20307882
:1024900025780A00723120203D20307825780A0006
:1024A000723220203D20307825780A0072332020B7
:1024B0003D20307825780A00723132203D20307876
:1024C00025780A006C7220203D20307825780A009B
:1024D000706320203D20307825780A0070737220C8
:1024E0003D20307825780A00034600207047000020
:1024F00010B50420FEF7EEFC1020FEF7EDFE0021E3
:102500000720FEF77DFE0120FEF7E4FC0120FEF728
:10251000E3FE5948FEF726FE5848FEF7FBFB5848F5
:10252000FEF7F8FB5648401CFEF7F4FB5548FEF753
:10253000F1FB5548FEF7EEFB5448FEF7EBFB00229B
:1025400011464E48FEF78EFE0122920200214C48B1
:10255000FEF788FE0122920200214948401CFEF746
:1025600081FE0022012149034648FEF77BFE31220D
:10257000120408214448FEF775FE00220121C90417
:102580004248FEF76FFE424800F088F80520000739
:10259000406B302188430521090748630846406B9A
:1025A000302108430521090748630846806BC02194
:1025B00088430521090788630846806BC0210843CA
:1025C0000521090788630846006B800880000863BE
:1025D0000846006B032108430521090708632D48BD
:1025E000406AC321890188432A4948620846406AF3
:1025F000C0210843274948620846006A30218843C1
:1026000024490862244840680321490508432249B7
:10261000486005200007006B6021884305210907F9
:1026200008630846006B6021084305210907086319
:102630000846406BFF2101318843052109074863A3
:102640000846406BFF210131084305210907486313
:102650001048006A0121090588430E4908620846AE
:10266000006A890308430B49086208460069C905E6
:1026700088430849086110BD80F0FA02113D805777
:10268000093D80970300C05E1CFE2356130030B343
:10269000130000084000005000400050010E0522C9
:1026A000120789188968012282401143020E05230E
:1026B0001B07D2189160010E1A4689188A680121F9
:1026C00081408A43010EC9188A60704709480AE0B0
:1026D0005921094A11601621116088211160411E9B
:1026E000081E00D103E0044909680129F0D100BFA8
:1026F00070470000008051010001005000B5034602
:10270000184600F001F800BDC1B20A290AD100BF85
:102710000A4989690122D20511400029F8D10D2109
:10272000064A116000BF054989690122D20511409E
:102730000029F8D1014908607047000000001540E9
:102740007CB5044601216846FEF780FF0098C0076B
:10275000C00F002800D17CBDFEF7DCFE0320000581
:10276000FEF7E2FE052100988843009001940221C3
:102770006846FEF7B5FF002802D00020C043EAE714
:10278000FEF782FF0546294606A000F02DFB052036
:10279000000780680121084305210907886000209F
:1027A000D9E700000A536574204461746120466CC7
:1027B00061736820626173652061732030782578C9
:1027C0002E0A000010B5FFF747FD10BD70B5FEF7EB
:1027D00089FB114908601148006945076D0F022DFA
:1027E00003D0A8000E490C5801E00B4804680B48C0
:1027F00080690007000F461C31462046FDF7A4FC07
:10280000084908600849074800684A108018FDF721
:102810009BFC0649086070BD0800002000020050C3
:102820000C0000200000002040420F0004000020A7
:102830007047000030B589B005462022194901A82B
:10284000FDF7ACFC1848854206D1184840690721BD
:1028500009020840040A1AE013482030854206D1D4
:1028600012484069072109030840040B0FE0104893
:10287000854206D10D484069072109040840040C2F
:1028800005E00A484069072109050840040D022CAB
:1028900003D10848006809B030BDA00001A908585C
:1028A000F9E70000984500000000014000020050D8
:1028B0000000114000000020F7B582B00646174620
:1028C0003046FFF7B7FF019000240025019840082B
:1028D000B84201D202240CE039460198FDF734FCDD
:1028E0000446250E002D04D0691C2046FDF72CFC63
:1028F00004460398284330607460681C60430146B6
:102900000198FDF721FC05B0F0BD000010B500BF37
:1029100006488068C007C00F002806D000BF01200D
:102920000249886000BFFFF703FC10BD2000014092
:1029300010B50948C46980152040002802D0074816
:1029400000688047012040022040002802D004484F
:102950000068804710BD0000008005409C000020FA
:10296000A0000020F0B587B004460D462748014678
:102970000EC9C06803AE0EC606900020029024481F
:102980004069032109060840060E214880690F218D
:1029900009020840070A002020630320E060A068C5
:1029A0001C490840A060012E04D1FEF79BFBB1003A
:1029B00003AA5050002D26D0B10003AA5058791C0C
:1029C000FDF7C2FB6908401829460190FDF7BCFBE2
:1029D000801E02901049029888420FD9B10003AAC4
:1029E0005058791CFDF7B0FBE900401829460190CA
:1029F000FDF7AAFB0009801E606204E003210907BD
:102A000002980843606207B0F0BD0000B8450000BE
:102A1000000200500FFFF0FFFFFF000070B50346FB
:102A2000002010E0002405E0641C0125AD07AC4245
:102A300000D370BD9D690126B6033540002DF3D14A
:102A40001D680D54401C9042ECD300BFF1E700001C
:102A5000FFB587B004460D461746284801460EC903
:102A6000C06802AE0EC6059000200190244840695F
:102A7000032109060840060E214880690F2109023A
:102A80000840000A0690012E04D1FEF72BFBB1008E
:102A900002AA5050002D28D0B10002AA5058069921
:102AA000491CFDF751FB6908401829460090FDF7C5
:102AB0004BFB801E019013490198884210D9B10048
:102AC00002AA50580699491CFDF73EFBE900401840
:102AD00029460090FDF738FB0009801E606204E083
:102AE0000321090701980843606238460A990843A0
:102AF00010990843E0600BB0F0BD0000C84500002D
:102B000000020050FFFF000070B50346002011E0F6
:102B1000002405E0641C0125AD07AC4200D370BD64
:102B20009D690126F6053540ED0D002DF2D10D5CB5
:102B30001D60401C9042EBD100BFF0E770B5044629
:102B4000022C08D132480078000232490978084343
:102B5000314988805BE0032C04D1304800882E493D
:102B6000C88054E0042C04D12C4840882A490881AC
:102B70004DE0052C04D12A4800882749488146E0C9
:102B8000062C04D127480088234988813FE0072C80
:102B90000AD1254925480068FDF76BFB0546FDF77E
:102BA00087FD1D49C88132E0082C0AD120492148FF
:102BB0000068FDF75EFB0546FDF77AFD16490882C1
:102BC00025E0092C08D1FFF75BFA0502FFF752FA5E
:102BD0000543114845821AE00A2C01D00B2C09D17B
:102BE000FEF7E6FF000C0C498882FEF7E1FF0A4978
:102BF000C8820CE00C2C04D10F48008806490883D9
:102C000005E00D2C03D10C4840880349488370BD72
:102C100043000020440000204802002064000020FF
:102C2000D0000020D20000200000C842D4000020C4
:102C300000002041D8000020CC000020F7B5074656
:102C400016463C460FE02046FEF7DCFC0546B54242
:102C500008D033462A462146054800F0C5F8002032
:102C6000C043FEBD241D01988442ECD30020F8E748
:102C7000E8470000FEB505460C4600200190022DF5
:102C800002D13F490C7079E0052D03D120B23D49B6
:102C9000088073E0062D03D120B23B4908806DE027
:102CA000092D13D1FF2000022040002805D0FFF796
:102CB00015FA36A000F098F804E0FFF727FA37A0DD
:102CC00000F092F8E0B2FFF7F7F957E00A2D03D1D0
:102CD00020043549086051E00B2D18D132480068B6
:102CE0002043314908600846006832280CD3084662
:102CF00000682E49884207D82B480068FFF7AAF9D8
:102D000000202949086039E00220019036E00C2DAE
:102D100018D1274804800288214626A000F064F8D4
:102D20002046FDF7BEFC29490090FDF7DFFA074673
:102D300001218907FDF7DAFA064631460120FEF740
:102D4000A1FE1BE00D2D17D1194844804288214671
:102D50001FA000F049F82046FDF7A3FC1B49009096
:102D6000FDF7C4FA0746A907FDF7C0FA0646314643
:102D70000220FEF787FE01E0022001900198FEBDCF
:102D800044000020D0000020D200002070776D2089
:102D90007374617274210D0A0000000070776D2059
:102DA00073746F70210D0A00DC000020400D0300D9
:102DB000CC0000206461633120766F6C74616765BC
:102DC0003A5B25645D5B25645D0D0A0000007A4472
:102DD0006461633220766F6C746167653A5B256469
:102DE0005D5B25645D0D0A000FB410B503A9044BAB
:102DF000044A029800F0E0F810BC08BC04B0184780
:102E0000493D0000300000202021020C01D010219B
:102E10001046020A01D010460839020901D01046B6
:102E2000091F820801D01046891E420801D0881E61
:102E30007047081A704702E008C8121F08C1002A2C
:102E4000FAD170477047002001E001C1121F002A2B
:102E5000FBD170470149086070470000E000002086
:102E6000F0B51FB484B007980699020D014314D041
:102E70004A484B491018484305140F9801280E98EA
:102E80001CD0281A401C0024464E4749009401914A
:102E90000290002814DA474227E00F98012443A348
:102EA000012808D0002104980F9A84600360C26052
:102EB000416009B0F0BD0E98C143F4E74042E2E73B
:102EC000074612E0F80707D02246334601990098DA
:102ED000FDF7FCFA01910090224633461046194650
:102EE000FDF7F4FA04460E467F10002FEAD102984F
:102EF000019B0028009A0799069802DAFDF7E6FA86
:102F000001E0FDF74BFB04460E460022284BFDF77F
:102F10000BFC03D80020C043014607E00022254BEC
:102F200020463146FDF720FAFDF786FD102409E022
:102F3000002C0ADB0A220023FDF73AFC059B303205
:102F40001A55641E02460A43F2D11122641C059BE5
:102F5000121B1C190F9B012B03D0012308430ED118
:102F60000AE0084304D011200E9000200F9084E75F
:102F70000E98151A6D1E0BE00E98824202DD00239A
:102F80006D1C03E0824201DA00236D1E002BEED09F
:102F900004980F998260C16030C08AE701FCFFFF8E
:102FA000104D0000000024400000F03F3000000001
:102FB0000000F0430000E03FFFB597B00646002553
:102FC00018E2252877D100242746FD49049400E023
:102FD0000443761C32780120203A90400842F7D111
:102FE00030782A280ED0022230780146303909295B
:102FF00016D804990A235943303940181443761CD3
:103000000490F1E7189802C804911890002904DA96
:103010000120400304434842049002200443761CEC
:1030200030782E2814D1042004437078761C2A2886
:1030300009D11898761C80C8189009E00A214F43DE
:10304000303FC719761C3078014630390929F5D947
:1030500030786C2810D006DC4C281AD068280ED0A6
:103060006A2817D104E0742813D07A2812D110E00E
:103070000120400504430CE00121090501E0032182
:1030800009050C437178814203D101200005241801
:10309000761C761C3078119066280BD013DC5828EB
:1030A0007DD009DC00287BD04528F6D04628F4D016
:1030B00047281AD1A5E118E0632835D0642870D0DC
:1030C000652812D19DE170286CD008DC6728F1D00A
:1030D00069287BD06E280DD06F2806D1BAE07328FE
:1030E0002ED0752871D0782859D01A9A19999047FE
:1030F0006D1C7EE16002400F022809D003280DD02C
:103100000428189801680DD00D60001D189070E11A
:103110001898EA1701680D604A60F6E71898016888
:103120000D80F2E70D70F0E718986A460178117289
:10313000001D18900020507202A80090012005E0A8
:10314000189802C8189000200091C04361070DD55F
:10315000002101E00199491C0191B94212DA814232
:10316000F8DB009A515C0029F4D10BE0002101E06A
:103170000199491C01918142FADB019A0099895C0D
:103180000029F5D1019904981A9B471A214638461F
:10319000199A00F097FA0199401945180BE04FE091
:1031A0002CE113E04EE0009800990078491C009152
:1031B0001A9A199990470198401E0190401CF2D12B
:1031C000214638461A9B199A10E137E00A2000215F
:1031D000009001916002410F022907D0189A01CA9C
:1031E0001892C2179446032908D00AE01898C01D07
:1031F000C108C90005C91891944607E000B2C2177A
:103200009446042902D140B2C1178C46002261467F
:10321000944506DA0A460021404291418C462D2110
:1032200002E0210504D52B216A461173012103E038
:10323000E10701D02021F7E7029155E00A200AE0DA
:10324000102008E010200090002104200443019188
:10325000082703E008200021019100906002410F3F
:10326000022907D0189A01CA18920022944603290D
:1032700008D008E01898C01DC108C90005C91891F8
:10328000944603E080B2042900D1C0B2002102912B
:10329000210729D51199702906D0009A1021019B88
:1032A0004A401A4305D00EE040216A4611730121BD
:1032B00008E06146014306D030216A461173119936
:1032C000517302210291009A0821019B4A401A433E
:1032D0000AD16146014301D1610705D530216A4613
:1032E000117301217F1E02911199582904D035A133
:1032F0000E910DA90D910DE037A1F9E76146019BF3
:10330000009AFDF755FA0E9B8C469B5C0D9A521E57
:103310000D92137061460143F0D10D9805A9081A6A
:1033200020300190600703D501200004844300E0B1
:1033300001270198874201DD381A00E00020019939
:1033400000904118029809180498401A0490E0036C
:1033500006D421461A9B199A049800F0B3F945192E
:10336000002706E003A81A9AC05D199990476D1CC2
:103370007F1C02988742F5DBE0030CD521461A9B9F
:10338000199A049800F09EF9451904E01A9A302021
:10339000199990476D1C0099481E00900029F5DC92
:1033A00008E00D980D990078491C0D911A9A199909
:1033B00090476D1C0199481E01900029F1DC63E1E2
:1033C00009280100303132333435363738396162FB
:1033D00063646566000000003031323334353637BF
:1033E00038394142434445460000000000F05AF994
:1033F0004519761C3078002800D0E2E528461BB03D
:10340000F0BD600700D406271898C01DC108C90088
:1034100048680A680831C30FDB071891190001D00A
:103420009CA108E0210501D59BA104E0E10701D0A2
:103430009AA100E09AA1430011985B0810916528B9
:103440000CD006DC452809D046281DD0472841D19C
:1034500041E0662818D067283CD13CE00021112FBC
:1034600001DB112000E0781C0191009008A911A84F
:10347000FFF7F6FC139905910021119A15927F1C14
:1034800012980197009150E00120C007039001209D
:10349000019008A9009711A8FFF7E2FC139A14996C
:1034A00005920022119B009212981593059A0192A1
:1034B000002901D0104602E0791C40180190381A0A
:1034C00001D5019804E04042401E0090781C019014
:1034D000C01B029043E0012F00DA01270021112FC9
:1034E00001DD112000E038460191009008A911A8E3
:1034F000FFF7B6FC13990591119A002112981592C5
:103500000091019721070CD40599B94201DB01997B
:1035100000E00191012904DD159A491E515C302912
:1035200006D0B84201DA011D05DA0121029115E049
:103530000199491EEDE7002805DC0099411800912A
:103540000199091A03E0019A411C914200DD0191A1
:103550000099401A401C02900120C00703902007E8
:1035600006D402990198814202DB0020C0430290F8
:1035700000206946C87707AF012103980337C907C0
:10358000884224D0022011902B201290039800280A
:103590000CDA404203902D20129007E00A21039894
:1035A000FCF7D2FD30317F1E039039701199481E0F
:1035B00011900029F2DC03980028EFD1791E1298AF
:1035C00008703078202108404530BF1E387006A8AA
:1035D000C01BC01D039010980078002800D0012067
:1035E000019941180298C0170918039809180498FE
:1035F000401A401E0490E00306D421461A9B199AF3
:10360000049800F05FF8451910980078002803D05E
:103610001A9A199990476D1CE00324D521461A9BEC
:10362000199A049800F04EF845191CE000980028FB
:1036300007DB00990598884203DD1598405C1999CD
:1036400001E0199930201A9A904700986D1C401C8F
:1036500000900298401E0290002804D11A9A2E2051
:10366000199990476D1C0199481E01900029DDDCD5
:1036700005E038781A9A7F1C199990476D1C0399B8
:10368000481E03900029F4DC21461A9B199A0498DD
:10369000ACE600002D0000002B0000002000000020
:1036A00000000000F8B5044600251E4617468804B1
:1036B00004D405E039462020B0476D1C641EF9D5BE
:1036C0002846F8BDFFB50446002581B01E46C80354
:1036D00001D5302700E02027880404D505E03846CE
:1036E0000399B0476D1C641EF9D5284605B0F0BD9E
:1036F000F0B58FB007463846FCF7EEFF0546284A7E
:10370000284BFCF7FDFF08D33846FCF7E5FF0546DC
:10371000254A264BFDF708F805D225A0FFF764FBE4
:103720002C480FB0F0BD3846FCF7D6FF0546002206
:10373000294BFCF7F9FF2FD83846FCF7CDFF05469B
:103740000022254BFCF72AFF0022244B0191009018
:10375000FCF7B4FE224A234B03910290FCF7B6FE1D
:10376000214A224B05910490FCF7A8FE0791069090
:1037700000F054FD1E4A1F4B09910890FCF7F4FD20
:10378000174A1D4B0B910A90FCF708FF0D910C9006
:10379000FCF7DEFF044600E00E4C2046C1E70000C7
:1037A00085EB51B81E85324048E17A14AE67784007
:1037B0004572726F723A20526573697374616E63F9
:1037C00065206F7574206F662072616E6765210ACF
:1037D0000000000000C079C4000059400000F03F24
:1037E00088CE19EEAF60C3BED828C9DF4C04F03EC6
:1037F0001C64ED4A260270BFAF60B3BE10B5002452
:1038000008480078012809D107A0FFF7EDFA094818
:103810000068804700200349087000E00624204625
:1038200010BD0000860000206D6220737461727408
:10383000210D0A008C000020FEB505460C46002034
:1038400001902088052838D1687800020290A87875
:103850000299084302900298401C80B20290E878D6
:1038600006022E79012E25DB7D2E23DC2F4600203B
:103870002080032038707F1C2088401C2080700628
:10388000000E38707F1C2088401C208000233246A8
:103890003846029900F014FA00900098002804D0ED
:1038A000009800F0A9FC019009E020887100401800
:1038B000208004E00320019001E0032001900198A2
:1038C000FEBDFEB504460E46002001903088062855
:1038D00029DB60780702A0780743781C87B2E0787C
:1038E00005022079054360790290012D18DB782DBF
:1038F00016DC6806010E0298814211D101232A4686
:103900003946A01D00F0DCF900900098002804D092
:10391000009800F071FC019007E00520308004E081
:103920000320019001E0032001900198FEBD0000FA
:10393000F8B505460C4616461F4600200090002CA0
:1039400003D0012C01DBF72C02DD0220009037E0D0
:103950001C480470002D20D11B481C4908601C48DD
:103960001C4908601C481D4908601D481D49086025
:1039700000201D4908601D481D4908601D481E495A
:1039800008601E481E4908603A4631460D480078D6
:10399000069B00F0DFF8009002E00220009000BFDC
:1039A00000BF009800280BD100F0B8FC002802D11D
:1039B0000320009004E013480570012012490870AC
:1039C0000098F8BD84000020853C00008C00002099
:1039D000A93C000090000020F93B00008800002076
:1039E000AD3B000094000020980000201944000026
:1039F0009C000020E9440000A0000020A544000035
:103A0000A4000020850000208600002038B5002595
:103A100045480078002801D0062038BD684600F0EF
:103A20006BFC01287DD168460078002806D001286B
:103A300005D002281AD0032872D170E070E03B4A0A
:103A40003B493C483C4B1B6898470546002D0CD130
:103A50003848007839490978884203D035480078D9
:103A6000002802D1022000F061FC59E030480068D3
:103A7000007833490870012032490870002418E0AA
:103A8000E0003149085C002800D114E0E0002E4934
:103A9000085C2B49097888420AD1E0002A4940187D
:103AA000224942682248006890472649087002E08F
:103AB000641C022CE4DB00BF1E48007800282CD0D8
:103AC00020480078002819D00020184908801C4898
:103AD00000788021084315490A880988491C134B3E
:103AE00019801349096888541648027818460188D5
:103AF0000088401C18800E48006842541348007823
:103B0000012800D100BF09480288094801680B4814
:103B100000780F4B1B689847054601E001E000BFA5
:103B200000BF002079E7000086000020C6000020CA
:103B3000C0000020C4000020940000208400002069
:103B4000C5000020C8000020B00000208500002033
:103B500088000020F8B50E4614461F46002000904D
:103B6000FDF7A0FC3B4608222146304600F0F6FB5C
:103B7000012802D00320009011E04B200002844273
:103B800001D9232504E061000748FCF7DDFA05466A
:103B9000A8B200F025FC012801D003200090FDF719
:103BA0009BFC0098F8BD0000A07F1700F8B5044604
:103BB0000D4616460027FDF775FC0D4800880428C1
:103BC00011DB0B4801880B4800F04CFB00280AD1A0
:103BD00008480078207006480088C01E30800548DC
:103BE000401C286000E00527FDF776FC3846F8BD4C
:103BF0008200002048010020F8B505460E46174611
:103C000000200090FDF74EFC19480078012829D1CA
:103C1000701E18490860012017490880154800687F
:103C2000057008460088C0190880084601881148B8
:103C3000006800F017FB04460F4A1088421C0E4B28
:103C40001A800E4A145421121A461088421C1A80F7
:103C50000A4A115401200A4908700121002000F08D
:103C60001DFB01E005200090FDF736FC0098F8BD33
:103C7000790000207C000020800000204801002006
:103C80007800002010B5FDF70DFC002005490870F4
:103C90000021012000F002FB00F028FBFDF71CFCD6
:103CA00010BD00007900002010B5FDF7FBFB0021DE
:103CB000084600F0F3FA00F013FBFDF70DFC10BD11
:103CC000FFB583B004460F46164600200290012F30
:103CD00032DBB8190F282FDC7D1E0698002802D091
:103CE000012828D113E00FE0A8B2FEF727FF6800F3
:103CF0001449085A00122070641C6800085C207087
:103D0000641C6D1C701E86B2002EEDDC13E010E00A
:103D10002178641C080201902078641C01990843F2
:103D20000190A8B20199FEF7A5FF02906D1C701ECC
:103D300086B2002EECDC01E001200290029807B070
:103D4000F0BD00004802002030B504460D46204674
:103D5000FEF7D4FC204630BD10B500F01BF8024839
:103D6000FEF770FA10BD00006D3D000070B504460E
:103D70000D46002C04D100F0D1F8287072B607E08F
:103D8000012C05D12878002801D062B600E072B677
:103D900070BD000010B564210C480068FCF7D4F930
:103DA00004460B48844200D90EE02002000A401E5F
:103DB000084948610321081FFEF708FA0020054959
:103DC00088610720086100BF10BD000000000020CE
:103DD000FFFFFF0000E000E070B50C244443094DF4
:103DE0002B5500250C244443064EA41965800C2451
:103DF000444335466419A2800C2444436419A160ED
:103E000070BD00000801002008480078002805D196
:103E10000749086201200549087005E001200449AE
:103E2000086200200149087070470000420000202D
:103E30000042005010B5012211020348FDF75EFD5B
:103E400001200249086210BD0040005000420050AD
:103E500010B5074801780078401C054A10706429A5
:103E600004DDFFF7D1FF00200149087010BD0000FC
:103E70004100002010B5FFF7DDFF10BD10B500F0C8
:103E8000E5F8002413E001210C206043094A115495
:103E900000210C206043801841800C206043801872
:103EA00081800C20604380188160601CC4B2022CA9
:103EB000E9DB10BD0801002010B502460C2050437C
:103EC000084BC018806800280AD00C2050431954B1
:103ED00000230C205043034C00194380002010BDE8
:103EE0000120FCE70801002010B501224021034811
:103EF000FDF704FD00200249886110BDC04000505C
:103F0000C04200500020014988617047C042005003
:103F10000120014988617047C042005000BFEFF3A3
:103F20001080002801D1012070470020FCE700002C
:103F300010B5002280213148FDF7E0FC002201216C
:103F400089032E48FDF7DAFC00220121C9032B4822
:103F5000FDF7D4FC00220121C9032848C038FDF731
:103F6000CDFC0022012189032448C038FDF7C6FC9E
:103F70000022012149032148C038FDF7BFFC00227F
:103F8000012109031D48C038FDF7B8FC00220121BA
:103F9000C9031A488038FDF7B1FC01221103174804
:103FA0008038FDF7ABFC0122202114488030FDF75A
:103FB000A5FC0122102111488030FDF79FFC012251
:103FC000D1020E48C038FDF799FC012291020B483E
:103FD000C038FDF793FC012251020848C038FDF7B4
:103FE0008DFC0020064908630649486108610449C0
:103FF0004039C8628862486210BD0000C04000506D
:10400000404200504043005010B5FFF721FFFDF73C
:10401000D5FC10BD10B5FDF7D1FDFFF72FFFFFF761
:1040200063FFFFF727FFFFF783FFFDF71BFDFEF799
:104030002DF8FFF76DFF0223024A03490020FFF726
:10404000CBFE10BD10270000053F000010B50F4A41
:104050000121C9060E48FEF72FFC00BF0C4800687E
:104060000121490708430A49086000BF09200121CE
:104070008140084A116000BF00BF054800689105F3
:1040800008430349086000BF10BD0000204E000037
:104090002000014000E100E07FB500BF35480AE0A4
:1040A0005921354A11601621116088211160411E85
:1040B000081E00D103E0304909680129F0D100BF92
:1040C00000BFFEF715FA00BF00202B49086000BFB3
:1040D000FDF718F9FFF740FEFEF728F927480168B9
:1040E00027A0FEF781FEFCF73DFF0446214628A0ED
:1040F000FEF77AFE2AA0FEF777FEFFF78BFF00BFE0
:104100002C4B1A681B1D0BCB01AD0BC500922A4826
:1041100000680190194800680290284840690C2105
:1041200008408508254A9269FF231B041A40120C97
:10413000511CAA006B469858FCF706F80646152154
:10414000FCF702F8044621461DA0FEF74DFE0123B0
:104150001A4623490020FEF7AFF800F049F8012382
:104160001A4620491846FEF7A7F8FEF7C3F80020C4
:1041700004B070BD0080510100010050000000201B
:104180000A0A435055204020256420487A200A001E
:10419000504C4C204020256420487A200A00000022
:1041A0004F5320496E697469616C697A6564212195
:1041B00021210A005845000008000020000200509C
:1041C0005461736B20496E697469616C697A6564C6
:1041D0002C4144432040256420487A0A0000000016
:1041E00009400000E941000010B5FFF70FFC10BDC9
:1041F00010B5FDF7DDFF10BD0146002904D00129EF
:1042000004D0072906D103E0002005E0022003E0E6
:10421000062001E0042000BF00BF7047F8B5064645
:104220000C46FCF7B8FB051E0F4600D001200143E9
:1042300049000B484908411AC90F0DD0002E01D082
:10424000012100E000210C4361004908401AC00F21
:1042500002D10120FEF7FEFD28463946F8BD0000D8
:104260000000F07F70B502460B46FF25FF2408E0F2
:104270001178521C61400748405C6840044606487B
:10428000455C18465E1EB3B20028F1D128022043D7
:1042900070BD0000E8450000E8460000002806D098
:1042A0000E4A526801231A430C4B5A6005E00B4A30
:1042B000526852085200094B5A60002906D0074A3A
:1042C000526802231A43054B5A6005E0034A5268BC
:1042D00002239A43014B5A6070470000008005405A
:1042E00010B501210846FFF7E7FD10BD10B502210A
:1042F0000120FFF7E1FD10BD01460020054A1278BC
:10430000002A06D0044A12780A700022014B1A7063
:104310000120704775000020740000200020024931
:104320000870012070470000750000200146012040
:10433000024A107002480170012070477500002089
:104340007400002010B50446012221460248FEF701
:1043500065FB012010BD000000800540F8B5074650
:104360001D460126002D04D0012D04D0022D06D1BA
:1043700003E0002403E0082401E0182400BF00BF8C
:10438000002E1AD0FDF78EF80D48FEF787F94B2165
:1043900009020C48FEF7E6FA0020182303224B21FD
:1043A000090200900748FEF753FB102001218140CD
:1043B000054A116000BFFDF78FF83046F8BD0000D8
:1043C000090000080080054000E100E001B501227D
:1043D00069460248FEF798FB012008BD00800540B1
:1043E00010B50446214606A0FEF7FEFC0123224636
:1043F000084801681846FFF7EFFC012010BD0000D7
:104400004D422074696D6520696E69743A25640DAA
:104410000A000000A400002038B500246846FFF719
:1044200091FF1D480078002806D001280AD00228F4
:104430001AD003282CD102E0FFF758FF28E0FFF73D
:1044400055FF25E000201549088069460A78134980
:104450000888411C114B198011490A5402200E4949
:104460000870FFF743FF13E00C480088FF2809DCC1
:1044700069460A7809490888411C084B198008498F
:104480000A5402E0032004490870FFF72FFF00BF21
:1044900000BF204638BD00007900002082000020C7
:1044A0004801002010B500240E480078002804D0F0
:1044B000022807D003280BD109E00020FFF736FFC0
:1044C000044606E00120FFF731FF044601E000E06A
:1044D00000BF00BFFFF704FF01200249087020461B
:1044E00010BD00007900002010B5002417480078A6
:1044F000002802D0012825D104E000210120FFF787
:10450000CDFE1FE01248008800280FD0114909682D
:104510000878FFF75BFF0F480068401C0D490860F2
:104520000B480088401E0A4908800AE00320FFF774
:10453000FDFE044600210120FFF7B0FE00200349E4
:10454000087000BF00BF204610BD000078000020AA
:10455000800000207C000020001BB700000000004D
:104560000000000000805101000000000400000075
:104570000C00000024000000000000000400000007
:104580002C000000000000000000000004000000FB
:104590002C00000000000000001BB700000000001D
:1045A00000000000000000000000000010270000D4
:1045B0000000000000805101001BB7000000000057
:1045C0000000000000805101001BB7000000000047
:1045D0000000000000805101001BB7000000000037
:1045E000000000000080510100C1814001C08041F5
:1045F00001C0804100C1814001C0804100C18140B3
:1046000000C1814001C0804101C0804100C18140A2
:1046100000C1814001C0804100C1814001C0804192
:1046200001C0804100C1814001C0804100C1814082
:1046300000C1814001C0804100C1814001C0804172
:1046400001C0804100C1814000C1814001C0804162
:1046500001C0804100C1814001C0804100C1814052
:1046600000C1814001C0804101C0804100C1814042
:1046700000C1814001C0804100C1814001C0804132
:1046800001C0804100C1814000C1814001C0804122
:1046900001C0804100C1814001C0804100C1814012
:1046A00000C1814001C0804100C1814001C0804102
:1046B00001C0804100C1814001C0804100C18140F2
:1046C00000C1814001C0804101C0804100C18140E2
:1046D00000C1814001C0804100C1814001C08041D2
:1046E00001C0804100C1814000C0C101C30302C2BA
:1046F000C60607C705C5C404CC0C0DCD0FCFCE0E22
:104700000ACACB0BC90908C8D81819D91BDBDA1A91
:104710001EDEDF1FDD1D1CDC14D4D515D71716D601
:10472000D21213D311D1D010F03031F133F3F23271
:1047300036F6F737F53534F43CFCFD3DFF3F3EFEE1
:10474000FA3A3BFB39F9F83828E8E929EB2B2AEA51
:10475000EE2E2FEF2DEDEC2CE42425E527E7E626C1
:1047600022E2E323E12120E0A06061A163A3A26231
:1047700066A6A767A56564A46CACAD6DAF6F6EAEA1
:10478000AA6A6BAB69A9A86878B8B979BB7B7ABA11
:10479000BE7E7FBF7DBDBC7CB47475B577B7B67681
:1047A00072B2B373B17170B05090915193535292F1
:1047B00096565797559594549C5C5D9D5F9F9E5E61
:1047C0005A9A9B5B99595898884849894B8B8A4AD1
:1047D0004E8E8F4F8D4D4C8C448485458747468641
:1047E00082424383418180400A464D435F52656166
:1047F00064206461746120766572696679206661FF
:10480000696C6564206174206164647265737320EF
:10481000307825782C20726561643D307825782CBD
:10482000206578706563743D307825780A00000053
:104830005048000000000020E4000000362E000078
:1048400034490000E400002084050000462E0000EA
:1048500080F0FA023200000080F0FA02001BB7007C
:104860000000000080F0FA021027000000000000A5
:104870000000000000000000008051010000000066
:10488000000000000000000000000000013344555B
:104890001000000000000000000000000000000008
:1048A0000000000000000000000000000000000008
:1048B00000000000000000000000000000000000F8
:1048C000C800000000000000000000000000000020
:1048D00000000000000002000000000000000000D6
:1048E00000000000000000000000000000000000C8
:1048F00000000000000000000000000000000000B8
:10490000030000003938000010000000C338000028
:104910000000000000000000000000000000000097
:104920001027000000000000000000000000000050
:044930000000000083
:04000005000000D522
:00000001FF
