:020000040000FA
:1000000068060020D5000000F5000000F7000000A1
:1000100000000000000000000000000000000000E0
:1000200000000000000000000000000007010000C8
:10003000000000000000000009010000651C000035
:100040000D0100000D0100000D0100000D01000078
:100050000D0100000D0100000D0100000D01000068
:100060000D010000AD1D00000D0100000D0100009C
:100070000D0100000D0100000D0100000D01000048
:10008000D11D00000D0100000D0100000D01000058
:100090000D0100000D0100000D0100000D01000028
:1000A0000D0100000D0100000D0100000D01000018
:1000B0000D0100000D0100000D0100000D01000008
:1000C0000348854600F08AFC00480047C936000016
:1000D0006806002012481349016013490160134962
:1000E0000160134A134911600021016012488047E2
:1000F00012480047FEE77046EFF30881EFF30982EC
:100100000F4B98470047FEE7FEE7FEE7FEE70000DB
:10011000ABBE0C4B7446984720477046F047000032
:100120000001005059000000160000008800000087
:1001300024000050A55A0000D11C0000C10000009E
:10014000651A0000A11A000030B50B4601460020D8
:100150002022012409E00D46D5409D4205D31D46CD
:100160009540491B2546954040191546521E002DC5
:10017000F1DC30BD70B500242546002801DA0124E9
:100180004042002901DA01254942FFF7DDFFAC4278
:1001900000D04042002C00D0494270BD03460B43C2
:1001A0009B0703D009E008C9121F08C0042AFAD22D
:1001B00003E00B780370401C491C521EF9D27047B3
:1001C000024670B54A40D30FDB0740002DD04A00ED
:1001D0002AD0010E140E000212020919400A520A16
:1001E0008418E50104465443000A120A2E045043C1
:1001F000A4194219200CC543AA18120C0125AD03FD
:10020000521C521912047F39240400D0521C10438E
:1002100001D44000491EC2B20C06C0092018401C7F
:100220004008802A02D003E0002070BD4008400052
:10023000002900DA0020184370BD70B502464A401C
:10024000D50F40004A00ED0740085208002814D09E
:10025000002A12D0C40DD30D41020120C005520264
:10026000490A520AE41A091812187D34914201D33E
:10027000641C00E04900002C01DA002070BD00235E
:10028000914201D3891A0343400849000028F7D15D
:1002900000290AD0914202D10121C90705E091420B
:1002A00001D2012101E00121C943E005C018401934
:1002B00000F083FA70BD0000F0B5074608465840CC
:1002C00087B0C00F049048000E4659004008490806
:1002D000BC1A884105D2384631461E4617460B46A1
:1002E00002465800400810434CD0300D03904005A2
:1002F0005900400D490D0590401A0290402872DACD
:1003000018030121000B090508430190049800928D
:10031000002805D0019952420020884100920190A6
:10032000029840210A1A0199009800F023FA054624
:100330000C466B4607CB00F02DFAC0197141039AA9
:100340000E0D0023D71756401A467A40164344D064
:10035000049A002A2DD0029A012A039A15DC12056C
:10036000C01A914101263605001C7141D20F059E2D
:10037000D2070093019202962A46234600F06BFAB8
:1003800007B0F0BD38463146FAE71605224A0F4657
:10039000B218C01AB74101210905001C4F410018CD
:1003A0007F41114618187941E20F10436D196441DD
:1003B00013E0E2076D0815436408C2071443039A6B
:1003C00001261205C01A91413605001C7141CE0765
:1003D000400830434908C01851412A46234600F0DE
:1003E0002DFACDE7FFE7049801224000C117121A49
:1003F00000238B4104983146C417381AA141EEE717
:1004000030B40124E407634030BC55E730B4012424
:10041000E407614030BC4FE70000E0FFF0B51FB4D7
:1004200088B00B990998002448400999C00F4900E9
:1004300049080991C0070B990090490049080B91A0
:1004400009990898A64608431CD00B990A980843B6
:1004500018D0099801244000420D4800410D099828
:1004600024050003000B204309900B980003000BA8
:1004700020430B9050181C4940180022019014464C
:10048000104605E0002001460DB0F0BD032801DA5A
:10049000034600E003239C46C11A0AAE0AE05F004F
:1004A00008ADED5B4F00F75B7D430027AA187C4148
:1004B000491C5B1E6145F2DD410004AB5A52210428
:1004C000120C0A43240C401C0828DFDB0198029020
:1004D0000099704601910090059B049A079906982F
:1004E00000F0B9F9D0E700000DFCFFFFF0B50C46B5
:1004F0005C4085B0E40FE40703944C0000266408D8
:1005000059009446490802460296224321D0624689
:100510000A431ED06200570D4A000E032303550DF7
:10052000012402462C492405781B1B0B360B40186E
:1005300023432643614600901C46501AB44103D31E
:100540000098401C009002E0921800985B4100283F
:1005500003DA0020014605B0F0BD002001210905A5
:100560000746864611E064461D46141BB54106D376
:100570006546521BB341744607430C43A646CD075C
:1005800040084908284392185B4105460D43EAD1CB
:100590001046184313D06046194650407140084336
:1005A00006D06046101AB34106D20122002306E0AD
:1005B00000220123DB0702E00122D24353100098FE
:1005C00074460105381C6141029C039D0019694174
:1005D00000F034F9BFE70000FD03000010B5002271
:1005E0009623114600F0F1F810BD00000EB5C217B9
:1005F000C10F5040CA0740180021054B02930192D9
:1006000000910A460B4600F026F903B000BD000039
:1006100033040000410040020122400AD205090EC5
:1006200080187F2901DA00207047962903DC962282
:10063000511AC8407047963988407047C20FD20798
:10064000400040080BD0C10D0723DB01C918400250
:100650000905400A1143C2084007114370470020B2
:100660000146704710B5002904DB0124E40740422D
:100670008C412146002B04DB1C460123DB07524240
:10068000A3418B4200D1824210BD000010B5002969
:1006900004DB0124E40740428C412146002B04DBAB
:1006A0001C460123DB075242A341994200D19042EC
:1006B00010BD0000CB0FDB07490010B5490802460A
:1006C0000A4307D00A0D07240903E401090B121B92
:1006D000002A01DC002010BDC900440F0C43C100FA
:1006E000E018D205801800F068F810BD0122D2078A
:1006F000002800DB101A002900DB511A81427047E4
:100700000122D207002800DB101A002900DB511A51
:1007100088427047F0B51FB40646002082B00546F7
:100720004024019100901BE0019922460F4630467B
:1007300000F066F9049A059B801A994110D310467F
:100740001946224600F016F8361A8F4101972246C4
:1007500001200021009F00F00DF838184D41009055
:100760002046641E0028DFDC019B009829463246A3
:1007700007B0F0BD10B5202A04DB0146203A9140B5
:10078000002010BD914020239C1A0346E3401943EA
:10079000904010BD10B5202A06DBCB170846203A42
:1007A0001041C1170B4306E00B461341D0402024F3
:1007B000A21A91400843194610BD002904DA401CD2
:1007C000490001D140084000704770B40024050C76
:1007D00005D11024000402D1002921D01124050ED6
:1007E00001D100020834050F01D10001241D850F3D
:1007F00001D18000A41C002801DB4000641C0029FA
:1008000008D020252E1B0D46F540A14000D0012127
:100810002943084301061B1B000ADB1D02D50020EB
:1008200070BC7047DB05181880180029F8DA401CE6
:100830004900F5D170BC40084000704710B5002B4E
:1008400008DA0024401C614192185B411A4301D12F
:100850004008400010BDF0B51FB482B005460C0042
:1008600003D0084601F058FC02E001F055FC2030AE
:100870000246009021462846FFF77CFF049B059A1C
:1008800004460F4618431143084314D0184610433A
:100890001BD0009840210A1A1846059900F0B0F8BC
:1008A00005460E46009A05990498FFF763FF084332
:1008B00005D0012004E02046394607B0F0BD0020F5
:1008C000C11705430E432C43374300990E98630527
:1008D000401A7905E40A00220C43FD0A0A3002D5C9
:1008E00000200146E9E70105101969410C9C0D9DA6
:1008F00000196941FFF7A2FFDFE7FEB500231A46A2
:100900001B1A8A4103DB0020014603B0F0BD4A00F8
:100910000D0301212D0B0905520D0D43D10702D105
:1009200000186D41521E5110FF31FF310131002777
:1009300004463E46384600970191024601210020B8
:10094000090500F05DF8C3197141F8183246844674
:100950008E464A4161462846611A904104D360465A
:10096000241A954176461F46241900986D41401C73
:1009700000903428E1DDF91930467041091BA84187
:1009800003D20022D243134601E00022134601980D
:100990000105381C7141FFF751FFB6E74A00090312
:1009A0000123090B1B0519430A4B10B5520D9A423E
:1009B00002DA0020014610BD064B34339A4203DCB4
:1009C0009A1A00F01DF810BD034BD218FFF7D2FEA3
:1009D00010BD0000FF030000CDFBFFFF064C01250A
:1009E000064E05E0E36807CC2B430C3C98471034D7
:1009F000B442F7D3FFF768FBD03D0000F03D0000A4
:100A000010B5202A04DB0846203AD040002110BD52
:100A10000B46D340D0402024A21A914008431946E7
:100A200010BD000030B5046A054D2C400C43144342
:100A30000462446A240A24021C43446230BD00005C
:100A4000F3FBFFFFF3B585B0069D0027002004905F
:100A50000120000303900026002002900190059CD5
:100A600000BF00BF0FE021880498814201DD20888B
:100A7000049021880398814201DA2088039020881D
:100A80008619A41C7F1CAF42EDDBA91E049AB31A81
:100A9000039A981AFFF76EFB0646059C002713E0A1
:100AA000218830463230814208DA21886438814218
:100AB00004DD0298401C80B2029003E00198401CC3
:100AC00080B20190A41C7F1CE90F49194910B9425A
:100AD000E6DC0298C10F09184A1001998A4201DA2E
:100AE0000026F643304607B0F0BD0000FFB585B0E4
:100AF00004460D460126514802905148844205D1D2
:100B00005048406BB1040840049005E04D48406BEC
:100B10000121C904084004900498002803D100F082
:100B2000CDF9039004E001F0A1F847480068039074
:100B3000012612E007990398FFF706FB3146019062
:100B4000FFF702FB0746012109048F4200D902E0AA
:100B5000B8B2029004E0701C86B23C488642E9DBE1
:100B600000BF0298704301460398FFF7EDFA07466D
:100B7000701E80B206466061012060600298401ECF
:100B800080B202902063089800282ED0029A521C4E
:100B90000899514308466421FFF7D6FA401EAA007F
:100BA000214650318850B02001596A0028489040B1
:100BB0008143B020015100596900103101228A405F
:100BC0001043B0210851B42000596A0020499140D7
:100BD0008843B4210851B420005969001031022221
:100BE0008A401043B421085125E00021AA00204684
:100BF00050308150B02000596A0015499140884317
:100C0000B0210851B0200059690001228A401043E8
:100C1000B0210851B42000596A000D499140884321
:100C2000B4210851B42001596800103002228240DA
:100C30001143B4200151384609B0F0BDFFFF000058
:100C4000004004400002005000000020FF0F0000A0
:100C500003000300D82212580A43D8231A507047C1
:100C60000122026270470022026370471FB50C4CDC
:100C70001ECC03946C460EC4810F89006A465158FD
:100C8000084A89184968C306DB0E01229A401143BD
:100C9000820F92006B469A58024BD21851601FBDCA
:100CA000603B000000020050F3B589B00C46012003
:100CB000000453490862099800280ED108460068CC
:100CC000012108434E490860012000F071FA00201C
:100CD00006904C48089002250EE04948006804211F
:100CE000084347490860102000F062FA0120C00460
:100CF00006904548089004254448844204D8401092
:100D0000844201D9002712E04148844205D84010AE
:100D1000844202D90127640009E03E48844205D894
:100D20004010844202D30327A40000E057E00020D3
:100D3000C043039000200190029034E029460898B7
:100D4000FFF702FA05903449059888422AD93349B9
:100D50000598884226D2022007901EE0059E07993A
:100D60004E432B48864215D34000864212D8A642F5
:100D700001D9301B00E0A01B04900399049888421D
:100D800008D20498039001950798029003980028D0
:100D900000D106E00798401C079021490798884237
:100DA000DCD900BF6D1C212DC8D9B80306990843B2
:100DB0000199891E490208430299891E0843104976
:100DC0000862042000F0F4F9781C019A50430146AF
:100DD0000898FFF7B9F9029948430BB0F0BD09989C
:100DE000002803D10F480649086202E00E48044972
:100DF0000862042000F0DCF900F0A0F8EDE7000044
:100E000000020050001BB7000080510100C2EB0B34
:100E100000E1F50580F0FA02006A1800C0E1E40084
:100E2000010200002EC200006FD6080002490968C6
:100E30000143014A1160704700020050FEB50020D6
:100E400002901AA0006800901948046A001320401C
:100E5000002801D00020FEBD0120C0042040002851
:100E600001D0144D00E0144D012040042040002822
:100E700001D02846EFE7032080032040800B69461D
:100E80000A5C0192E005C00D861C1F204002204034
:100E9000400A871C019A7A431146AA0872431046F9
:100EA000FFF752F9800002900298D4E70102020491
:100EB0000002005000805101001BB700FEB5002069
:100EC00002901AA0006800901948046A001320409C
:100ED000002801D00020FEBD0120C00420400028D1
:100EE00001D0144D00E0144D0120400420400028A2
:100EF00001D02846EFE7032080032040800B69469D
:100F00000A5C0192E005C00D861C1F2040022040B3
:100F1000400A871C019A7A431146AA087243104678
:100F2000FFF712F9800002900298D4E70102020450
:100F30000002005000805101001BB700FEB50020E8
:100F400002901AA0006800901948046A001320401B
:100F5000002801D00020FEBD0120C0042040002850
:100F600001D0144D00E0144D012040042040002821
:100F700001D02846EFE7032080032040800B69461C
:100F80000A5C0192E005C00D861C1F204002204033
:100F9000400A871C019A7A431146AA0872431046F8
:100FA000FFF7D2F8800002900298D4E70102020411
:100FB0000002005000805101001BB700FEB5002068
:100FC00002901AA0006800901948046A001320409B
:100FD000002801D00020FEBD0120C00420400028D0
:100FE00001D0144D00E0144D0120400420400028A1
:100FF00001D02846EFE7032080032040800B69469C
:101000000A5C0192E005C00D861C1F2040022040B2
:10101000400A871C019A7A431146AA087243104677
:10102000FFF792F8800002900298D4E701020204D0
:101030000002005000805101001BB70070B504464B
:101040002248C0681021084005462148844200D942
:1010500004462048844200D204461C48006804210B
:1010600008431A490860102000F0A2F817480069E8
:1010700007210843154908610846806900090001F5
:1010800088610846C068C007C00F002805D061000D
:101090000020FFF709FE04460AE061000120C004B9
:1010A000FFF702FE04460948C068102108400546C3
:1010B0000121022000F010F8002D05D1034800683E
:1010C0000421884301490860600870BD0002005097
:1010D00080F0FA0240787D0170B504460D4616484E
:1010E000C0681021084006461348006804210843E0
:1010F00011490860102000F05BF80F480069C00833
:10110000C000C01D0C490861084680690009000143
:101110002843886108460069C008C0002043086170
:1011200000F0A4FD002E05D1034800680421884387
:101130000149086070BD000000020050F7B584B09E
:1011400000220023184C2546E0CDE4680297019662
:10115000009503948403240E002C0ED00403A40FE6
:10116000A400124D63198403250E8405E40EA540E6
:101170001C68AC43069D2C431C600401640F002CCA
:1011800010D08400A40FA4006D462C59074D083DD3
:1011900062190401650FC401E40EA5401468AC4354
:1011A0000C43146007B0F0BD503B00001802005023
:1011B000014608480068420805E01046521E002813
:1011C00001DC002070470448C06808408842F4D120
:1011D0000120F7E7000000200002005010B504488D
:1011E00000F006FDE1214902024800F00BFE10BDAF
:1011F000110000040000154008B509E00C21009121
:1012000002E00099491E009100990029F9D1401E81
:101210000028F3D108BD70B50446204600F032F82E
:101220000520FFF7E9FF204600F010F80520FFF742
:10123000E3FF204600F042F80546204600F014F88F
:101240000520FFF7D9FF284670BD0000012803D113
:101250000121044A516004E0022802D10121014A1F
:101260009160704740420050012803D10021044A98
:10127000516004E0022802D10021014A91607047C8
:1012800040420050012803D10121044A116004E0CA
:10129000022802D10121014AD1607047404200502A
:1012A000012803D10021044A116004E0022802D180
:1012B0000021014AD16070474042005001460020A1
:1012C000012903D1044A1268D0B204E0022902D1F4
:1012D000014AD268D0B270474042005070B506460D
:1012E0000D46002419E0802020412840002803D02A
:1012F0003046FFF7C7FF02E03046FFF7D1FF304628
:10130000FFF7A4FF0520FFF777FF3046FFF7ACFF9C
:101310000520FFF771FF601CC4B2082CE3DB70BD31
:1013200010B504462046FFF7ADFF2046FFF78EFFBD
:101330000520FFF761FF2046FFF7B2FF0520FFF70A
:101340005BFF2046FFF790FF0520FFF755FF10BD1C
:1013500010B504462046FFF7A3FF2046FFF776FFAF
:101360000520FFF749FF2046FFF78CFF0520FFF718
:1013700043FF10BD00BFEFF31081084672B6084965
:101380000978002906D1002801D1012100E00021BF
:10139000044A117002490978491C014A11707047CA
:1013A0007B0000207A00002007480078401E064994
:1013B000087008460078002804D104480078002806
:1013C00000D062B6704700007B0000207A00002049
:1013D00070B5034600200FE0012484400C40002C2F
:1013E00009D01C6846000325B540AC4346001546AD
:1013F000B5402C431C60401C1028EDD370BD00008C
:10140000F1B590B07D21C900234A0020105EFEF79F
:10141000B1FE0446FFF7EAF80D910C901F49002039
:10142000085EFFF7E3F8079106901098FFF7D6F8EB
:101430000190FFF703F90446194A1A4BFEF7EEFF35
:1014400006460022184BFFF751F80022174B039174
:101450000290FEF7E3FF05910490079B069AFEF7C2
:10146000DDFF0022124B09910890FFF73FF80B9126
:101470000A900D9B0C9AFEF71FFF0F910E90FFF73D
:1014800019F90C4908600846006801F0D5FA0A49C4
:10149000086011B0F0BD0000D2000020D000002094
:1014A000F54A59863866444000FEAF4000001440BB
:1014B0000088C340D4000020D800002010B5244884
:1014C000007800280AD12348006A0121C902084394
:1014D0002049086201201E49087037E01C48007846
:1014E000012833D100240FE0601D80001949401805
:1014F000006881B214206043174A8018174A127896
:1015000052008152601CC4B2022CEDDB0A21134848
:101510000078401CFEF72EFEC8B21049087000206B
:101520000B4908700D48007800280FD10A210A489D
:10153000FFF788FA0A4908800A2107481430FFF7A4
:1015400081FA074948800888FFF75AFF10BD00005C
:101550006400002000000E402001002065000020F3
:101560006000002010B50648006A012108430449C4
:1015700008626023082200210148FFF753FA10BDDA
:1015800000000E40F8B5074600213846FFF7AEF8D8
:1015900004D325493846FFF7B3F804D223A000F05E
:1015A000ABFD0120F8BD00240020009028493846FA
:1015B000FEF706FE06461C49FEF73FFE0546FFF70E
:1015C00029F8C4B29A2168460170211141702007A0
:1015D000010E684681700120FFF7A2FE684601787F
:1015E0000120FFF77BFE0120FFF715FE68464178DA
:1015F0000120FFF773FE0120FFF70DFE684681789A
:101600000120FFF76BFE0120FFF705FE0120FFF729
:101610009FFE3846FFF712F805462A460B460DA0F6
:1016200000F06AFD0020BDE70000A0404572726F27
:10163000723A20566F6C74616765206F7574206F05
:10164000662072616E67652028302D3556290A00A4
:1016500000007F434441433120766F6C74616765BD
:101660002073657420746F3A20256620560A0000A6
:10167000F8B5074600213846FFF738F804D3254966
:101680003846FFF73DF804D223A000F035FD0120D5
:10169000F8BD00240020009028493846FEF790FD50
:1016A00006461C49FEF7C9FD0546FEF7B3FFC4B266
:1016B0009A2168460170211141702007010E684689
:1016C00081700220FFF72CFE684601780220FFF7A8
:1016D00005FE0220FFF79FFD684641780220FFF7D4
:1016E000FDFD0220FFF797FD684681780220FFF795
:1016F000F5FD0220FFF78FFD0220FFF729FE384697
:10170000FEF79CFF05462A460B460DA000F0F4FCB0
:101710000020BDE70000A0404572726F723A20566B
:101720006F6C74616765206F7574206F66207261DD
:101730006E67652028302D3556290A0000007F434A
:101740004441433220766F6C746167652073657421
:1017500020746F3A20256620560A00000148406830
:10176000704700006C00002010B50446322322466A
:1017700002210348FFF7BAF90248446010BD000097
:10178000004014406C000020014840787047000081
:101790006C00002001480078704700006C000020B9
:1017A00010B5012211020848FFF712FE0020074978
:1017B00008623223064A02210648FFF797F90421FE
:1017C0000448FFF747FA10BD404100504043005025
:1017D0003075000000401440002805D10021054A62
:1017E0001162054A517004E00121024A1162024A65
:1017F00051707047404300506C00002010B5042128
:101800000348FFF72DFA01200249087010BD0000BF
:10181000004014406C00002010B504210348FFF77D
:1018200022FA00200249087010BD00000040144058
:101830006C00002010B500242CE00C2060431749F8
:1018400040188068002823D00C206043085C0228E0
:101850001ED10C20604340184088401C81B20C20EF
:1018600060430E4A801841800C20604311464018A6
:1018700041880C20604380188088814208DB012168
:101880000C20604311540C216143891888688047FB
:10189000601CC4B2022CD0DB10BD00000801002087
:1018A0000248034908800120488070473333000014
:1018B0004802002008B50020E1235B020422312108
:1018C000009001F0CDF9FFF7EBFF01F02FF908BD13
:1018D00010B5002819DA1A4A03071B0F083B9B08AA
:1018E0009B00D2588307DC0EFF23A3409A438B074B
:1018F0001B0E8407E40EA3401A43114B0407240F68
:10190000083CA408A4001A5118E00E4A03231B0245
:10191000D21883089B00D2588307DC0EFF23A34014
:101920009A438B071B0E8407E40EA3401A43054B12
:10193000032424021B198408A4001A5110BD0000BE
:101940001CED00E000E100E003490968002901D135
:10195000014908607047000034000020002027E0A3
:101960000C214143144A515800291FD00C214143F6
:1019700089180989491C8AB20C2141430E4BC918A8
:101980000A810C2141431A4689180A890C214143D6
:10199000C918C9888A4209DB00220C214143C918B1
:1019A0000A8101220C214143C9180A71411CC8B2A5
:1019B0000328D5DB70470000E400002070B50C243C
:1019C00044430C4D2C59002C12D10C244443295172
:1019D00000250C244443074EA41925710C244443CC
:1019E00035466419E28000250C244443A41925815E
:1019F00070BD0000E400002016E0002412E00C207E
:101A000060430A4940180079012809D100210C20BF
:101A10006043064A801801710C2161435058804789
:101A2000601CC4B2032CEADBE7E70000E4000020FE
:101A3000002012E000220C214143094B5A500C2196
:101A40004143C9180A710C214143C918CA800C21AD
:101A50004143C9180A81411CC8B20328EADB704718
:101A6000E4000020F8B505460E461746042028403D
:101A7000002801D03C4600E0344605A000F03CFBC5
:101A800000BF0121206808430028FAD12846F8BD8C
:101A90002020486172644661756C74210A0A000056
:101AA000034600207047000010B50420FFF7BEF980
:101AB0001020FFF77DFB00210720FFF70DFB012021
:101AC000FFF7B4F90120FFF773FB4048FFF7B6FAC0
:101AD0003F48FFF7CBF83F48FFF7C8F83E48FFF70D
:101AE000C5F83E48FFF7C2F83D48FFF7BFF80022AF
:101AF00011463748FFF722FB002211463548FFF711
:101B00001DFB0022012149033348FFF717FB312257
:101B1000120408213148FFF711FB0022114630481A
:101B2000FFF70CFB2F4800F063F805200007406B1F
:101B3000302188430521090748630846406B30215E
:101B400008430521090748630846806BC021884384
:101B50000521090788630846806BC02108430521D9
:101B600009078863204840680321490508431E4946
:101B7000486005200007006B6021884305210907A4
:101B800008630846006B60210843052109070863C4
:101B90000846406BFF21013188430521090748634E
:101BA0000846406BFF2101310843052109074863BE
:101BB0000E48006A0121090588430C49086208465D
:101BC000006A890308430949086210BD80F0FA02DF
:101BD000113D8057093D80970300C05E1CFE2356CF
:101BE000130030B3130000080040005040000050C4
:101BF000010E0522120789188968012282401143CB
:101C0000020E05231B07D2189160010E1A4689188F
:101C10008A68012181408A43010EC9188A60704791
:101C200000B50346184600F001F800BDC1B20A290C
:101C30000AD100BF0A4989690122D2051140002951
:101C4000F8D10D21064A116000BF054989690122BA
:101C5000D20511400029F8D1014908607047000001
:101C60000000154010B5FFF779FE10BD70B5FFF705
:101C7000E5F8114908601148006945076D0F022D0C
:101C800003D0A8000E490C5801E00B4804680B482B
:101C900080690007000F461C31462046FEF754FAC3
:101CA000084908600849074800684A108018FEF78C
:101CB0004BFA0649086070BD080000200002005081
:101CC0000C0000200000002040420F000400002013
:101CD0007047000030B589B005462022194901A897
:101CE000FEF75CFA1848854206D11848406907217A
:101CF00009020840040A1AE013482030854206D140
:101D000012484069072109030840040B0FE01048FE
:101D1000854206D10D484069072109040840040C9A
:101D200005E00A484069072109050840040D022C16
:101D300003D10848006809B030BDA00001A90858C7
:101D4000F9E70000803B0000000001400002005065
:101D50000000114000000020F7B582B0064617468B
:101D60003046FFF7B7FF0190002400250198400896
:101D7000B84201D202240CE039460198FEF7E4F99A
:101D80000446250E002D04D0691C2046FEF7DCF920
:101D900004460398284330607460681C6043014621
:101DA0000198FEF7D1F905B0F0BD000010B500BFF5
:101DB00006488068C007C00F002806D000BF012079
:101DC0000249886000BFFFF735FD10BD20000140CB
:101DD00010B50948C46980152040002802D0074882
:101DE00000688047012040022040002802D00448BB
:101DF0000068804710BD000000800540A000002062
:101E0000A4000020F0B587B004460D4627480146DF
:101E10000EC9C06803AE0EC606900020029024488A
:101E20004069032109060840060E214880690F21F8
:101E300009020840070A002020630320E060A06830
:101E40001C490840A060012E04D1FFF7B7F8B1008B
:101E500003AA5050002D26D0B10003AA5058791C77
:101E6000FEF772F96908401829460190FEF76CF9EF
:101E7000801E02901049029888420FD9B10003AA2F
:101E80005058791CFEF760F9E90040182946019086
:101E9000FEF75AF90009801E606204E00321090779
:101EA00002980843606207B0F0BD0000A03B00004C
:101EB000000200500FFFF0FFFFFF000070B5034667
:101EC000002010E0002405E0641C0125AD07AC42B1
:101ED00000D370BD9D690126B6033540002DF3D1B6
:101EE0001D680D54401C9042ECD300BFF1E770B563
:101EF0000346002011E0002405E0641C0125AD0725
:101F0000AC4200D370BD9D690126F6053540ED0D4C
:101F1000002DF2D10D5C1D60401C9042EBD100BF42
:101F2000F0E7000070B50446022C08D1354800786F
:101F300000023549097808433449888060E0032C61
:101F400004D1334800883149C88059E0042C04D1B9
:101F50002F4840882D49088152E0052C04D12D4896
:101F600000882A4948814BE0062C04D12A48008881
:101F70002649888144E0072C0AD12849284800686E
:101F8000FEF71EF90546FEF745FB2049C88137E0FC
:101F9000082C0AD1234924480068FEF711F90546A8
:101FA000FEF738FB194908822AE0092C08D1FFF70F
:101FB000F1FB0502FFF7E8FB0543144845821FE0EB
:101FC0000A2C01D1012000E000200B210843002849
:101FD00009D0FFF7C3FB000C0C498882FFF7BEFB5A
:101FE0000A49C8820CE00C2C04D11048008807492B
:101FF000088305E00D2C03D10C4840880349488331
:1020000070BD00003F00002040000020480200207A
:1020100060000020D0000020D20000200000C84254
:10202000D400002000002041D800002074000020CF
:10203000F8B505460C460026022D02D128490C7041
:102040004CE0052D03D120B22649088046E0062D3C
:1020500003D120B22449088040E0092D0DD1FF2092
:1020600000022040002802D0FFF7C8FB01E0FFF784
:10207000D3FBE0B2FFF7B0FB30E00A2D03D1200420
:102080001A4908602AE00B2D09D11848006820433E
:102090001649086008460068FFF766FB1EE00C2D35
:1020A0000CD1134804802046FEF798FA114900909D
:1020B000FEF7C3F80746FFF765FA0FE00D2D0CD1C8
:1020C0000B4844802046FEF789FA0A490090FEF743
:1020D000B4F80746FFF7CCFA00E002263046F8BD18
:1020E00040000020D0000020D2000020DC000020B2
:1020F0007400002000007A440FB410B503A9044B0B
:10210000044A029800F0FCF810BC08BC04B0184760
:10211000793000002C0000202021020C01D0102179
:102120001046020A01D010460839020901D01046B3
:10213000091F820801D01046891E420801D0881E5E
:102140007047081A704730B47446641E2578641CC2
:10215000AB4204D3635D5B00E31830BC18471D46F7
:10216000F8E702E008C8121F08C1002AFAD1704738
:102170007047002001E001C1121F002AFBD1704707
:102180000149086070470000E0000020F0B51FB46E
:1021900086B00998089A030D0021024314D05148D3
:1021A000514A1818504305141198012810981AD054
:1021B000281A401C00264D4F4D490096019104906D
:1021C000002812DA444211E01198012449A30128A1
:1021D00001D11098C1430698119A84600360C260CF
:1021E00041600BB0F0BD4042E4E704462105002009
:1021F0003F4A001C51410391029012E0E00707D0D2
:1022000032463B4601990098FEF708F9019100908B
:1022100032463B4610461946FEF700F906460F4681
:102220006410002CEAD10498039B0028029A0999B3
:10223000089806DAFEF7F2F8019B009AFEF7EEF82E
:1022400005E0FEF753F9019B009AFEF74FF90446AB
:102250000E460022284BFEF719FA03D80020C0438F
:10226000014607E00022254B20463146FEF724F8C0
:10227000FEF794FB102409E0002C0ADB0A2200235D
:10228000FEF748FA079B30321A55641E02460A438D
:10229000F2D11122641C079B121B1C19119B012BEC
:1022A00003D0012308430ED10AE0084304D01120D3
:1022B00010900020119077E71098151A6D1E0BE012
:1022C0001098824202DD00236D1C03E0824201DA95
:1022D00000236D1E002BEED0069811998260C1601C
:1022E00030C07EE701FCFFFF104D000000001440ED
:1022F0000000F03F300000000000F0430000E03F2D
:10230000FFB597B00646002518E2252877D10024AE
:102310002746FD49049400E00443761C32780120EE
:10232000203A90400842F7D130782A280ED0022275
:10233000307801463039092916D804990A235943BF
:10234000303940181443761C0490F1E7189802C8FD
:1023500004911890002904DA012040030443484204
:10236000049002200443761C30782E2814D10420D7
:1023700004437078761C2A2809D11898761C80C8E6
:10238000189009E00A214F43303FC719761C307876
:10239000014630390929F5D930786C2810D006DC8F
:1023A0004C281AD068280ED06A2817D104E0742867
:1023B00013D07A2812D110E00120400504430CE02C
:1023C0000121090501E0032109050C4371788142CF
:1023D00003D1012000052418761C761C307811905A
:1023E00066280BD013DC58287DD009DC00287BD070
:1023F0004528F6D04628F4D047281AD1A5E118E0A0
:10240000632835D0642870D0652812D19DE17028EA
:102410006CD008DC6728F1D069287BD06E280DD0FD
:102420006F2806D1BAE073282ED0752871D078288D
:1024300059D01A9A199990476D1C7EE16002400F9D
:10244000022809D003280DD00428189801680DD05F
:102450000D60001D189070E11898EA1701680D6072
:102460004A60F6E7189801680D80F2E70D70F0E712
:1024700018986A4601781172001D18900020507259
:1024800002A80090012005E0189802C818900020CA
:102490000091C04361070DD5002101E00199491C5D
:1024A0000191B94212DA8142F8DB009A515C0029AD
:1024B000F4D10BE0002101E00199491C0191814216
:1024C000FADB019A0099895C0029F5D101990498F9
:1024D0001A9B471A21463846199A00F097FA019933
:1024E000401945180BE04FE02CE113E04EE0009856
:1024F00000990078491C00911A9A199990470198FF
:10250000401E0190401CF2D1214638461A9B199A70
:1025100010E137E00A200021009001916002410F94
:10252000022907D0189A01CA1892C21794460329A3
:1025300008D00AE01898C01DC108C90005C9189143
:10254000944607E000B2C2179446042902D140B273
:10255000C1178C4600226146944506DA0A460021DE
:10256000404291418C462D2102E0210504D52B21CA
:102570006A461173012103E0E10701D02021F7E74A
:10258000029155E00A200AE0102008E01020009097
:102590000021042004430191082703E008200021C2
:1025A000019100906002410F022907D0189A01CAD8
:1025B000189200229446032908D008E01898C01DFC
:1025C000C108C90005C91891944603E080B20429E6
:1025D00000D1C0B200210291210729D5119970299B
:1025E00006D0009A1021019B4A401A4305D00EE004
:1025F00040216A461173012108E06146014306D07B
:1026000030216A4611731199517302210291009A87
:102610000821019B4A401A430AD16146014301D176
:10262000610705D530216A46117301217F1E029191
:102630001199582904D035A10E910DA90D910DE0E5
:1026400037A1F9E76146019B009AFEF763F80E9BFC
:102650008C469B5C0D9A521E0D921370614601438D
:10266000F0D10D9805A9081A20300190600703D514
:1026700001200004844300E001270198874201DD26
:10268000381A00E0002001990090411802980918BA
:102690000498401A0490E00306D421461A9B199A24
:1026A000049800F0B3F94519002706E003A81A9A28
:1026B000C05D199990476D1C7F1C02988742F5DB1D
:1026C000E0030CD521461A9B199A049800F09EF954
:1026D000451904E01A9A3020199990476D1C009909
:1026E000481E00900029F5DC08E00D980D9900784F
:1026F000491C0D911A9A199990476D1C0199481E11
:1027000001900029F1DC63E1092801003031323306
:10271000343536373839616263646566000000001D
:102720003031323334353637383941424344454607
:102730000000000000F05AF94519761C3078002896
:1027400000D0E2E528461BB0F0BD600700D40627A4
:102750001898C01DC108C90048680A680831C30F2D
:10276000DB071891190001D09CA108E0210501D5D3
:102770009BA104E0E10701D09AA100E09AA14300E7
:1027800011985B08109165280CD006DC452809D00B
:1027900046281DD0472841D141E0662818D0672837
:1027A0003CD13CE00021112F01DB112000E0781C1E
:1027B0000191009008A911A8FFF7E8FC1399059171
:1027C0000021119A15927F1C12980197009150E0F8
:1027D0000120C00703900120019008A9009711A8CB
:1027E000FFF7D4FC139A149905920022119B0092D2
:1027F00012981593059A0192002901D0104602E023
:10280000791C40180190381A01D5019804E0404223
:10281000401E0090781C0190C01B029043E0012FE5
:1028200000DA01270021112F01DD112000E03846D8
:102830000191009008A911A8FFF7A8FC1399059130
:10284000119A0021129815920091019721070CD43A
:102850000599B94201DB019900E00191012904DDEC
:10286000159A491E515C302906D0B84201DA011D83
:1028700005DA0121029115E00199491EEDE70028D2
:1028800005DC0099411800910199091A03E0019AA9
:10289000411C914200DD01910099401A401C0290B8
:1028A0000120C0070390200706D4029901988142B5
:1028B00002DB0020C043029000206946C87707AFC2
:1028C000012103980337C907884224D002201190C0
:1028D0002B201290039800280CDA404203902D2000
:1028E000129007E00A210398FDF72EFC30317F1E7D
:1028F000039039701199481E11900029F2DC039859
:102900000028EFD1791E12980870307820210840F5
:102910004530BF1E387006A8C01BC01D039010981C
:102920000078002800D00120019941180298C017B2
:102930000918039809180498401A401E0490E003EF
:1029400006D421461A9B199A049800F05FF845199D
:1029500010980078002803D01A9A199990476D1C96
:10296000E00324D521461A9B199A049800F04EF8EA
:1029700045191CE00098002807DB0099059888425B
:1029800003DD1598405C199901E0199930201A9AD5
:10299000904700986D1C401C00900298401E0290C9
:1029A000002804D11A9A2E20199990476D1C01997C
:1029B000481E01900029DDDC05E038781A9A7F1C5A
:1029C000199990476D1C0399481E03900029F4DC67
:1029D00021461A9B199A0498ACE600002D000000CD
:1029E0002B0000002000000000000000F8B50446A5
:1029F00000251E461746880404D405E039462020E9
:102A0000B0476D1C641EF9D52846F8BDFFB50446D5
:102A1000002581B01E46C80301D5302700E02027DD
:102A2000880404D505E038460399B0476D1C641E40
:102A3000F9D5284605B0F0BDF0B58FB00746384649
:102A4000FDF7FCFD0546224A224BFDF70BFE08D39D
:102A50003846FDF7F3FD05461F4A204BFDF716FEED
:102A600005D21FA0FFF748FB26480FB0F0BD38463F
:102A7000FDF7E4FD05460022234BFDF737FD00225C
:102A8000224B01910090FDF7C1FC214A214B03919B
:102A90000290FDF7C3FC204A204B05910490FDF7FE
:102AA000B5FC0791069000F0C5FE1D4A1D4B09912B
:102AB0000890FDF701FC164A1B4B0B910A90FDF79D
:102AC00015FD0D910C90FDF7F5FD04462046CCE771
:102AD00085EB51B81E85324048E17A14AE677840E4
:102AE0004572726F723A20526573697374616E63D6
:102AF00065206F7574206F662072616E6765210AAC
:102B00000000000000C079C4000059400000F03F00
:102B100088CE19EEAF60C3BED828C9DF4C04F03EA2
:102B20001C64ED4A260270BFAF60B3BE10B500242E
:102B300008480078012809D107A0FFF7DDFA094805
:102B40000068804700200349087000E00624204602
:102B500010BD00008A0000206D62207374617274E1
:102B6000210D0A0090000020FEB505460C4600200D
:102B700001902088052838D1687800020290A87852
:102B80000299084302900298401C80B20290E878B3
:102B900006022E79012E25DB7D2E23DC2F46002018
:102BA0002080032038707F1C2088401C2080700605
:102BB000000E38707F1C2088401C20800023324685
:102BC0003846029900F014FA00900098002804D0CA
:102BD000009800F01DFE019009E020887100401867
:102BE000208004E00320019001E00320019001987F
:102BF000FEBDFEB504460E46002001903088062832
:102C000029DB60780702A0780743781C87B2E07858
:102C100005022079054360790290012D18DB782D9B
:102C200016DC6806010E0298814211D101232A4662
:102C30003946A01D00F0DCF900900098002804D06F
:102C4000009800F0E5FD019007E00520308004E0E9
:102C50000320019001E0032001900198FEBD0000D7
:102C6000F8B505460C4616461F4600200090002C7D
:102C700003D0012C01DBF72C02DD0220009037E0AD
:102C80001C480470002D20D11B481C4908601C48BA
:102C90001C4908601C481D4908601D481D49086002
:102CA00000201D4908601D481D4908601D481E4937
:102CB00008601E481E4908603A4631460D480078B3
:102CC000069B00F0DFF8009002E00220009000BFB9
:102CD00000BF009800280BD100F02CFE002802D184
:102CE0000320009004E01348057001201249087089
:102CF0000098F8BD88000020B52F0000900000204B
:102D0000D92F000094000020292F00008C00002003
:102D1000DD2E0000980000209C000020013A0000F9
:102D2000A0000020D13A0000A40000208D3A00004D
:102D3000A8000020890000208A00002038B5002566
:102D400045480078002801D0062038BD684600F0CC
:102D5000DFFD01287DD168460078002806D00128D3
:102D600005D002281AD0032872D170E070E03B4AE7
:102D70003B493C483C4B1B6898470546002D0CD10D
:102D80003848007839490978884203D035480078B6
:102D9000002802D1022000F0D5FD59E0304800683B
:102DA000007833490870012032490870002418E087
:102DB000E0003149085C002800D114E0E0002E4911
:102DC000085C2B49097888420AD1E0002A4940185A
:102DD000224942682248006890472649087002E06C
:102DE000641C022CE4DB00BF1E48007800282CD0B5
:102DF00020480078002819D00020184908801C4875
:102E000000788021084315490A880988491C134B1A
:102E100019801349096888541648027818460188B1
:102E20000088401C18800E480068425413480078FF
:102E3000012800D100BF09480288094801680B48F1
:102E400000780F4B1B689847054601E001E000BF82
:102E500000BF002079E700008A000020CA0000209F
:102E6000C4000020C8000020980000208800002036
:102E7000C9000020CC000020B40000208900002000
:102E80008C000020F8B50E4614461F460020009026
:102E9000FEF770FA3B4608222146304600F06AFDF4
:102EA000012802D00320009011E04B200002844250
:102EB00001D9232504E061000748FDF745F90546DF
:102EC000A8B200F08FFD012801D003200090FEF78A
:102ED0006BFA0098F8BD0000A07F1700F8B5044613
:102EE0000D4616460027FEF745FA0D4800880428CF
:102EF00011DB0B4801880B4800F0C0FC00280AD108
:102F000008480078207006480088C01E30800548B8
:102F1000401C286000E00527FEF746FA3846F8BD59
:102F20008600002048010020F8B505460E461746E9
:102F300000200090FEF71EFA19480078012829D1D8
:102F4000701E18490860012017490880154800685C
:102F5000057008460088C019088008460188114895
:102F6000006800F08BFC04460F4A1088421C0E4B90
:102F70001A800E4A145421121A461088421C1A80D4
:102F80000A4A115401200A4908700121002000F06A
:102F900091FC01E005200090FEF706FA0098F8BDCC
:102FA0007D000020800000208400002048010020D7
:102FB0007C00002010B5FEF7DDF9002005490870FF
:102FC0000021012000F076FC00F09CFCFEF7ECF9FB
:102FD00010BD00007D00002010B5FEF7CBF90021E8
:102FE000084600F067FC00F087FCFEF7DDF910BD35
:102FF000FFB583B004460F46164600200290012F0D
:1030000032DBB8190F282FDC7D1E0698002802D06D
:10301000012828D113E00FE0A8B2FEF783FF680073
:103020001449085A00122070641C6800085C207063
:10303000641C6D1C701E86B2002EEDDC13E010E0E7
:103040002178641C080201902078641C01990843CF
:103050000190A8B20199FEF7EBFF02906D1C701E63
:1030600086B2002EECDC01E001200290029807B04D
:10307000F0BD00004802002030B504460D46204651
:10308000FEF7CEFD204630BD10B500F01BF802481B
:10309000FEF75AFC10BD00009D30000070B50446DC
:1030A0000D46002C04D100F0D1F8287072B607E06C
:1030B000012C05D12878002801D062B600E072B654
:1030C00070BD000010B564210C480068FDF73CF8A5
:1030D00004460B48844200D90EE02002000A401E3C
:1030E000084948610321081FFEF7F2FB002005494B
:1030F00088610720086100BF10BD000000000020AB
:10310000FFFFFF0000E000E070B50C244443094DD0
:103110002B5500250C244443064EA41965800C242D
:10312000444335466419A2800C2444436419A160C9
:1031300070BD00000801002008480078002805D173
:103140000749086201200549087005E0012004498B
:103150000862002001490870704700003E0000200E
:103160000042005010B5012211020348FEF730F969
:1031700001200249086210BD00400050004200508A
:1031800010B5074801780078401C054A1070642982
:1031900004DDFFF7D1FF00200149087010BD0000D9
:1031A0003D00002010B5FFF7DDFF10BD10B500F0A9
:1031B00065FA002413E001210C206043094A1154F0
:1031C00000210C206043801841800C20604380184F
:1031D00081800C20604380188160601CC4B2022C86
:1031E000E9DB10BD0801002010B502460C20504359
:1031F000084BC018806800280AD00C20504319548E
:1032000000230C205043034C00194380002010BDC4
:103210000120FCE70801002010B5012240210348ED
:10322000FEF7D6F800200249886110BDC04000506A
:10323000C04200500020014988617047C0420050E0
:103240000120014988617047C042005000BFEFF380
:103250001080002801D1012070470020FCE7000009
:1032600010B5012000F0EEF8C407E40F022000F0D2
:10327000E9F84000022108400443032000F0E2F88E
:103280008000042108400443084600F0DBF8C00039
:10329000082108400443052000F0D4F80001102163
:1032A00008400443062000F0CDF8400120210840EA
:1032B0000443072000F0C6F8800140210840044381
:1032C000082000F0BFF8C0018021084004432648D0
:1032D0000470002440E00120A04023490978014007
:1032E0000120A040214A12781040814205D00020E0
:1032F0001F49085501201F4908551E48005D012837
:1033000028D11B48015D005D401C194A1055052954
:1033100020DD0020174908550120A04012490978F6
:10332000084000280BD0611C13A0FEF7E5FE012029
:10333000A040164909780843144908700AE0611C46
:1033400013A0FEF7D9FE0120A0401049097881435F
:103350000E480170601CC4B2082CBCDB0248007827
:103360000249087010BD0000490000204A000020FA
:10337000410000204B000020696E707574202564A8
:10338000206973206F6E0D0A000000003F000020CE
:10339000696E707574202564206973206F66660DF0
:1033A0000A00000010B51A4800781A490870002475
:1033B00027E00120A0401749097801400120A040E2
:1033C000154A12781040814219D00120A0401149BD
:1033D00009780840002809D0611CC8B2012100F01A
:1033E000D7F8611C0DA0FEF787FE08E0611CC8B28B
:1033F000002100F0CDF8611C0DA0FEF77DFE601CE1
:10340000C4B2082CD5DB034800780349087010BD0E
:103410004000002053000020540000204F757470BD
:103420007574202564206973206F6E0D0A000000FA
:103430004F7574707574202564206973206F6666FB
:103440000D0A000000B502461300FEF77CFE092BB2
:10345000060A0E12171C21262B001648C069C1B29D
:1034600021E01448806BC1B21DE01248C06BC1B2AC
:1034700019E01048C038C06BC1B214E00D48C03824
:10348000806BC1B20FE00B48C038406BC1B20AE09C
:103490000848C038006BC1B205E006488038C06BF0
:1034A000C1B200E000BF00BF002901D1012000BD72
:1034B0000020FCE7C042005010B5002280213148B6
:1034C000FDF786FF0022012189032E48FDF780FFCA
:1034D00000220121C9032B48FDF77AFF00220121B8
:1034E000C9032848C038FDF773FF00220121890372
:1034F0002448C038FDF76CFF002201214903214810
:10350000C038FDF765FF0022012109031D48C038BE
:10351000FDF75EFF00220121C9031A488038FDF73C
:1035200057FF0122110317488038FDF751FF012290
:10353000202114488030FDF74BFF01221021114853
:103540008030FDF745FF0122D1020E48C038FDF75B
:103550003FFF012291020B48C038FDF739FF0122DD
:1035600051020848C038FDF733FF002006490863C0
:1035700006494861086104494039C8628862486266
:1035800010BD0000C0400050404200504043005079
:1035900000B50300FEF7D7FD0747050F19232F3BA2
:1035A0004700002903D00122204B1A6302E00022C9
:1035B0001E4B1A6338E0002903D001221C4B5A61CC
:1035C00002E000221A4B5A612EE0002903D00122AA
:1035D000174B1A6102E00022154B1A6124E0002902
:1035E00004D00122114B403BDA6203E000220F4B72
:1035F000403BDA6218E0002904D001220B4B403B2B
:103600009A6203E00022094B403B9A620CE00029D9
:1036100004D00122054B403B5A6203E00022034BD9
:10362000403B5A6200E000BF00BF00BD4042005076
:103630004043005010B5FFF713FEFFF7B3FEFFF74E
:103640009FFDFDF73BFF10BD10B5FFF7AFFDFFF786
:10365000E3FDFFF7A7FDFFF72FFFFDF783FFFEF761
:103660009FF8FFF7EDFD0223024A03490020FFF710
:103670004BFD10BD409C00003532000010B50F4AD4
:103680000121C9060E48FEF767FB00BF0C48006821
:103690000121490708430A49086000BF09200121A8
:1036A0008140084A116000BF00BF054800689105CD
:1036B00008430349086000BF10BD0000400D03002F
:1036C0002000014000E100E07FB500BF33480AE080
:1036D0005921334A11601621116088211160411E61
:1036E000081E00D103E02E4909680129F0D100BF6E
:1036F00000BFFEF7D9F900BF00202949086000BFCC
:10370000FDF76CFDFFF7C0FCFEF792F92548016854
:1037100025A0FEF7F1FC28A0FEF7EEFCFFF794FFD2
:1037200000BF2A4B5A6899681868DB6803930192B6
:10373000029100902648006801901A4800680290A3
:10374000244840690C2108408508224A9269FF23D9
:103750001B041A40120C511CAA006B469858FCF727
:10376000F3FC06461521FCF7EFFC044621461AA09F
:10377000FEF7C2FC01231A461F490020FEF71EF97E
:1037800000F042F801231A461C491846FEF716F9C4
:10379000FEF732F9002004B070BD00000080510136
:1037A00000010050000000200A0A4350552040202C
:1037B000256420487A200A004F5320496E697469B5
:1037C000616C697A6564212121210A00403B000077
:1037D00008000020000200505461736B20496E699C
:1037E0007469616C697A65642C41444320402564A6
:1037F00020487A0A00000000353600000138000039
:1038000010B5FFF79BFA10BD10B5FEF753F810BDC9
:103810000146002904D0012904D0072906D103E07C
:10382000002005E0022003E0062001E0042000BFA4
:1038300000BF7047F8B506460C46FDF75EF8051E5A
:103840000F4600D00120014349000B484908411AA6
:10385000C90F0DD0002E01D0012100E000210C4342
:1038600061004908401AC00F02D10120FEF788FC10
:1038700028463946F8BD00000000F07F70B50246CA
:103880000B46FF25FF2408E01178521C61400748D1
:10389000405C684004460648455C18465E1EB3B26C
:1038A0000028F1D12802204370BD0000D03B000069
:1038B000D03C0000002806D00E4A526801231A436B
:1038C0000C4B5A6005E00B4A526852085200094BF3
:1038D0005A60002906D0074A526802231A43054B52
:1038E0005A6005E0034A526802239A43014B5A602A
:1038F000704700000080054010B501210846FFF721
:1039000073FC10BD10B502210120FFF76DFC10BD46
:1039100001460020054A1278002A06D0044A12788F
:103920000A700022014B1A700120704779000020B4
:103930007800002000200249087001207047000034
:103940007900002001460120024A107002480170EF
:1039500001207047790000207800002010B504464F
:10396000012221460248FEF7A9FA012010BD0000FD
:1039700000800540F8B507461D460126002D04D0FD
:10398000012D04D0022D06D103E0002403E0082419
:1039900001E0182400BF00BF002E11D0FDF7EAFCA3
:1039A0000848FEF725F9E12149020748FEF72AFAFF
:1039B000102001218140054A116000BFFDF7F4FC91
:1039C0003046F8BD090000080080054000E100E035
:1039D00001B5012269460248FEF789FA012008BDB7
:1039E0000080054010B504460123224603480168C3
:1039F0001846FFF789FB012010BD0000A800002039
:103A000038B500246846FFF7A9FF1D480078002854
:103A100006D001280AD002281AD003282CD102E0AF
:103A2000FFF770FF28E0FFF76DFF25E00020154944
:103A3000088069460A7813490888411C114B19808F
:103A400011490A5402200E490870FFF75BFF13E08A
:103A50000C480088FF2809DC69460A78094908886B
:103A6000411C084B198008490A5402E0032004490C
:103A70000870FFF747FF00BF00BF204638BD0000B9
:103A80007D000020860000204801002010B50024A1
:103A90000E480078002804D0022807D003280BD154
:103AA00009E00020FFF74EFF044606E00120FFF783
:103AB00049FF044601E000E000BF00BFFFF71CFF24
:103AC000012002490870204610BD00007D00002042
:103AD00010B5002417480078002802D0012825D10D
:103AE00004E000210120FFF7E5FE1FE012480088F6
:103AF00000280FD0114909680878FFF769FF0F48BF
:103B00000068401C0D4908600B480088401E0A49A7
:103B100008800AE00320FFF715FF0446002101207A
:103B2000FFF7C8FE00200349087000BF00BF204611
:103B300010BD00007C0000208400002080000020D8
:103B4000001BB700000000000000000000805101D1
:103B500000000000040000000C0000002400000031
:103B600000000000040000002C0000000000000025
:103B700000000000040000002C0000000000000015
:103B8000001BB70000000000000000000000000063
:103B9000000000001027000000000000008051011C
:103BA000001BB70000000000000000000080510171
:103BB000001BB70000000000000000000080510161
:103BC000001BB70000000000000000000080510151
:103BD00000C1814001C0804101C0804100C18140DD
:103BE00001C0804100C1814000C1814001C08041CD
:103BF00001C0804100C1814000C1814001C08041BD
:103C000000C1814001C0804101C0804100C18140AC
:103C100001C0804100C1814000C1814001C080419C
:103C200000C1814001C0804101C0804100C181408C
:103C300000C1814001C0804101C0804100C181407C
:103C400001C0804100C1814000C1814001C080416C
:103C500001C0804100C1814000C1814001C080415C
:103C600000C1814001C0804101C0804100C181404C
:103C700000C1814001C0804101C0804100C181403C
:103C800001C0804100C1814000C1814001C080412C
:103C900000C1814001C0804101C0804100C181401C
:103CA00001C0804100C1814000C1814001C080410C
:103CB00001C0804100C1814000C1814001C08041FC
:103CC00000C1814001C0804101C0804100C18140EC
:103CD00000C0C101C30302C2C60607C705C5C404AC
:103CE000CC0C0DCD0FCFCE0E0ACACB0BC90908C81C
:103CF000D81819D91BDBDA1A1EDEDF1FDD1D1CDC0C
:103D000014D4D515D71716D6D21213D311D1D0107B
:103D1000F03031F133F3F23236F6F737F53534F46B
:103D20003CFCFD3DFF3F3EFEFA3A3BFB39F9F838DB
:103D300028E8E929EB2B2AEAEE2E2FEF2DEDEC2CCB
:103D4000E42425E527E7E62622E2E323E12120E03B
:103D5000A06061A163A3A26266A6A767A56564A42B
:103D60006CACAD6DAF6F6EAEAA6A6BAB69A9A8689B
:103D700078B8B979BB7B7ABABE7E7FBF7DBDBC7C8B
:103D8000B47475B577B7B67672B2B373B17170B0FB
:103D900050909151935352929656579755959454EB
:103DA0009C5C5D9D5F9F9E5E5A9A9B5B995958985B
:103DB000884849894B8B8A4A4E8E8F4F8D4D4C8C4B
:103DC00044848545874746868242438341818040BB
:103DD000F03D000000000020E4000000622100002F
:103DE000D43E0000E40000208405000072210000A1
:103DF00080F0FA023200000080F0FA02001BB700E7
:103E00000000000080F0FA0210270000000000000F
:103E100000000000000000000080510100000000D0
:103E200000000000000000000133445510000000B5
:103E30000000000000000000000000000000000082
:103E40000000000000000000000000000000000072
:103E50000000000000000000000000000000000062
:103E60000000000000000000000000000000000052
:103E70000000000000000000000002000000000040
:103E80000000000000000000000000000000000032
:103E90000000000000000000000000000000000022
:103EA0000000000003000000692B0000100000006B
:103EB000F32B0000000000000000000000000000E4
:103EC000102748F40000000000000000000000007F
:043ED00000000000EE
:04000005000000D522
:00000001FF
