:020000040000FA
:1000000098040020D5000000F5000000F700000073
:1000100000000000000000000000000000000000E0
:1000200000000000000000000000000007010000C8
:10003000000000000000000009010000410A00006B
:100040000D0100000D0100000D0100000D01000078
:100050000D0100000D0100000D0100000D01000068
:100060000D010000890B00000D0100000D010000D2
:100070000D0100000D0100000D0100000D01000048
:100080000D0100000D0100000D0100000D01000038
:100090000D0100000D0100000D0100000D01000028
:1000A0000D0100000D0100000D0100000D01000018
:1000B0000D0100000D0100000D0100000D01000008
:1000C0000348854600F068F80048004729140000FE
:1000D0009804002012481349016013490160134934
:1000E0000160134A134911600021016012488047E2
:1000F00012480047FEE77046EFF30881EFF30982EC
:100100000F4B98470047FEE7FEE7FEE7FEE70000DB
:10011000ABBE0C4B7446984720477046F047000032
:100120000001005059000000160000008800000087
:1001300024000050A55A0000AD0A0000C1000000D4
:100140000D0900004909000030B50B4601460020AA
:100150002022012409E00D46D5409D4205D31D46CD
:100160009540491B2546954040191546521E002DC5
:10017000F1DC30BD03460B439B0703D009E008C9FF
:10018000121F08C0042AFAD203E00B780370401C47
:10019000491C521EF9D27047064C0125064E05E057
:1001A000E36807CC2B430C3C98471034B442F7D398
:1001B000FFF78AFF68150000881500001FB50C4C7A
:1001C0001ECC03946C460EC4810F89006A465158B8
:1001D000084A89184968C306DB0E01229A40114378
:1001E000820F92006B469A58024BD21851601FBD85
:1001F000F814000000020050F3B589B00C4601204D
:10020000000453490862099800280ED10846006886
:10021000012108434E490860012000F03BFA00200C
:1002200006904C48089002250EE0494800680421D9
:10023000084347490860102000F02CFA0120C00450
:1002400006904548089004254448844204D840104C
:10025000844201D9002712E04148844205D8401069
:10026000844202D90127640009E03E48844205D84F
:100270004010844202D30327A40000E057E000208E
:10028000C043039000200190029034E02946089872
:10029000FFF75AFF05903449059888422AD9334917
:1002A0000598884226D2022007901EE0059E0799F5
:1002B0004E432B48864215D34000864212D8A642B0
:1002C00001D9301B00E0A01B0490039904988842D8
:1002D00008D204980390019507980290039800288B
:1002E00000D106E00798401C0790214907988842F2
:1002F000DCD900BF6D1C212DC8D9B803069908436D
:100300000199891E490208430299891E0843104930
:100310000862042000F0BEF9781C019A504301469F
:100320000898FFF711FF029948430BB0F0BD0998F8
:10033000002803D10F480649086202E00E4804492C
:100340000862042000F0A6F900F060F8EDE7000074
:1003500000020050001BB7000080510100C2EB0BEF
:1003600000E1F50580F0FA02006A1800C0E1E4003F
:10037000010200002EC200006FD608000249096881
:100380000143014A1160704700020050FEB5002091
:1003900002901AA0006800901948046A00132040D7
:1003A000002801D00020FEBD0120C004204000280C
:1003B00001D0144D00E0144D0120400420400028DD
:1003C00001D02846EFE7032080032040800B6946D8
:1003D0000A5C0192E005C00D861C1F2040022040EF
:1003E000400A871C019A7A431146AA0872431046B4
:1003F000FFF7AAFE800002900298D4E701020204EF
:100400000002005000805101001BB700FEB5002023
:1004100002901AA0006800901948046A0013204056
:10042000002801D00020FEBD0120C004204000288B
:1004300001D0144D00E0144D01204004204000285C
:1004400001D02846EFE7032080032040800B694657
:100450000A5C0192E005C00D861C1F20400220406E
:10046000400A871C019A7A431146AA087243104633
:10047000FFF76AFE800002900298D4E701020204AE
:100480000002005000805101001BB700FEB50020A3
:1004900002901AA0006800901948046A00132040D6
:1004A000002801D00020FEBD0120C004204000280B
:1004B00001D0144D00E0144D0120400420400028DC
:1004C00001D02846EFE7032080032040800B6946D7
:1004D0000A5C0192E005C00D861C1F2040022040EE
:1004E000400A871C019A7A431146AA0872431046B3
:1004F000FFF72AFE800002900298D4E7010202046E
:100500000002005000805101001BB70070B5044686
:100510002248C0681021084005462148844200D97D
:1005200004462048844200D204461C480068042146
:1005300008431A490860102000F0ACF81748006919
:100540000721084315490861084680690009000130
:1005500088610846C068C007C00F002805D0610048
:100560000020FFF749FE04460AE061000120C004B4
:10057000FFF742FE04460948C068102108400546BE
:100580000121022000F010F8002D05D10348006879
:100590000421884301490860600870BD00020050D2
:1005A00080F0FA0240787D0170B504460D46164889
:1005B000C06810210840064613480068042108431B
:1005C00011490860102000F065F80F480069C00864
:1005D000C000C01D0C49086108468069000900017F
:1005E0002843886108460069C008C00020430861AC
:1005F00000F02AFA002E05D1034800680421884340
:100600000149086070BD000000020050F7B584B0D9
:1006100000220023184C2546E0CDE468029701969D
:10062000009503948403240E002C0ED00403A40F21
:10063000A400124D63198403250E8405E40EA54021
:100640001C68AC43069D2C431C600401640F002C05
:1006500010D08400A40FA4006D462C59074D083D0E
:1006600062190401650FC401E40EA5401468AC438F
:100670000C43146007B0F0BDE814000018020050ED
:1006800003490969382291430143014A11617047C6
:1006900000020050014608480068420805E0104684
:1006A000521E002801DC002070470448C068084042
:1006B0008842F4D10120F7E700000020000200503A
:1006C00010B5044800F082F9E1214902024800F027
:1006D0006DFA10BD110000040000154070B503460E
:1006E00000200FE0012484400C40002C09D01C683D
:1006F00046000325B540AC4346001546B5402C43A3
:100700001C60401C1028EDD370BD000010B5002403
:100710002CE00C206043174940188068002823D043
:100720000C206043085C02281ED10C206043401856
:100730004088401C81B20C2060430E4A80184180E2
:100740000C2060431146401841880C2060438018FB
:100750008088814208DB01210C20604311540C2168
:100760006143891888688047601CC4B2032CD0DBC1
:1007700010BD00007400002010B5002819DA1A4AD4
:1007800003071B0F083B9B089B00D2588307DC0E16
:10079000FF23A3409A438B071B0E8407E40EA3405C
:1007A0001A43114B0407240F083CA408A4001A5153
:1007B00018E00E4A03231B02D21883089B00D2586C
:1007C0008307DC0EFF23A3409A438B071B0E84078D
:1007D000E40EA3401A43054B032424021B1984088A
:1007E000A4001A5110BD00001CED00E000E100E083
:1007F00003490968002901D10149086070470000D8
:1008000034000020002027E00C214143144A5158B5
:1008100000291FD00C21414389180989491C8AB23B
:100820000C2141430E4BC9180A810C2141431A4641
:1008300089180A890C214143C918C9888A4209DBF1
:1008400000220C214143C9180A8101220C21414395
:10085000C9180A71411CC8B20328D5DB70470000D3
:100860005000002070B50C2444430C4D2C59002C32
:1008700012D10C244443295100250C244443074E33
:10088000A41925710C24444335466419E2800025DF
:100890000C244443A419258170BD000050000020A1
:1008A00016E0002412E00C2060430A494018007949
:1008B000012809D100210C206043064A80180171EB
:1008C0000C21614350588047601CC4B2032CEADB02
:1008D000E7E7000050000020002012E000220C2179
:1008E0004143094B5A500C214143C9180A710C214C
:1008F0004143C918CA800C214143C9180A81411CCF
:10090000C8B20328EADB704750000020F8B505465E
:100910000E46174604202840002801D03C4600E03F
:10092000344605A000F09EF900BF0121206808436D
:100930000028FAD12846F8BD20204861726446613B
:10094000756C74210A0A00000346002070470000FD
:1009500010B50420FFF712FD1020FFF79BFE0021C9
:100960000720FFF721FE0120FFF708FD0120FFF718
:1009700091FE1348FFF7CAFD1820FFF781FE1148CA
:10098000FFF71CFC1048FFF719FC002211460D4828
:10099000FFF73CFE0022012149030B48FFF736FE1A
:1009A00005200007406B3021884305210907486373
:1009B0000846406B3021084305210907486310BDF4
:1009C00080F0FA02113D80570300C05E010E05223F
:1009D000120789188968012282401143020E0523FB
:1009E0001B07D2189160010E1A4689188A680121E6
:1009F00081408A43010EC9188A60704700B50346DA
:100A0000184600F001F800BDC1B20A290AD100BFA2
:100A10000A4989690122D20511400029F8D10D2126
:100A2000064A116000BF054989690122D2051140BB
:100A30000029F8D101490860704700000000154006
:100A400010B5FFF7DFFE10BD70B5FFF79FFC114931
:100A500008601148006945076D0F022D03D0A800FA
:100A60000E490C5801E00B4804680B4880690007E8
:100A7000000F461C31462046FFF766FB0849086018
:100A80000849074800684A108018FFF75DFB0649CF
:100A9000086070BD08000020000200500C0000201B
:100AA0000000002040420F000400002070470000BA
:100AB00030B589B005462022194901A8FFF75AFB35
:100AC0001848854206D118484069072109020840A4
:100AD000040A1AE013482030854206D112484069C2
:100AE000072109030840040B0FE01048854206D196
:100AF0000D484069072109040840040C05E00A4834
:100B00004069072109050840040D022C03D108485B
:100B1000006809B030BDA00001A90858F9E700003D
:100B200018150000000001400002005000001140B4
:100B300000000020F7B582B0064617463046FFF7A2
:100B4000B7FF01900024002501984008B84201D267
:100B500002240CE039460198FFF7F6FA0446250E08
:100B6000002D04D0691C2046FFF7EEFA04460398D6
:100B7000284330607460681C604301460198FFF7A9
:100B8000E3FA05B0F0BD000010B500BF064880686C
:100B9000C007C00F002806D000BF012002498860AE
:100BA00000BFFFF7B3FD10BD20000140F0B587B0D6
:100BB00004460D46274801460EC9C06803AE0EC65E
:100BC000069000200290244840690321090608404D
:100BD000060E214880690F2109020840070A0020FB
:100BE00020630320E060A0681C490840A060012E3B
:100BF00004D1FFF74BFCB10003AA5050002D26D0C2
:100C0000B10003AA5058791CFFF79EFA69084018F2
:100C100029460190FFF798FA801E02901049029829
:100C200088420FD9B10003AA5058791CFFF78CFAFB
:100C3000E900401829460190FFF786FA0009801E56
:100C4000606204E00321090702980843606207B06C
:100C5000F0BD000038150000000200500FFFF0FF4B
:100C6000FFFF00000FB410B503A9044B044A02981B
:100C700000F026F810BC08BC04B01847110E0000A4
:100C80002C00002030B47446641E2578641CAB42EE
:100C900004D3635D5B00E31830BC18471D46F8E7DA
:100CA00002E008C8121F08C1002AFAD17047704735
:100CB000002001E001C1121F002AFBD17047000093
:100CC000FFB58DB00446002506E025280AD0109A0D
:100CD0000F999047641C6D1C20780028F5D1284698
:100CE00011B0F0BD00270121484A009700E00743FA
:100CF000641C23780846203B98401042F7D12078A6
:100D00002E2817D1042007436078641C2A280CD1B0
:100D10000E98641C02C800910E900BE000990A2204
:100D2000514330394018641C009020780146303916
:100D30000929F3D920780028D1D0642808D069285F
:100D400006D075281ED0109A0F9990476D1C5BE055
:100D50000A200E99019001C90E91002802DA404242
:100D60002D2102E0390504D52B216A46117201219B
:100D700003E0F90704D02021F7E70BAE0B910DE05B
:100D80000021FAE70A200E99019001C90E91F7E7B8
:100D90000199FFF7D9F93031761E31700028F7D16B
:100DA00003A8801B20300190780701D5009801E04E
:100DB000012000900199884201DD401A00E00020E6
:100DC0000027009006E002A8109AC05D0F99904796
:100DD0006D1C7F1C0B988742F5DB04E0109A3020D5
:100DE0000F9990476D1C0099481E00900029F5DC72
:100DF00005E03078109A761C0F9990476D1C019988
:100E0000481E01900029F4DC641C65E709280100F4
:100E100030B504460D462046FFF7F0FD204630BDB4
:100E200010B500F01BF80248FFF7E2FC10BD00000F
:100E3000350E000070B504460D46002C04D100F0BC
:100E4000D1F8287072B607E0012C05D12878002867
:100E500001D062B600E072B670BD000010B564212A
:100E60000C480068FFF770F904460B48844200D92B
:100E70000EE02002000A401E084948610321081FB5
:100E8000FFF77AFC0020054988610720086100BF50
:100E900010BD000000000020FFFFFF0000E000E0A8
:100EA00070B50C244443094D2B5500250C244443B4
:100EB000064EA41965800C24444335466419A2806B
:100EC0000C2444436419A16070BD0000740000202C
:100ED00008480078002805D1074908620120054923
:100EE000087005E0012004490862002001490870EB
:100EF00070470000390000200042005010B5012268
:100F000011020348FFF7EAFB01200249086210BD05
:100F1000004000500042005010B5074801780078AA
:100F2000401C054A1070642904DDFFF7D1FF002042
:100F30000149087010BD00003800002010B5FFF70F
:100F4000DDFF10BD10B500F049FA002413E00121C7
:100F50000C206043094A115400210C206043801882
:100F600041800C206043801881800C2060438018F1
:100F70008160601CC4B2032CE9DB10BD740000204A
:100F800010B502460C205043084BC018806800285A
:100F90000AD00C205043195400230C205043034C1A
:100FA00000194380002010BD0120FCE774000020E0
:100FB00010B5012240210348FFF790FB00200249B1
:100FC000886110BDC0400050C0420050002001495F
:100FD00088617047C0420050012001498861704714
:100FE000C042005000BFEFF31080002801D1012063
:100FF00070470020FCE7000010B5012000F0D2F897
:10100000C407E40F022000F0CDF8400002210840A0
:101010000443032000F0C6F8800004210840044384
:10102000084600F0BFF8C00008210840044305202E
:1010300000F0B8F80001102108400443062000F039
:10104000B1F84001202108400443072000F0AAF82D
:101050008001402108400443082000F0A3F8C001AB
:101060008021084004432C480470002449E00120FA
:10107000A0402A490978884201D0012000E00020E0
:101080002549097808400121A1400840002806D0E0
:1010900000202349085501202249085504E0204832
:1010A000005D401C1E4908551D48005D0A2826DBCE
:1010B0001C48005D012822D100201A490855012052
:1010C000A04015490978084000280CD0611CC8B21E
:1010D000012100F007F90120A040134909780843D5
:1010E000114908700BE0611CC8B2002100F0FAF849
:1010F0000120A0400C49097881430B480170601C15
:10110000C4B2082CB3DB04480078044908700221FB
:101110000120FFF735FF10BD4400002045000020EE
:101120003C000020460000203A00002010B51A487C
:1011300000781A490870012422E00120A0401849D3
:101140000978884201D0012000E000201349097885
:1011500008400121A140084000280FD00120A040F4
:101160000E4909780840002804D00121204600F0EB
:10117000B9F803E00021204600F0B4F8601CC4B2C6
:10118000072CDADB0548007805490870022108467B
:10119000FFF7F6FE10BD00003B0000204E000020CF
:1011A0004F00002000B502461300FFF76BFD092B2E
:1011B000060A0E12171C21262B001648C069C1B260
:1011C00021E01448806BC1B21DE01248C06BC1B26F
:1011D00019E01048C038C06BC1B214E00D48C038E7
:1011E000806BC1B20FE00B48C038406BC1B20AE05F
:1011F0000848C038006BC1B205E006488038C06BB3
:10120000C1B200E000BF00BF002901D1012000BD34
:101210000020FCE7C042005010B5002280212E487B
:10122000FFF75CFA0022012189032B48FFF756FAE9
:1012300000220121C9032848FFF750FA00220121AA
:10124000C9032548C038FFF749FA00220121890364
:101250002148C038FFF742FA0022012149031E4805
:10126000C038FFF73BFA0022012109031A48C038B1
:10127000FFF734FA00220121C90317488038FFF72D
:101280002DFA0122110314488038FFF727FA0122B2
:10129000202111488030FFF721FA012210210E4849
:1012A0008030FFF71BFA0122D1020B48C038FFF74C
:1012B00015FA012291020848C038FFF70FFA002002
:1012C0000649086306494861086104494039C86213
:1012D0008862486210BD0000C0400050404200508B
:1012E0004043005000B50300FFF7CCFC0747050F53
:1012F00019232F3B4700002903D00122204B1A63FA
:1013000002E000221E4B1A6338E0002903D00122BC
:101310001C4B5A6102E000221A4B5A612EE0002950
:1013200003D00122174B1A6102E00022154B1A610B
:1013300024E0002904D00122114B403BDA6203E093
:1013400000220F4B403BDA6218E0002904D0012252
:101350000B4B403B9A6203E00022094B403B9A62F0
:101360000CE0002904D00122054B403B5A6203E007
:101370000022034B403B5A6200E000BF00BF00BDAB
:10138000404200504043005010B5FFF7C5FD10BD6E
:1013900010B5FFF7D7FDFFF70BFEFFF7CFFDFFF707
:1013A0003BFFFFF719FE0223084A09490020FFF717
:1013B00077FD0223142207490120FFF771FD022364
:1013C000142205491846FFF76BFD10BD409C000034
:1013D000CD0F0000F90F00002D11000010B50F4ACD
:1013E0000121C9060E48FFF7A5FB00BF0C480068A5
:1013F0000121490708430A49086000BF092001216B
:101400008140084A116000BF00BF0548006891058F
:1014100008430349086000BF10BD0000400D0300F1
:101420002000014000E100E010B500BF1D480AE0C7
:1014300059211D4A11601621116088211160411E39
:10144000081E00D103E0184909680129F0D100BF46
:1014500000BFFFF77DFA00BF00201349086000BFFE
:10146000FFF72EF91148016811A0FFF7FBFB14A04C
:10147000FFF7F8FBFFF7D4FCFFF72EFA012240211B
:101480001648FFF72BF9002015498861FFF780FF08
:1014900001231A4613490020FFF7E4F9FFF700FA89
:1014A000002010BD0080510100010050000000200C
:1014B0000A0A435055204020256420487A0A00003B
:1014C000486172645761726520496E697469616C24
:1014D000697A65212121210A00000000C0400050E6
:1014E000C04200508913000000000000040000000A
:1014F0000C000000240000000000000004000000B8
:101500002C000000000000000000000004000000AB
:101510002C00000000000000001BB70000000000CD
:101520000000000000000000000000001027000084
:101530000000000000805101001BB7000000000007
:101540000000000000805101001BB70000000000F7
:101550000000000000805101001BB70000000000E7
:1015600000000000008051018815000000000020EC
:1015700050000000A00C0000D81500005000002012
:1015800048040000B00C000080F0FA0232000000B5
:1015900080F0FA02001BB7000000000080F0FA02A1
:1015A0001027000000000000000000000000000004
:1015B0000080510100000000000000000000000059
:1015C000000000000000000000000000000000001B
:0815D000000000000000000013
:04000005000000D522
:00000001FF
